:400000000010002011000000150200001502000010B501F08BFC00F005F9C04610B51222124B1A60302001F0F3FBFE221202104B1A60104B104A1A60882189010F4A1160EC
:400040000F4A1A60E82149010E4A11600E4A1A6000220E4B1A6040320D4B1A6002320D4B1A60013A0C4B1A6010BDC04630001040000301400000014040FF00800803014091
:4000800042FF00800403014041FF00802800034008010140040101400001014010B572B6EE220E4B1A600E4A0E4B1A6001220E4B1A6002320D4B1A6021320D4B1A600223F9
:4000C0000C4A13600C490D4A11600D4A13600D4A1360FFF7A3FF00F097F810BD0001024090EE00000003024018000440000104400801044000030440B06D000008030440FB
:40010000180304401804044010B5064C2378002B07D1054B002B02D0044800E000BF0123237010BD0801002000000000E81C0000084B10B5002B03D00749084800E000BF0D
:4001400007480368002B00D110BD064B002BFBD09847F9E7000000000C010020E81C0000800000200000000010B5002000F0A2FA43425841C0B201F0E1FB10BD10B562B6AD
:4001800000F0A8F800F04AF900F04CFD00F00CFD002816D100F05CF900F0A8FAFFF7E4FF094C0221200000F0B3F83C21074800F0AFF8201D032100F0ABF800F06BFA00F0DC
:4001C00031FD01F09BFBE1E784000020480100200B4B1B68002803D080221206134301E05B005B08064A1360064B1B68002802D02022134301E020229343024A136070475A
:40020000002002402800034010B50120FFF7E0FF10BDC04610B501F029FD03680C2B00D1FEE7FEE770B50F4E0F4D13E029686B68AC68002202E001C901C30432A242FAD18A
:40024000E868002202E0002102C304328242FAD11035013E002EE9D101F00EFDFFF78EFFFEE7C04601000000981D000010B500230AE0032B03D89A000849505800E0084855
:400280009900084A885001331F2BF2D9FFF706FF80229205044B1A6010BDC04600000000150200000000002008ED00E010B500F08FF810BD10B500F037F810BD10B5044A89
:4002C0001368802109060B431360FFF7EFFF10BD0000094010B5064B1B78002B04D1FFF7E9FF0122024B1A70FFF7E8FF10BDC04624010020044B1B681F221340082BF9D040
:40030000024B18607047C046080209404002094070B506000D00002403E0305DFFF7EAFF0134AC42F9D370BD154A164B1A600023154A13601549164A1160072215490A6047
:4003400015490A60154A13600121154A11601549154A1160154A13600421154A1160154A1360154A1360154A1360154A1360154A1360154A13601268144B1A807047C046E0
:400380000B000002000009404000094001000A00480009400003094004030940100309404400094007000080000209400402094050000940880E0940C80E0940480F0940E5
:4003C000080F0940C80F0940880F09402601002005490B68F0229343603A13430B60034B1A88034B1A6070470003024026010020880F094010B5084B1B78002B06D100F0DA
:4004000013F900F069F90122034B1A7000F042F800F0ACFC10BDC0462801002010B5FFF7E9FF041E02D100F081FC0400002C02D100F0F8FB0400002C03D100F0B5FB0028CE
:40044000FBD100F0B1FA00F023FA200010BDC04670B50E4E0025002413E0630904339B000B4A9B581F222240D340DB0707D5300000F048F805003100200000F0A9F81C36C5
:400480000134002CE9D0280070BDC046F01C00004801002070B5002309E012491A1D92008818002444600120404250500133002BF3D00D4C012310E06668A27E094B5B190D
:4004C00000211976012A06D12069002803D0F179228B01F000FC1C342B005D1E002BEBD170BDC04648010020F01C000030B50B884A889C1A0025CD800079844200DDCC8063
:4005000030BDC046F0B55F4680B484B00600837E062B02D10122934601E000229346F568B46872680192029300270023039314E0029A2100280000F00FFB029A21000198AF
:4005400000F098FA039021000198FFF7CFFF0A345B46002B00D10C350137338B9F42E7D3039804B004BC9346F0BDC046F0B50A8B8D684F680B69012125E00C00044003D1FB
:400580007E88BA79B21802E07A88BE79921BEE88B24201D3002200E00A00A24202D01E78013E1E70A24202D01C78002C07D188431043002A01D1FA7900E001221A7049005C
:4005C0000A3501336246541EA446002AD5D1F0BD70B504008A7E134B1B181D7E012A04D12800FFF7C3FF050002E0002001F090F80C4B1B191D7663091F2214401E3AA240F1
:40060000002D07D104339B000649CB1859689143596006E004339B000249CB1859680A435A6070BD4801002070B5174C3C220021200001F050FB8823DB01238090231B01C3
:400640006380124BA38008236383073B2377104D20001E30290020310E2201F033FB2A002C1D01230CE0A168238B04E013784B7201320A310300581E002BF7D11C342B00DB
:400680005D1E002BEFD170BD4801002070170000EC1C00000123002006E0131D9B000449CB185B68184313005A1E002BF5D170474801002000280BD11F23034001229A404A
:4006C0004009031D9B000348C3185868104000E000207047480100200023024AD380024A13607047480100203C01002070B5002500263D4B1B68032B06D101F036F90122DF
:400700003A4BDA8001F035F9384BDC88E4B2062C23D8A300364AD3589F460122324B1A6001261AE00022304B1A60012615E0FFF775FE00222C4B1A60012501260DE0022296
:40074000294B1A60012608E00022274B1A60012603E00322244B1A600026002E0FD001F004F9224BDB88DBB29C4205D11F4AD188204B0B439BB2D38001F0FBF800261A4B9A
:400780001B68012BB5D0022B2CD1184A3433D35CDBB23721525CD2B2002B23D1D800C01A810015484118098B8A421BD20F49088980B2098F89B2884214D0D900CB1A990084
:4007C0000D4B59188C6893009A185300E41801F0CCF8064B1A8992B21A87228892B25A8701F0C7F8280070BD3C01002048010020381D00000080FFFFF01C0000FF23194026
:40080000062902D08318002119715300195AC31859808218002313727047C04670B506000D00012305E0220029003000FFF7E6FF23005C1E002BF6D170BDC04670B5094C25
:40084000C3001D1AAA00A21895688A0051184A00AA181B1A99006118897E1000FFF7DEFF70BDC046F01C000070B50500C200121A9300064AD3181B8B04E021002800FFF7FF
:40088000DDFF23005C1E002BF7D170BDF01C000010B5012303E02000FFF7E6FF23005C1E002BF8D110BDC04670B5012309E0FF231340062B04D063005E5A1B199D002E5250
:4008C00023005C1E002BF2D170BDC046F0B501230CE0FF231340062B07D065006F5A2E19B300C3185F806D5A9D8023005C1E002BEFD1F0BDF0B501230EE0FF231340062BB0
:4009000009D065006F5A2E19B300C318DF806E5A1E816D5A5D8123005C1E002BEDD1F0BDF0B5474680B48046C200121A9300174AD3181B8B24E04346DA00D21A9300134A5B
:40094000D318B200921954009A6894466444DA6815009F7E062F03D073009B199D0055193A0021002800FFF79FFF3A0021002800FFF7ACFF3A0021002800FFF7BBFF330008
:400980005E1E002BD7D104BC9046F0BDF01C000010B5012303E02000FFF7C2FF23005C1E002BF8D110BDC04610B5FFF7F1FF10BDF0B5012319E0FF231340062B14D0670067
:4009C0007B5A9C463E19B300C318DD8865441E89B44665445E89AD19AD0866465E81DE881E817E5ADE80CD5323005C1E002BE2D1F0BDC046884202D90300080019009142F1
:400A000000D91100884200D208007047F0B54F464646C0B483B001900F009046012317E0FF2342461340062B11D06E00F05B73199C00019B9C46644463889946A288190050
:400A4000FFF7D8FF4B46A380F35B6380B8532B005D1E002BE4D103B00CBC90469946F0BD9840504380235B009A1A51434018000A7047C046F0B5474680B482B007000E00D9
:400A8000019201233EE06300985BF3185988884205D3431A321900251572012201E00B1A0022002A11D17D79AB420ED933191B7A3A7A934205D3220001993000FFF79EFE48
:400AC0001FE03219013313721BE03D79AB4204D97D79AB4215D2002A13D1FF23019A1340062B0ED00902331998461B79194308230122FFF7B5FF020A6300F3185A80434687
:400B0000187123005C1E002BBDD1002002B004BC9046F0BDF0B5474680B407000E009046012313E0FF2342461340062B0DD06500A85B2A199300D95B00238022FFF790FF92
:400B400080B22A199300D853A85323005C1E002BE8D104BC9046F0BD70B504000D001600FFF754FF320029002000FFF7D3FF320029002000FFF71CFF70BDC04605230B7346
:400B80007047C04610B5064A1368F0218B431360044A1368EF398B43136000F0DDFB10BD00040240A8020B40024BDB68802018407047C0464801002010B50E4BDB68DB03A7
:400BC0000DD400280DD1430904339B00094A9B581F220240D340DB0705D4012404E0112402E0012400E00024002C01D100F0C6FB200010BD4801002010B5084BDB68DB03D2
:400C000007D4074B1B78012B05D100F031FB002003E0112001E00120404210BD480100204001002010B50C4BDB681B0612D40024012040420BE02000FFF7BEFF002805D19E
:400C40000022064B5A70FFF7D7FF04E00134002CF1D000E0112010BD480100204001002010B504000C4B1B78834214D0012B01D1FFF788FF012C05D100F062F90122064B24
:400C80001A7008E0022C06D0042C04D0032C02D00022014B1A7010BD4001002030B500210D4B16E0186802681C69A24302605C6822689D7E0720A840824310000622AA402A
:400CC00002432260986802685C69A24302601C3301310029E6D030BD1C1D00007047C046074A084B1A6001380002074B1860054B1B68002BFBDB054A024B1A607047C046AA
:400D000040000040000001400003014040FF008010B5031E01D1002000E00120002803D15521180000F006FC10BDC04670B50024002504E02000FFF7EBFF05430134002CCC
:400D4000F8D0280070BDC04610B5002409E0E200121B9300044AD31859682000FFF70EFF0134002CF3D010BDF01C000010B5FFF7EBFFFFF793FF0120FFF772FF002010BD20
:400D800070B5002516E0EB005B1B9A000B4BD658002406E0E3001B1B9800301800F0BCFA0134EA00521B9300044AD3181B7E9C42F0D30135002DE6D070BDC046F01C0000E1
:400DC00070B500F0D2FD134A1368F0218B43136000F0CFFD00F0C9FD0F4A136802218B43136000F0C6FD00F0C0FD0C4C23683825AB4330221343236000F0BBFD012000F0C9
:400E000073FD00F0B2FD2368AB43236000F0B1FD70BDC04600040240000404400804044001390843014B18607047C04600020B4010B50F4B1B68702293431C000D4B197F8F
:400E40000D4800F087FE0D4B984204D820232343074A13600BE00A4B984204D830232343034A136003E040232343014A136010BD8C00002048010020006CDC02001BB70056
:400E800000366E01034A044B1A60C1225204034B1A60704700008301C0010B40C4010B40074B1A687F210A40064802431A60064A13680B40802109040B4313607047C04612
:400EC000C0010B4000008301C4010B40064A136806490B431360064A064B1A60C1225204054B1A607047C046A8020B400100001000008301C0010B40C4010B4070B50E00C3
:400F00001500038801249C40013CA3001B195800642100F01FFE013083199C4200D22300B04201D8301A00E00020A84203D8AB4203D2062002E0062000E0002070BDC04675
:400F400070B5FFF71DFFFFF73BFFC0221203274B1A60274B1968274E314319600024264A1460264A1460264A1460264A1460264A1460264A1460264A1460264D2C60264A03
:400F80001460264A1168F0208143903801431160234A1168802040010143116080214900204A11601A6832431A6080235B041E4A13601E491E4A11601E4A14602B60FFF757
:400FC00061FF1D4B187FFFF78BFEFFF731FF1B4B1B681B4A13431B4A13600F221A4B1A601A4B1C60053A1A4B1A6070BD04020B40A8020B4001000010F4000B40B4020B409E
:40100000C0020B4020030B4084010B4088020B4080020B4084020B4080010B400004024094020B40A0020B40A4020B404112000088010B4090020B40480100208C00002008
:401040000010008000000B4000030B40F0010B4010030B4070B5050000F087FC0C490B687F26B3430B4A14782D196A7A13430B6000F07FFC00F079FC07490B68B343074A07
:4010800012681419627A13430B6000F072FC70BDC0010B40541D0000C4010B408401002010B503001400012088400138002B02D0190000F04FFD053C012C00D84008002829
:4010C00000D1013010BDC04610B50E4B1A78D2B2D3009A1A93000C4AD3185B6859891B7B18045A1F012A02D8802292041043053BDBB2012B02D8490800D10131FFF790FE81
:4011000010BDC04643010020F01C000010B50300408919881A7BFFF7C3FF0004000C014B186010BD14030B4010B50A2000F0DCFA01222D4B1A6000232C490B602C490B603D
:401140002C490B6006202C490860FA302B4908602B490A60832149002A4A11602A4A136003222A4B1A60E1231B0200E0013B254A1268520701D4002BF8D1002B02D108226B
:40118000224B1A60832252001E4B1A600A2000F0B5FA0A2000F09EFA0023184A1360144A1360144A1360144A1360A021144A11609F390E4A11600C4A1360154A1368802113
:4011C00049040B43136002220F4B1A60E1231B0200E0013B0F4A1268520701D0002BF8D10D4A0A4B1A6010BD80010B408C010B40B0020B40B4020B4088020B4080020B4084
:40120000F0010B40F0000B40F8000B4040030B4000020B4000000B400103000010B5054AD36805490B43D3600A2000F05DFBFFF77BFF10BD480100208000010070B50400EA
:40124000857E067E00F091FB23681B680F22B24093431A000423B3401343666832680721A9408A4332602268136000F082FB70BD70B5194E3278D2B2184DD3009A1A930032
:40128000EB185868164C002323703278D2B2D3009A1A9300EB1899682378DBB29A00D3185A008A180F4B1A60FFF7D4FE3378DBB2DA00D31A9A0050592278D2B2D3009A1ADB
:4012C0009300C018084B1860FFF7B8FF074800F0DFF9FFF7A3FF70BD43010020F01C0000420100208401002088010020B91A000010B5C300181A8300054A9858CB00591A81
:401300008B00C018034B1860FFF798FF10BDC046F01C00008801002070B50400007EA57E21680B680F22824093430B6000F01DFB61680B680722AA4093431A000623AB401A
:4013400013430B6000F015FBA1680B68607E0122824093430B6070BD10B5064B1B78012B06D1054B1868FFF7D7FF0022014B1A7010BDC046440100208801002070B5124E59
:40138000C200121A9300F3185D68C0B20F4C20700120FFF765FCFFF7DFFF2378DBB2DA00D31A9A0092590A4B1A600A4BDA687F218A43DA602178DA680A43DA602800FFF732
:4013C000A5FEFFF781FE70BDF01C000043010020880100204801002070B5C200121A9300134AD3185D68C9B2124C217099682378DBB29A00D3185A008A180F4B1A60FFF795
:40140000BDFF2800FFF726FE2378DBB20B49DA00D31A98000B689C4660440860FFF70EFF0122074B1A70074800F032F970BDC046F01C000042010020840100208801002016
:40144000440100208D1A0000F0B5474680B482B007000E00904630490A78D2B2D3009A1A93002E4AD3185B680193002333700878C0B22B4B1978C9B2FFF7AEFFFFF710FDAA
:4014800000248025BC4202D23378AB4333706D0833782B4333700198FFF7DCFDFFF7BEFEE1231B0200E0013B1E4AD268120601D5002BF8D11C4B1B681C88002DE2D1164B7A
:4014C0001B78DAB2D3009B1A9A00144BD058144B1A78D2B2D3009A1A9300C018134B1860FFF71AFF0022124B1A70FFF7EFFC220039000198FFF702FD43461A7833789A4263
:4015000001D242461370084B1B6832785A7202B004BC9046F0BDC04643010020F01C00004201002048010020840100208801002044010020F0B54F4680B484B00400894622
:40154000C200121A9300394AD3185F68012003AB18703B88984001384843642100F0FAFA0190E2B2324B1A70324800F091F83E0009360022304B1A7000250AE003AA3100E6
:401580000198FFF761FF05432B4A13780133DBB21370E200121B9300244AD318DA7E264B1B78DBB29A42E9D803AB1B7801335B087B720022204B1A7024E0E200121B9300AD
:4015C0001A4AD3189E681C4B1B78DBB29A00D3185A00B618194B1E60737A787A83420AD31B1AD8B270724B4658436330642100F0B1FA707201E0002373720F4A137801339C
:40160000DBB21370E200121B9300084AD318DA7E094B1B78DBB29A42CFD80022064B1A70280004B004BC9146F0BDC046F01C0000430100208D1A000042010020840100202A
:40164000014B98667047C0460000002010B5040000F08BF9044A1168044B0B40A4051C43146000F086F910BD08E400E0FFFF3FFF8022D200014B1A607047C04600E100E02D
:401680008022D200014B1A607047C04680E100E010B50400FFF7F4FF2000FFF7D1FF0320FFF7D4FFFFF7E4FF10BDC046024A1168024B0B401360704700000740FFFFFFBF38
:4016C000034B18688023DB05184000D001207047000007401F2318401E3B8340014A13607047C04600E100E01F2318401E3B8340014A13607047C04680E100E01F23184054
:401700001E3B8340014A13607047C04680E200E001BE704710B5040006E0084B586800F01BF9074B9C46644480231B029C42F4D8024B9868604300F00FF910BD90000020E9
:401740000080FFFF30B583B000F0E6F8002849D000F00BF90400244B196889001C2319401831224B1B689B0803221340D940204B1A68204B1340204A4A438020C001844681
:401780006244D20B013A5205520D1343A02252031A431000192902D8184A13430CE0184BCB181B781A39174A525C9A18FF2A00D9FF229205030013430D4A1360124D2B685F
:4017C0000193302000F09CF9104A13688021C9050B4313601420FFF79DFF019B2B60200000F0C7F803B030BD080F0340280003400800074000F800C040420F000000D43FAF
:40180000CDF1FF0F581D00003000104000000740F0B583B0040018280BD01C2809D0202807D0242805D0282803D02C2801D0302849D100F09AF80190FFF742FF002803D04D
:40184000FFF734FF012600E00026214A136807218B4313601F4BE3181B78DBB21E4A13601E4A13688B4313601D4803687F22934319001C4BE3181B7813400B430360322094
:4018800000F06AF8182C16D9114F3B680725AB431A0023001C3B9B082B4013433B60322000F05AF83A68AA432300183B9B082C001C4014433C60012E01D1FFF743FF01986A
:4018C00000F057F802E00020FFF722FF03B0F0BD080F0340CDF1FF0F0C0F0340100F0340180F0340B4F1FF0F10B5034B1B7B584300F032F810BDC0469000002010B500F097
:4019000034F8044A136804218B43136030BF00F030F810BD10ED00E0034B1B68002B01DA012000E00020704700000740014A024B1A6070476588EDAC3800034004490A681C
:40194000D2B210239A430001184010430860704700030440000000000230800803D001300238FCD1C046C0467047EFF3108072B6704780F310887047104B1A78D2B2D300E2
:401980009A1A93000E4AD3185B680E4A11680A04120C188801238340013B9A4206D20A4B1A680A4B1B785B00D15205E0064A1168064A127852008B527047C0464301002051
:4019C000F01C0000D0000B4084010020541D000070B5274B1978C9B2264CCA00511A8A00A21850681A78D2B2D1008A1A9300E3181A7E013A204B1B78DBB29A4220D91E4CAE
:401A000023780133DBB22370194D2A78D2B2D3009A1A9300174AD31899682378DBB29A00D3185A008A18154B1A60FFF713FB2878C0B22178C9B2FFF75BFCFFF775FB16E06E
:401A400000220D4B1A700E4AD1680E4B0B40D3600D4B1B78012B02D1FFF740F907E0084BDA6880218A43DA601A8901321A8170BD43010020F01C00004201002084010020A7
:401A800048010020FFFFFEFF4101002010B583225200064B1A60FFF76FFF054B1A8901321A81D968034A0A40DA6010BDF0000B40480100207FFFFEFF10B50D4B1B78DBB279
:401AC000DA00D31A9A000B4BD4580B4B1A78D2B2D1008A1A9300E41883225200074B1A60FFF74AFF2000FFF717FCFFF771FF10BD43010020F01C000042010020F0000B4027
:401B000070B50400FFF731FF0500102C05D8104A136803218B43136016E0202C07D80C490B6803229343023A13430B600CE0302C07D807490B6803229343013A13430B603C
:401B400002E00020FFF7E4FD2800FFF712FF70BD30001040002243088B4274D303098B425FD3030A8B4244D3030B8B4228D3030C8B420DD3FF22090212BA030C8B4202D3F8
:401B80001212090265D0030B8B4219D300E0090AC30B8B4201D3CB03C01A5241830B8B4201D38B03C01A5241430B8B4201D34B03C01A5241030B8B4201D30B03C01A52415F
:401BC000C30A8B4201D3CB02C01A5241830A8B4201D38B02C01A5241430A8B4201D34B02C01A5241030A8B4201D30B02C01A5241CDD2C3098B4201D3CB01C01A5241830974
:401C00008B4201D38B01C01A524143098B4201D34B01C01A524103098B4201D30B01C01A5241C3088B4201D3CB00C01A524183088B4201D38B00C01A524143088B4201D38A
:401C40004B00C01A5241411A00D20146524110467047FFE701B5002000F006F802BDC0460029F7D076E770477047C046014B18687047C046040100200E4B70B500251E00F9
:401C80000D4CE41AA410A54204D0AB00F35898470135F8E700F06EF8084B00251E00084CE41AA410A54204D0AB00F35898470135F8E770BD801D0000801D0000801D0000D9
:401CC000881D0000002310B59A4203D0CC5CC4540133F9E710BD03008218934202D019700133FAE77047000000000000200000001C1D000066010020740100202C0100202C
:401D00003801002001280000010001011000D007141405031E20200000000000000002400800044000000440040004400F00000001000000000000005A0700001A070000FD
:401D4000240700002E0700003E070000480700005207000000000000EEDBC9B9AA9B8E82766B60564D443B332C241D17100A044300000000F8B5C046F8BC08BC9E46704735
:401D8000310100006D020000F8B5C046F8BC08BC9E46704709010000A81D0000800000208800000088000000000000000D0A000000FFFF0020000004010000000000C05DE6
:401DC00080BB000030000000006CDC0200000000000000000000000000000000000000000000000000000000000000006F1D000000000000000000000000000000000000A2
:401E00000000000000000000000000000000000000000000000000000000000000000000000000000000000000000000A400002000000000000000000000000000000000DE
:401E40000000000000000000000000000000000000000000000000000000000000000000000000000000000000000000000000000000000000000000000000000000000062
:401E80000000000000000000000000000000000000000000000000000000000000000000000000000000000000000000000000000000000000000000000000000000000022
:401EC00000000000000000000000000000000000000000000000000000000000000000000000000000000000000000000000000000000000000000000000000000000000E2
:401F000000000000000000000000000000000000000000000000000000000000000000000000000000000000000000000000000000000000000000000000000000000000A1
:0200000490303A
:020000009D233E
:0200000490402A
:200000000000000000000000000000000000000000000000000000000000000000000000E0
:0200000490501A
:0C0000000002190111A90001190AAECC80
:0200000490600A
:0100000001FE
:00000001FF