:400000000010002011000000010200000102000010B501F081FD00F0FBF8C04610B512220D4B1A60302001F0F7FCFE2212020B4B1A600B4B0B4A1A60802109010A4A1160C4
:400040000A4A1A6000220A4B1A604032094B1A600132094B1A6010BD30001040000301400000014040FF00800403014041FF008028000340080101400401014010B572B6FF
:400080000F4A104B1A60FE220F4B1A6001320F4B1A6081320E4B1A600F230E4A13600E4A13600D3B0D4A13600D490E4A11600E4A13600E4A1360FFF7B1FF00F09BF810BD0C
:4000C00090EE000000030240000004401800044008010440000204401802044000030440B06DDB00080304401803044018040440000000000000000000000000000000005F
:4001000010B5064C2378002B07D1054B002B02D0044800E000BF0123237010BD0801002000000000641F0000084B10B5002B03D00749084800E000BF07480368002B00D197
:4001400010BD064B002BFBD09847F9E7000000000C010020641F0000800000200000000010B562B600F0ACF800F04EF900F068FD00F028FD0028FBD100F060F900F0B6FA6D
:400180000C4C0221200000F0B9F8FE2149000A4800F0B4F8201D032100F0B0F800F08CFA00F04EFD01F0CCFC43425841C0B201F0BBFCDDE7840000201C0300200B4B1B6892
:4001C000002803D080221206134301E05B005B08064A1360064B1B68002802D02022134301E020229343024A13607047002002402800034010B50120FFF7E0FF10BDC04662
:4002000010B501F071FE03680C2B00D1FEE7FEE770B50F4E0F4D13E029686B68AC68002202E001C901C30432A242FAD1E868002202E0002102C304328242FAD11035013E19
:40024000002EE9D101F056FEFFF78AFFFEE7C046010000003423000010B500230AE0032B03D89A000849505800E008489900084A885001331F2BF2D9FFF700FF80229205B7
:40028000044B1A6010BDC04600000000010200000000002008ED00E010B500F08FF810BD10B500F037F810BD10B5044A1368802109060B431360FFF7EFFF10BD00000940F7
:4002C00010B5064B1B78002B04D1FFF7E9FF0122024B1A70FFF7E8FF10BDC04624010020044B1B681F221340082BF9D0024B18607047C046080209404002094070B506009B
:400300000D00002403E0305DFFF7EAFF0134AC42F9D370BD154A164B1A600023154A13601549164A1160072215490A6015490A60154A13600121154A11601549154A116018
:40034000154A13600421154A1160154A1360154A1360154A1360154A1360154A1360154A13601268144B1A807047C0460B000002000009404000094001000A00480009401F
:400380000003094004030940100309404400094007000080000209400402094050000940880E0940C80E0940480F0940080F0940C80F0940880F09402601002005490B68F8
:4003C000F0229343603A13430B60034B1A88034B1A6070470003024026010020880F094010B5084B1B78002B06D100F023F900F073F90122034B1A7000F042F800F00EFDAA
:4004000010BDC0462801002010B5FFF7E9FF041E02D100F0D9FC0400002C02D100F010FC0400002C03D100F0CDFB0028FBD100F0CBFA00F03DFA200010BDC04670B50E4E44
:400440000024002513E06B0904339B000B4A9B581F222A40D340DB0707D5300000F058F804003100280000F0B9F81C3601350B2DE9D9200070BDC0468C1F00001C03002009
:4004800070B5002309E012491A1D92008818002444600120404250500133002BF3D00D4C0C2310E06668A27E094B5B1900211976012A06D12069002803D0F179228B01F0AE
:4004C00048FD1C342B005D1E002BEBD170BDC0461C0300208C1F000030B50B88CA889B1A4A880C89121B8C884D89641B934202DB15001A002B00A24200DC14009C4200DBA8
:40050000230000220A820279934200DD0B8230BDF0B55F4680B484B00600837E062B02D10122934601E000229346F568B46872680192029300270023039314E0029A2100A2
:40054000280000F017FB029A2100019800F0A0FA039021000198FFF7BFFF18345B46002B00D124350137338B9F42E7D3039804B004BC9346F0BDC046F0B50A8B8D684F681C
:400580000B69012125E00C00044003D17E88BA79B21802E07A88BE79921B2E8AB24201D3002200E00A00A24202D01E78013E1E70A24202D01C78002C07D188431043002A76
:4005C00001D1FA7900E001221A704900183501336246541EA446002AD5D1F0BD70B504008A7E134B1B181D7E012A04D12800FFF7C3FF050002E0002001F08EF90C4B1B1997
:400600001D7663091F2214401E3AA240002D07D104339B000649CB1859689143596006E004339B000249CB1859680A435A6070BD1C03002070B51B4CFE225200002120003C
:4006400001F087FC184B238090231B016380174BA3800923A38401221D33E2541E3B238520002A30A7321249743101F069FC114A140024340C2310E0A368218B08E0117815
:400680005975517899759178D975033218330100481E0029F3D11C342B005D1E002BEBD170BDC0461C0300206893FFFF7017000068200000681F00000123002006E0131D32
:4006C0009B000449CB185B68184313005A1E002BF5D170471C0300200023024AD380024A136070471C0300200C03002070B500250026454B1B68032B06D101F032FA012231
:40070000424BDA8001F031FA404BDC88E4B2062C23D8A3003E4AD3589F4601223A4B1A6001261AE00022384B1A60012615E0FFF76BFE0022344B1A60012501260DE0022273
:40074000314B1A60012608E000222F4B1A60012603E003222C4B1A600026002E0FD001F000FA2A4BDB88DBB29C4205D1274AD188284B0B439BB2D38001F0F7F90026224B68
:400780001B68012BB5D0022B3BD1204AF133FF33D35CDBB2F421FF31525CD2B20B2B30D8D800C01A81001C484118098B8A4228D21649088980B2FA246400095B89B2884244
:4007C0001FD0D900CB1A9900134B59188C6853009A18D300E41801F0C4F90C4B1A8992B2FA2149005A52228892B202315A52628892B202315A52A28892B202315A5201F008
:40080000B4F9280070BDC0460C0300201C030020D42200000080FFFF8C1F0000FF231940062902D08318002119735300195AC318D9808218002393747047C04670B50600B9
:400840000D00032305E0220029003000FFF7E6FF23005C1E002BF6D170BDC04670B5094CC3001D1AAA00A21895684A005118CA00AA181B1A99006118897E1000FFF7DEFF03
:4008800070BDC0468C1F000070B50500C200121A9300064AD3181B8B04E021002800FFF7DDFF23005C1E002BF7D170BD8C1F000010B50C2303E02000FFF7E6FF23005C1EF8
:4008C000002BF8D110BDC04670B5032309E0FF231340062B04D063005E5A1B199D002E5223005C1E002BF2D170BDC046F0B503230CE0FF231340062B07D065006F5A2E19B0
:40090000B300C3185F806D5A9D8023005C1E002BEFD1F0BDF0B503230EE0FF231340062B09D065006F5A2E19B300C318DF806E5A1E816D5A5D8123005C1E002BEDD1F0BD58
:40094000F0B5474680B48046C200121A9300174AD3181B8B24E04346DA00D21A9300134AD31872009219D4009A6894466444DA6815009F7E062F03D0F3009B199D00551907
:400980003A0021002800FFF79FFF3A0021002800FFF7ACFF3A0021002800FFF7BBFF33005E1E002BD7D104BC9046F0BD8C1F000010B50C2303E02000FFF7C2FF23005C1E0E
:4009C000002BF8D110BDC04610B5FFF7F1FF10BDF0B5032319E0FF231340062B14D077007B5A9C46BD19AB00C318DC8864441D89AC4664445D896419A40865465D81DD8897
:400A00001D817D5ADD80CC5333005E1E002BE2D1F0BDC046884202D9030008001900914200D91100884200D208007047F0B557464E464546E0B480460E009246032315E0E8
:400A4000FF2352461340062B0FD06F00B85B7B199C00444463889946A2881900FFF7DAFF4B46A380BB5B6380F0532B005D1E002BE6D11CBC90469946A246F0BD984050433E
:400A800080235B009A1A51434018000A7047C046F8B54F464646C0B406000D00914603233EE06300585BEB18D988884205D3431A2A1900279774012201E00B1A0022002AFE
:400AC00011D17779BB420ED92B199B7C327A934205D3220049462800FFF7A0FE1FE02A19013393741BE03779BB4204D97779BB4215D2002A13D1FF234A461340062B0ED027
:400B000009022B1998461B7B194308230122FFF7B5FF020A6300EB18DA804346187323005C1E002BBDD100200CBC90469946F8BDF0B5474680B407000E009046032313E0AC
:400B4000FF2342461340062B0DD06500A85B2A199300D95B00236422FFF790FF80B22A199300D853A85323005C1E002BE8D104BC9046F0BD70B504000D001600FFF756FF41
:400B8000320029002000FFF7D3FF320029002000FFF71EFF70BDC04605230B737047C04610B5064A1368F0218B431360044A1368EF398B43136000F05DFC10BD000402405E
:400BC000A8020B40024BDB68802018407047C0461C03002010B50E4BDB68DB030DD40B280DD8430904339B00094A9B581F220240D340DB0705D4012404E0112402E001244A
:400C000000E00024002C01D100F046FC200010BD1C03002010B5084BDB68DB0307D4074B1B78012B05D100F0ADFB002003E0112001E00120404210BD1C03002010030020CA
:400C400010B50F4BDB681B0618D400240120404211E02000FFF7BEFF00280BD10A2C03D80122084B5A7002E00022064B5A70FFF7D1FF04E001340B2CEBD900E0112010BD4E
:400C80001C0300201003002010B504000C4B1B78834214D0012B01D1FFF782FF012C05D100F0C8F90122064B1A7008E0022C06D0042C04D0032C02D00022014B1A7010BD89
:400CC0001003002030B500200D4B16E019680A681C69A2430A605C6822689D7E0721A9408A4311000622AA400A43226099680A685C69A2430A601C3301300B28E6D930BD88
:400D00008421000010B51B4A93780133DBB293709078C0B2FFF75EFF041E09D1154B9B780B2B02D10022134B5A70FFF773FF1EE0104B9B780B2B11D10F4B1A8901321A81CF
:400D4000DA6880218A43DA60DA681202120ADA60DA6804061443DC60002408E0064AD3681B021B0AD360D16803060B43D360002CC9D110BD100300201C030020074A084B86
:400D80001A6001380002074B1860054B1B68002BFBDB054A024B1A607047C04640000040000001400003014040FF008010B503000B2801D8002000E00120002803D15521E2
:400DC000180000F087FC10BD70B50024002504E02000FFF7EBFF054301340B2CF8D9280070BDC046024B18180279024B1A607047100300200C0F034010B5002409E0E200AE
:400E0000121B9300044AD31859682000FFF7C4FE01340B2CF3D910BD8C1F000010B5124B1B68DBB2114A1371132B05D8190014315171283393710EE0EB2B06D90B4A190074
:400E400014395171283B937105E0084A19001439517114339371FFF7CFFFFFF733FF0120FFF712FF002010BD0C0F03401003002070B5002516E0EB005B1B9A000B4BD65801
:400E8000002406E0E3001B1B9800301800F0D2FA0134EA00521B9300044AD3181B7E9C42F0D301350B2DE6D970BDC0468C1F000070B500F056FE134A1368F0218B43136043
:400EC00000F053FE00F04DFE0F4A136802218B43136000F04AFE00F044FE0C4C23683825AB4330221343236000F03FFE012000F0FFFD00F036FE2368AB43236000F035FEFE
:400F000070BDC04600040240000404400804044001390843014B18607047C04600020B4010B5104B1B68702293431C0026230E4AD15C0E4800F04CFF0D4B984204D8202376
:400F40002343084A13600BE00A4B984204D830232343044A136003E040232343014A136010BDC0468C0000201C030020006CDC02001BB70000366E01034A044B1A60C122F4
:400F80005204034B1A60704700008301C0010B40C4010B40074B1A687F210A40064802431A60064A13680B40802109040B4313607047C046C0010B4000008301C4010B400F
:400FC000064A136806490B431360064A064B1A60C1225204054B1A607047C046A8020B400100001000008301C0010B40C4010B4070B50E001500038801249C40013CA300E1
:401000001B195800642100F0E3FE013083199C4200D22300B04201D8301A00E00020A84203D8AB4203D2062002E0062000E0002070BDC04670B5FFF71BFFFFF739FFC022EC
:401040001203284B1A60284B1968284E314319600024274A1460274A1460274A1460274A1460274A1460274A1460274A1460274D2C60274A1460274A1168F0208143903845
:4010800001431160244A1168802040010143116080214900214A11601A6832431A6080235B041F4A13601F491F4A11601F4A14602B60FFF761FF26231D4AD05CFFF75EFEBB
:4010C000FFF72EFF1B4B1B681B4A13431B4A13600F221B4B1A601B4B1C60053A1A4B1A6070BDC04604020B40A8020B4001000010F4000B40B4020B40C0020B4020030B40FB
:4011000084010B4088020B4080020B4084020B4080010B400004024094020B40A0020B40A4020B404112000088010B4090020B401C0300208C0000200010008000000B40D1
:4011400000030B40F0010B4010030B4070B5060000F007FD0D490B687F25AB430C4C2278B218527A13430B6000F0FFFC00F0F9FC08490B68AB43084A15682278AA18527D48
:4011800013430B6000F0F1FC70BDC046C0010B4018030020C4010B401805002010B503001400012088400138002B02D0190000F00FFE053C012C00D84008002800D1013001
:4011C00010BDC04610B50E4B1A78D2B2D3009A1A93000C4AD3185B680B4A118D1B7B18045A1F012A02D8802292041043053BDBB2012B02D8490800D10131FFF789FE10BDAB
:40120000120300208C1F00001C03002010B50300054A108D19881A7BFFF7C0FF0004000C024B186010BDC0461C03002014030B4010B50A2000F05CFB01222D4B1A60002339
:401240002C490B602C490B602C490B6006202C490860FA302B4908602B490A60832149002A4A11602A4A136003222A4B1A60E1231B0200E0013B254A1268520701D4002B9B
:40128000F8D1002B02D10822224B1A60832252001E4B1A600A2000F035FB0A2000F01EFB0023184A1360144A1360144A1360144A1360A021144A11609F390E4A11600C4A0D
:4012C0001360154A1368802149040B43136002220F4B1A60E1231B0200E0013B0F4A1268520701D0002BF8D10D4A0A4B1A6010BD80010B408C010B40B0020B40B4020B4037
:4013000088020B4080020B40F0010B40F0000B40F8000B4040030B4000020B4000000B400103000010B5074AD36807490B43D3600022064B1A700A2000F0DAFBFFF778FFAC
:4013400010BDC0461C030020800001001803002070B50400857E067E00F003FC23681B680F22B24093431A000423B3401343666832680721A9408A4332602268136000F0AA
:40138000F4FB70BDF8B51A4E3278D2B2194DD3009A1A9300EB185868174C002121703278D2B2D3009A1A9300EB189F682378DBB25A00D318DA00BA18104B1A60104B197052
:4013C000FFF7C4FE3378DBB2DA00D31A9A0050592278D2B2D3009A1A9300C018094B1860FFF7B6FF084800F057FAFFF79BFFF8BD120300208C1F000017030020180500203F
:40140000180300201C0500200D1D000010B5C300181A8300054A9858CB00591A8B00C018034B1860FFF794FF10BDC0468C1F00001C05002070B50400007EA57E21680B6815
:401440000F22824093430B6000F08BFB61680B680722AA4093431A000623AB4013430B6000F083FBA1680B68607E0122824093430B6070BD10B5064B1B78012B06D1054B97
:401480001868FFF7D7FF0022014B1A7010BDC046190300201C05002070B5144EC200121A9300F3185D68C0B2114C20700120FFF7EBFB00220F4B1A70FFF7DCFF2378DBB265
:4014C000DA00D31A9A0092590B4B1A600B4BDA687F218A43DA602178DA680A43DA602800FFF794FEFFF76EFE70BDC0468C1F000012030020180300201C0500201C0300204F
:4015000070B5C200121A9300134AD3185D68C9B2124C217099682378DBB25A00D318DA008A180F4B1A60FFF7B7FF2800FFF70EFE2378DBB20B49DA00D31A98000B689C46CA
:4015400060440860FFF704FF0122074B1A70074800F0A2F970BDC0468C1F000017030020180500201C05002019030020C11C0000F0B557464E464546E0B482B007000D00A3
:4015800090464D490A78D2B2D3009A1A93004B4AD3185B68019300232B706B70AB700878C0B2474B1978C9B2FFF7AAFFFFF7F2FC0024002399469A468026BA4502D22B78DF
:4015C000B3432B704F4502D96B78B3436B70A74202D9AB78B343AB70760872B22B7813432B706B7813436B70AB781343AB700198FFF7ACFDFFF796FEE1231B0200E0013B62
:40160000304AD268120601D5002BF8D12E4B1B681A8892465A8891469C88002ECDD1264B1B78DAB2D3009B1A9A00244BD058244B1A78D2B2D3009A1A9300C018234B18604F
:40164000FFF7F8FE0022224B1A70FFF7B9FC524639000198FFF7CCFC06004A4639000198FFF7C6FC0643220039000198FFF7C0FC304343461A782B789A4201D24246137098
:4016800043465A786B789A4201D24246537043469A78AB789A4201D2424693700A4B1B682A785A756A789A75AA78DA7502B01CBC90469946A246F0BD120300208C1F00009B
:4016C000170300201C030020180500201C05002019030020F0B54F4680B484B004008946C200121A9300524AD3185D680322514903A800F025FC2B880120984001384B4684
:401700005843642100F064FB0190E2B24A4B1A704A4800F0C1F82E0009360022484B1A7000270AE003AA31000198FFF721FF0743434A13780133DBB21370E200121B930029
:401740003B4AD318DA7E3E4B1B78DBB29A42E9D803AA137801335B086B72537801335B08AB72937801335B08EB720022344B1A704AE0E200121B93002D4AD3189E68304B57
:401780001B78DBB25A00D318DA00B6182D4B1E60737D687A83420AD31B1AD8B270754B4658436330642100F013FB707501E000237375244B1E68B37DA87A83420AD31B1ADD
:4017C000D8B2B0754B4658436330642100F000FBB07501E00023B3751A4B1E68F37DE87A83420AD31B1AD8B2F0754B4658436330642100F0EDFAF07501E00023F375104AF1
:4018000013780133DBB21370E200121B9300084AD318DA7E0A4B1B78DBB29A42A9D80022074B1A70380004B004BC9146F0BDC0468C1F0000F022000012030020C11C0000CD
:401840001703002018050020014B98667047C0460000002010B5040000F083F9044A1168044B0B40A4051C43146000F07EF910BD08E400E0FFFF3FFF8022D200014B1A6042
:401880007047C04600E100E08022D200014B1A607047C04680E100E010B50400FFF7F4FF2000FFF7D1FF0320FFF7D4FFFFF7E4FF10BDC046024A1168024B0B4013607047BB
:4018C00000000740FFFFFFBF034B18688023DB05184000D001207047000007401F2318401E3B8340014A13607047C04600E100E01F2318401E3B8340014A13607047C0462A
:4019000080E100E01F2318401E3B8340014A13607047C04680E200E001BE704710B5040006E0084B586800F013F9074B9C46644480231B029C42F4D8024B9868604300F099
:4019400007F910BD900000200080FFFF30B583B000F0D8F8002849D000F003F90400244B196889001C2319401831224B1B689B0803221340D940204B1A68204B1340204AD0
:401980004A438020C00184466244D20B013A5205520D1343A02252031A431000192902D8184A13430CE0184BCB181B781A39174A525C9A18FF2A00D9FF2292050300134361
:4019C0000D4A1360124D2B680193302000F0D6F9104A13688021C9050B4313601420FFF79DFF019B2B60200000F0BFF803B030BD080F0340280003400800074000F800C063
:401A000040420F000000D43FCDF1FF0FF42200003000104000000740F0B583B0040018280BD01C2809D0202807D0242805D0282803D02C2801D0302849D100F092F8019040
:401A4000FFF742FF002803D0FFF734FF012600E00026214A136807218B4313601F4BE3181B78DBB21E4A13601E4A13688B4313601D4803687F22934319001C4BE3181B78B6
:401A800013400B430360322000F062F8182C16D9114F3B680725AB431A0023001C3B9B082B4013433B60322000F052F83A68AA432300183B9B082C001C4014433C60012EC5
:401AC00001D1FFF743FF019800F04FF802E00020FFF722FF03B0F0BD080F0340CDF1FF0F0C0F0340100F0340180F0340B4F1FF0F10B5034B1B7B584300F02AF810BDC04667
:401B000090000020034B1B68002B01DA012000E00020704700000740014A024B1A6070476588EDAC3800034004490A68D2B204239A4380001840104308607047000104405F
:401B4000024B18688008012318407047040104400230800803D001300238FCD1C046C0467047EFF3108072B6704780F310887047104B1A78D2B2D3009A1A93000E4AD3182B
:401B80005B680E4A11680A04120C188801238340013B9A4206D20A4B1A680A4B1B785B00D15205E0064A1168064A127852008B527047C046120300208C1F0000D0000B4042
:401BC000180500201803002010B50B4B1A78D2B2D3009A1A9300094AD3185C68084B18780130C0B21870FFF7FDF82000FFF7AEFAFFF71EFB10BDC046120300208C1F0000A7
:401C00001803002070B5274B1978C9B2264CCA00511A8A00A21850681A78D2B2D1008A1A9300E3181A7E013A204B1B78DBB29A4220D91E4C23780133DBB22370194D2A7876
:401C4000D2B2D3009A1A9300174AD31899682378DBB25A00D318DA008A18154B1A60FFF775FA2878C0B22178C9B2FFF7CFFBFFF7DFFA16E000220D4B1A700E4AD1680E4BB8
:401C80000B40D3600D4B1B78012B02D1FFF73AF807E0084BDA6880218A43DA601A8901321A8170BD120300208C1F000017030020180500201C030020FFFFFEFF110300200D
:401CC00010B5832252000D4B1A60FFF751FF0C4B1B78012B02D8FFF777FF0DE00022084B1A700020FFF77EF8064B1A8901321A81D968054A0A40DA6010BDC046F0000B4058
:401D0000180300201C0300207FFFFEFF10B5164B1B78DBB2DA00D31A9A00144BD458144B1B78DBB2DA00D31A9A00A41883225200104B1A60FFF71CFF0F4B1B78022B02D116
:401D40002000FFF777FB0C4B1B78012B02D8FFF73BFF07E00022084B1A700020FFF742F8FFF750FF10BDC046120300208C1F000017030020F0000B401803002070B50400B4
:401D8000FFF7EFFE0500102C05D8104A136803218B43136016E0202C07D80C490B6803229343023A13430B600CE0302C07D807490B6803229343013A13430B6002E0002024
:401DC000FFF7AAFD2800FFF7D0FE70BD30001040002243088B4274D303098B425FD3030A8B4244D3030B8B4228D3030C8B420DD3FF22090212BA030C8B4202D312120902C6
:401E000065D0030B8B4219D300E0090AC30B8B4201D3CB03C01A5241830B8B4201D38B03C01A5241430B8B4201D34B03C01A5241030B8B4201D30B03C01A5241C30A8B4271
:401E400001D3CB02C01A5241830A8B4201D38B02C01A5241430A8B4201D34B02C01A5241030A8B4201D30B02C01A5241CDD2C3098B4201D3CB01C01A524183098B4201D3EA
:401E80008B01C01A524143098B4201D34B01C01A524103098B4201D30B01C01A5241C3088B4201D3CB00C01A524183088B4201D38B00C01A524143088B4201D34B00C01A84
:401EC0005241411A00D20146524110467047FFE701B5002000F006F802BDC0460029F7D076E770477047C046014B18687047C046040100200E4B70B500251E000D4CE41A45
:401F0000A410A54204D0AB00F35898470135F8E700F0FEF9084B00251E00084CE41AA410A54204D0AB00F35898470135F8E770BD1C2300001C2300001C23000024230000EF
:401F4000002310B59A4203D0CC5CC4540133F9E710BD03008218934202D019700133FAE7704700000000000020202020202020202020202020202020202020202020202010
:401F80002020202020202020202020208421000046030020EE030020B8020020080300200028000001000101A02100005403002006040020940200200403002000280000EB
:401FC00001000101BC210000620300201E04002070020020000300200028000001000101D821000070030020360400204C020020FC0200200028000001000101F4210000A8
:402000007E0300204E04002028020020F80200200028000001000101102200008C0300206604002004020020F402002000280000010001012C2200009A0300207E0400207F
:40204000E0010020F0020020002800000100010148220000A803002096040020BC010020EC020020002800000100010164220000B6030020AE04002098010020E802002029
:40208000002800000100010180220000C4030020C604002074010020E402002000280000010001019C220000D2030020DE04002050010020E0020020002800000100010169
:4020C000B8220000E0030020F60400202C010020DC02002000280000010001010D002800141405031E20202000000D002800141405031E20202000000D0028001414050348
:402100001E20202000000D002800141405031E20202000000D004800242409031E20202000000C00640028280A031E20202000000C00640028280A031E20202000000D0074
:40214000640028280A031E20202000000C00640028280A031E20202000000C00640028280A031E20202000000C00640028280A031E20202000000C00640028280A031E2034
:4021800020200000000002400800044000000440040004400F000000010000000000000000000240080004400000044004000440F00000000200000004010300000002405F
:4021C000080004400000044004000440000F000004000000080206000000024008000440000004400400044000F00000080000000C030900000002400800044000000440E8
:402200000400044000000F001000000010040C00000002400800044000000440040004400000F0002000000014050F00000002400800044000000440040004400000000F9C
:40224000400000001806120000000240080004400000044004000440000000F0800000001C071500000202400802044000020440040204400F0000000100000000000000FA
:4022800000020240080204400002044004020440F0000000020000000401030000020240080204400002044004020440000F0000040000000802060000020240080204402B
:4022C000000204400402044000F00000080000000C0309005A0700001A070000240700002E0700003E070000480700005207000001010100EEDBC9B9AA9B8E82766B605635
:402300004D443B332C241D17100A044300000000F8B5C046F8BC08BC9E4670472901000059020000F8B5C046F8BC08BC9E4670470101000048230000800000208800000013
:402340001804000000000000000000000D0A000000FFFF0020000004010000000000C05D80BB000030000000006CDC02000000000000000000000000000000000000000035
:402380000000000000000000000000000B230000000000000000000000000000000000000000000000000000000000000000000000000000000000000000000000000000EF
:4023C000000000000000000000000000A400002000000000000000000000000000000000000000000000000000000000000000000000000000000000000000000000000019
:40240000000000000000000000000000000000000000000000000000000000000000000000000000000000000000000000000000000000000000000000000000000000009C
:40244000000000000000000000000000000000000000000000000000000000000000000000000000000000000000000000000000000000000000000000000000000000005C
:40248000000000000000000000000000000000000000000000000000000000000000000000000000000000000000000000000000000000000000000000000000000000001C
:4024C00000000000000000000000000000000000000000000000000000000000000000000000000000000000000000000000000000000000000000000000000000000000DC
:0200000490303A
:02000000C2CA72
:0200000490402A
:200000000000000000000000000000000000000000000000000000000000000000000000E0
:0200000490501A
:0C0000000002190111A90001190BD473B2
:0200000490600A
:0100000001FE
:00000001FF