:400000000010002011000000850200008502000010B501F0D5FD00F03DF9C04610B51222124B1A60302001F04BFDFE221202104B1A60104B104A1A60802109010F4A1160B7
:400040000F4A1A60E82149010E4A11600E4A1A6000220E4B1A6040320D4B1A6001320D4B1A6001320C4B1A6010BDC04630001040000301400000014040FF0080040301409E
:4000800041FF00800803014042FF00802800034008010140040101400001014010B572B6EE22164B1A60164A164B1A604E22164B1A600132154B1A607832154B1A60A33A6A
:4000C000144B1A60A032144B1A60A023134A13601349144A1160144A13609E3B134A1360DB210901124A1160124A1360124A1360FFF794FF00F0C0F810BDC046000102408C
:4001000090EE000000030240000004401800044000010440080104401801044000020440B66D000008020440180204400003044008030440180304401804044010B5064CEC
:400140002378002B07D1054B002B02D0044800E000BF0123237010BD08010020000000006C200000084B10B5002B03D00749084800E000BF07480368002B00D110BD064B47
:40018000002BFBD09847F9E7000000000C0100206C200000800000200000000010B5002000F0DCFA43425841C0B201F01DFD012000F0D4FA43425841C0B201F009FD022063
:4001C00000F0CCFA43425841C0B201F019FD032000F0C4FA43425841C0B201F01DFD10BD10B562B600F0AEF800F050F900F07CFD00F03CFD0028FBD100F062F900F0CAFA48
:40020000FFF7CCFF0C4C0221200000F0B9F8D82149000A4800F0B4F8201D032100F0B0F800F08CFA00F060FD01F00EFD43425841C0B201F0FDFCDBE784000020CC0200200B
:400240000B4B1B68002803D080221206134301E05B005B08064A1360064B1B68002802D02022134301E020229343024A13607047002002402800034010B50120FFF7E0FFDB
:4002800010BDC04610B501F0B3FE03680C2B00D1FEE7FEE770B50F4E0F4D13E029686B68AC68002202E001C901C30432A242FAD1E868002202E0002102C304328242FAD108
:4002C0001035013E002EE9D101F098FEFFF788FFFEE7C04601000000AC23000010B500230AE0032B03D89A000849505800E008489900084A885001331F2BF2D9FFF7CEFE67
:4003000080229205044B1A6010BDC04600000000850200000000002008ED00E010B500F08FF810BD10B500F037F810BD10B5044A1368802109060B431360FFF7EFFF10BD02
:400340000000094010B5064B1B78002B04D1FFF7E9FF0122024B1A70FFF7E8FF10BDC04624010020044B1B681F221340082BF9D0024B18607047C0460802094040020940FC
:4003800070B506000D00002403E0305DFFF7EAFF0134AC42F9D370BD154A164B1A600023154A13601549164A1160072215490A6015490A60154A13600121154A116015493D
:4003C000154A1160154A13600421154A1160154A1360154A1360154A1360154A1360154A1360154A13601268144B1A807047C0460B000002000009404000094001000A0060
:40040000480009400003094004030940100309404400094007000080000209400402094050000940880E0940C80E0940480F0940080F0940C80F0940880F094026010020A7
:4004400005490B68F0229343603A13430B60034B1A88034B1A6070470003024026010020880F094010B5084B1B78002B06D100F023F900F085F90122034B1A7000F042F851
:4004800000F020FD10BDC0462801002010B5FFF7E9FF041E02D100F0EBFC0400002C02D100F022FC0400002C03D100F0DFFB0028FBD100F0DDFA00F04FFA200010BDC046DE
:4004C00070B50E4E0024002513E06B0904339B000B4A9B581F222A40D340DB0707D5300000F058F804003100280000F0B9F81C360135092DE9D9200070BDC0469020000044
:40050000CC02002070B5002309E012491A1D92008818002444600120404250500133002BF3D00D4C0A2310E06668A27E094B5B1900211976012A06D12069002803D0F179DF
:40054000228B01F08AFD1C342B005D1E002BEBD170BDC046CC0200209020000030B50B88CA889B1A4A880C89121B8C884D89641B934202DB15001A002B00A24200DC14004C
:400580009C4200DB230000220A820279934200DD0B8230BDF0B55F4680B484B00600837E062B02D10122934601E000229346F568B46872680192029300270023039314E026
:4005C000029A2100280000F029FB029A2100019800F0B2FA039021000198FFF7BFFF18345B46002B00D124350137338B9F42E7D3039804B004BC9346F0BDC046F0B50A8B67
:400600008D684F680B69012125E00C00044003D17E88BA79B21802E07A88BE79921B2E8AB24201D3002200E00A00A24202D01E78013E1E70A24202D01C78002C07D18843C6
:400640001043002A01D1FA7900E001221A704900183501336246541EA446002AD5D1F0BD70B504008A7E134B1B181D7E012A04D12800FFF7C3FF050002E0002001F0A0F912
:400680000C4B1B191D7663091F2214401E3AA240002D07D104339B000649CB1859689143596006E004339B000249CB1859680A435A6070BDCC02002070B51B4CD8225200E9
:4006C0000021200001F0C9FC184B238090231B016380174BA3800923638401221B33E2541C3BE384200028308B321249383101F0ABFC114A140020340A2310E0A368218B26
:4007000008E011785975517899759178D975033218330100481E0029F3D11C342B005D1E002BEBD170BDC046CC020020544E000070170000702100007020000001230020EC
:4007400006E0131D9B000449CB185B68184313005A1E002BF5D17047CC02002009280BD81F23034001229A404009031D9B000348C3185868104000E000207047CC020020E4
:400780000023024AD380024A13607047CC020020BC02002070B500250026454B1B68032B06D101F062FA0122424BDA8001F061FA404BDC88E4B2062C23D8A3003E4AD35802
:4007C0009F4601223A4B1A6001261AE00022384B1A60012615E0FFF759FE0022344B1A60012501260DE00222314B1A60012608E000222F4B1A60012603E003222C4B1A6095
:400800000026002E0FD001F030FA2A4BDB88DBB29C4205D1274AD188284B0B439BB2D38001F027FA0026224B1B68012BB5D0022B3BD1204AA333FF33D35CDBB2A621FF31EF
:40084000525CD2B2092B30D8D800C01A81001C484118098B8A4228D21649088980B2D3246400095B89B288421FD0D900CB1A9900134B59188C6853009A18D300E41801F00C
:40088000F4F90C4B1A8992B2D32149005A52228892B202315A52628892B202315A52A28892B202315A5201F0E4F9280070BDC046BC020020CC0200204C2300000080FFFF1B
:4008C00090200000FF231940062902D08318002119735300195AC318D9808218002393747047C04670B506000D00032305E0220029003000FFF7E6FF23005C1E002BF6D1E1
:4009000070BDC04670B5094CC3001D1AAA00A21895684A005118CA00AA181B1A99006118897E1000FFF7DEFF70BDC0469020000070B50500C200121A9300064AD3181B8BD0
:4009400004E021002800FFF7DDFF23005C1E002BF7D170BD9020000010B50A2303E02000FFF7E6FF23005C1E002BF8D110BDC04670B5032309E0FF231340062B04D06300C6
:400980005E5A1B199D002E5223005C1E002BF2D170BDC046F0B503230CE0FF231340062B07D065006F5A2E19B300C3185F806D5A9D8023005C1E002BEFD1F0BDF0B5032376
:4009C0000EE0FF231340062B09D065006F5A2E19B300C318DF806E5A1E816D5A5D8123005C1E002BEDD1F0BDF0B5474680B48046C200121A9300174AD3181B8B24E04346BD
:400A0000DA00D21A9300134AD31872009219D4009A6894466444DA6815009F7E062F03D0F3009B199D0055193A0021002800FFF79FFF3A0021002800FFF7ACFF3A002100DC
:400A40002800FFF7BBFF33005E1E002BD7D104BC9046F0BD9020000010B50A2303E02000FFF7C2FF23005C1E002BF8D110BDC04610B5FFF7F1FF10BDF0B5032319E0FF23BB
:400A80001340062B14D077007B5A9C46BD19AB00C318DC8864441D89AC4664445D896419A40865465D81DD881D817D5ADD80CC5333005E1E002BE2D1F0BDC046884202D925
:400AC000030008001900914200D91100884200D208007047F0B557464E464546E0B480460E009246032315E0FF2352461340062B0FD06F00B85B7B199C00444463889946DD
:400B0000A2881900FFF7DAFF4B46A380BB5B6380F0532B005D1E002BE6D11CBC90469946A246F0BD9840504380235B009A1A51434018000A7047C046F8B54F464646C0B4F7
:400B400006000D00914603233EE06300585BEB18D988884205D3431A2A1900279774012201E00B1A0022002A11D17779BB420ED92B199B7C327A934205D3220049462800A1
:400B8000FFF7A0FE1FE02A19013393741BE03779BB4204D97779BB4215D2002A13D1FF234A461340062B0ED009022B1998461B7B194308230122FFF7B5FF020A6300EB1820
:400BC000DA804346187323005C1E002BBDD100200CBC90469946F8BDF0B5474680B407000E009046032313E0FF2342461340062B0DD06500A85B2A199300D95B002364224F
:400C0000FFF790FF80B22A199300D853A85323005C1E002BE8D104BC9046F0BD70B504000D001600FFF756FF320029002000FFF7D3FF320029002000FFF71EFF70BDC046A2
:400C400005230B737047C04610B5064A1368F0218B431360044A1368EF398B43136000F05DFC10BD00040240A8020B40024BDB68802018407047C046CC02002010B50E4B5B
:400C8000DB68DB030DD409280DD8430904339B00094A9B581F220240D340DB0705D4012404E0112402E0012400E00024002C01D100F046FC200010BDCC02002010B5084BFB
:400CC000DB68DB0307D4074B1B78012B05D100F0ADFB002003E0112001E00120404210BDCC020020C002002010B50F4BDB681B0618D400240120404211E02000FFF7BEFF2A
:400D000000280BD1082C03D80122084B5A7002E00022064B5A70FFF7D1FF04E00134092CEBD900E0112010BDCC020020C002002010B504000C4B1B78834214D0012B01D161
:400D4000FFF782FF012C05D100F0C8F90122064B1A7008E0022C06D0042C04D0032C02D00022014B1A7010BDC002002030B500200D4B16E019680A681C69A2430A605C68D4
:400D800022689D7E0721A9408A4311000622AA400A43226099680A685C69A2430A601C3301300928E6D930BD3422000010B51B4A93780133DBB293709078C0B2FFF75EFFBE
:400DC000041E09D1154B9B78092B02D10022134B5A70FFF773FF1EE0104B9B78092B11D10F4B1A8901321A81DA6880218A43DA60DA681202120ADA60DA6804061443DC6009
:400E0000002408E0064AD3681B021B0AD360D16803060B43D360002CC9D110BDC0020020CC020020074A084B1A6001380002074B1860054B1B68002BFBDB054A024B1A6073
:400E40007047C04640000040000001400003014040FF008010B50300092801D8002000E00120002803D15521180000F087FC10BD70B50024002504E02000FFF7EBFF05439A
:400E80000134092CF8D9280070BDC046024B18180279024B1A607047C00200200C0F034010B5002409E0E200121B9300044AD31859682000FFF7C4FE0134092CF3D910BD9D
:400EC0009020000010B5124B1B68DBB2114A1371132B05D8190014315171283393710EE0EB2B06D90B4A190014395171283B937105E0084A19001439517114339371FFF730
:400F0000CFFFFFF733FF0120FFF712FF002010BD0C0F0340C002002070B5002516E0EB005B1B9A000B4BD658002406E0E3001B1B9800301800F0D2FA0134EA00521B9300C9
:400F4000044AD3181B7E9C42F0D30135092DE6D970BDC0469020000070B500F086FE134A1368F0218B43136000F083FE00F07DFE0F4A136802218B43136000F07AFE00F0C1
:400F800074FE0C4C23683825AB4330221343236000F06FFE012000F0FFFD00F066FE2368AB43236000F065FE70BDC04600040240000404400804044001390843014B1860FF
:400FC0007047C04600020B4010B5104B1B68702293431C0024230E4AD15C0E4800F07CFF0D4B984204D820232343084A13600BE00A4B984204D830232343044A136003E064
:4010000040232343014A136010BDC0468C000020CC020020006CDC02001BB70000366E01034A044B1A60C1225204034B1A60704700008301C0010B40C4010B40074B1A68B9
:401040007F210A40064802431A60064A13680B40802109040B4313607047C046C0010B4000008301C4010B40064A136806490B431360064A064B1A60C1225204054B1A609E
:401080007047C046A8020B400100001000008301C0010B40C4010B4070B50E001500038801249C40013CA3001B195800642100F013FF013083199C4200D22300B04201D89B
:4010C000301A00E00020A84203D8AB4203D2062002E0062000E0002070BDC04670B5FFF71BFFFFF739FFC0221203284B1A60284B1968284E314319600024274A1460274AA6
:401100001460274A1460274A1460274A1460274A1460274A1460274D2C60274A1460274A1168F0208143903801431160244A1168802040010143116080214900214A11605F
:401140001A6832431A6080235B041F4A13601F491F4A11601F4A14602B60FFF761FF24231D4AD05CFFF75EFEFFF72EFF1B4B1B681B4A13431B4A13600F221B4B1A601B4BDE
:401180001C60053A1A4B1A6070BDC04604020B40A8020B4001000010F4000B40B4020B40C0020B4020030B4084010B4088020B4080020B4084020B4080010B4000040240FB
:4011C00094020B40A0020B40A4020B404112000088010B4090020B40CC0200208C0000200010008000000B4000030B40F0010B4010030B4070B5060000F037FD0D490B68B7
:401200007F25AB430C4C2278B218527A13430B6000F02FFD00F029FD08490B68AB43084A15682278AA18527D13430B6000F021FD70BDC046C0010B40C8020020C4010B40ED
:401240007C04002010B503001400012088400138002B02D0190000F03FFE053C012C00D84008002800D1013010BDC04610B50E4B1A78D2B2D3009A1A93000C4AD3185B68B0
:401280000B4AD18C1B7B18045A1F012A02D8802292041043053BDBB2012B02D8490800D10131FFF789FE10BDC202002090200000CC02002010B50300054AD08C19881A7B25
:4012C000FFF7C0FF0004000C024B186010BDC046CC02002014030B4010B50A2000F05CFB01222D4B1A6000232C490B602C490B602C490B6006202C490860FA302B4908602A
:401300002B490A60832149002A4A11602A4A136003222A4B1A60E1231B0200E0013B254A1268520701D4002BF8D1002B02D10822224B1A60832252001E4B1A600A2000F0B7
:4013400035FB0A2000F01EFB0023184A1360144A1360144A1360144A1360A021144A11609F390E4A11600C4A1360154A1368802149040B43136002220F4B1A60E1231B0203
:4013800000E0013B0F4A1268520701D0002BF8D10D4A0A4B1A6010BD80010B408C010B40B0020B40B4020B4088020B4080020B40F0010B40F0000B40F8000B4040030B40A1
:4013C00000020B4000000B400103000010B5074AD36807490B43D3600022064B1A700A2000F0DAFBFFF778FF10BDC046CC02002080000100C802002070B50400857E067EFA
:4014000000F033FC23681B680F22B24093431A000423B3401343666832680721A9408A4332602268136000F024FC70BDF8B51A4E3278D2B2194DD3009A1A9300EB18586864
:40144000174C002121703278D2B2D3009A1A9300EB189F682378DBB25A00D318DA00BA18104B1A60104B1970FFF7C4FE3378DBB2DA00D31A9A0050592278D2B2D3009A1A94
:401480009300C018094B1860FFF7B6FF084800F057FAFFF79BFFF8BDC202002090200000C70200207C040020C802002080040020151E000010B5C300181A8300054A98581A
:4014C000CB00591A8B00C018034B1860FFF794FF10BDC046902000008004002070B50400007EA57E21680B680F22824093430B6000F0BBFB61680B680722AA4093431A00F6
:401500000623AB4013430B6000F0B3FBA1680B68607E0122824093430B6070BD10B5064B1B78012B06D1054B1868FFF7D7FF0022014B1A7010BDC046C902002080040020E9
:4015400070B5144EC200121A9300F3185D68C0B2114C20700120FFF7EBFB00220F4B1A70FFF7DCFF2378DBB2DA00D31A9A0092590B4B1A600B4BDA687F218A43DA60217844
:40158000DA680A43DA602800FFF794FEFFF76EFE70BDC04690200000C2020020C802002080040020CC02002070B5C200121A9300134AD3185D68C9B2124C21709968237854
:4015C000DBB25A00D318DA008A180F4B1A60FFF7B7FF2800FFF70EFE2378DBB20B49DA00D31A98000B689C4660440860FFF704FF0122074B1A70074800F0A2F970BDC046B2
:4016000090200000C70200207C04002080040020C9020020C91D0000F0B557464E464546E0B482B007000D0090464D490A78D2B2D3009A1A93004B4AD3185B68019300233B
:401640002B706B70AB700878C0B2474B1978C9B2FFF7AAFFFFF7F2FC0024002399469A468026BA4502D22B78B3432B704F4502D96B78B3436B70A74202D9AB78B343AB70F8
:40168000760872B22B7813432B706B7813436B70AB781343AB700198FFF7ACFDFFF796FEE1231B0200E0013B304AD268120601D5002BF8D12E4B1B681A8892465A88914688
:4016C0009C88002ECDD1264B1B78DAB2D3009B1A9A00244BD058244B1A78D2B2D3009A1A9300C018234B1860FFF7F8FE0022224B1A70FFF7B9FC524639000198FFF7CCFC7C
:4017000006004A4639000198FFF7C6FC0643220039000198FFF7C0FC304343461A782B789A4201D24246137043465A786B789A4201D24246537043469A78AB789A4201D20A
:40174000424693700A4B1B682A785A756A789A75AA78DA7502B01CBC90469946A246F0BDC202002090200000C7020020CC0200207C04002080040020C9020020F0B54F468B
:4017800080B484B004008946C200121A9300524AD3185D680322514903A800F055FC2B880120984001384B465843642100F094FB0190E2B24A4B1A704A4800F0C1F82E00B4
:4017C00009360022484B1A7000270AE003AA31000198FFF721FF0743434A13780133DBB21370E200121B93003B4AD318DA7E3E4B1B78DBB29A42E9D803AA137801335B08A8
:401800006B72537801335B08AB72937801335B08EB720022344B1A704AE0E200121B93002D4AD3189E68304B1B78DBB25A00D318DA00B6182D4B1E60737D687A83420AD3FC
:401840001B1AD8B270754B4658436330642100F043FB707501E000237375244B1E68B37DA87A83420AD31B1AD8B2B0754B4658436330642100F030FBB07501E00023B37504
:401880001A4B1E68F37DE87A83420AD31B1AD8B2F0754B4658436330642100F01DFBF07501E00023F375104A13780133DBB21370E200121B9300084AD318DA7E0A4B1B7840
:4018C000DBB29A42A9D80022074B1A70380004B004BC9146F0BDC0469020000068230000C2020020C91D0000C70200207C040020014B98667047C0460000002010B504004C
:4019000000F0B3F9044A1168044B0B40A4051C43146000F0AEF910BD08E400E0FFFF3FFF8022D200014B1A607047C04600E100E08022D200014B1A607047C04680E100E0D2
:4019400010B50400FFF7F4FF2000FFF7D1FF0320FFF7D4FFFFF7E4FF10BDC046024A1168024B0B401360704700000740FFFFFFBF034B18688023DB05184000D0012070475C
:40198000000007401F2318401E3B8340014A13607047C04600E100E01F2318401E3B8340014A13607047C04680E100E01F2318401E3B8340014A13607047C04680E200E009
:4019C00001BE704710B5040006E0084B586800F043F9074B9C46644480231B029C42F4D8024B9868604300F037F910BD900000200080FFFF30B583B000F0D8F8002849D019
:401A000000F033F90400244B196889001C2319401831224B1B689B0803221340D940204B1A68204B1340204A4A438020C00184466244D20B013A5205520D1343A02252035A
:401A40001A431000192902D8184A13430CE0184BCB181B781A39174A525C9A18FF2A00D9FF229205030013430D4A1360124D2B680193302000F006FA104A13688021C90565
:401A80000B4313601420FFF79DFF019B2B60200000F0EFF803B030BD080F0340280003400800074000F800C040420F000000D43FCDF1FF0F6C23000030001040000007404F
:401AC000F0B583B0040018280BD01C2809D0202807D0242805D0282803D02C2801D0302849D100F0C2F80190FFF742FF002803D0FFF734FF012600E00026214A1368072107
:401B00008B4313601F4BE3181B78DBB21E4A13601E4A13688B4313601D4803687F22934319001C4BE3181B7813400B430360322000F092F8182C16D9114F3B680725AB436B
:401B40001A0023001C3B9B082B4013433B60322000F082F83A68AA432300183B9B082C001C4014433C60012E01D1FFF743FF019800F07FF802E00020FFF722FF03B0F0BD41
:401B8000080F0340CDF1FF0F0C0F0340100F0340180F0340B4F1FF0F10B5034B1B7B584300F05AF810BDC04690000020034B1B68002B01DA012000E0002070470000074023
:401BC000014A024B1A6070476588EDAC3800034004490A68D2B202239A434000184010430860704700020440044A1368DBB201218B430840184310607047C046000204402A
:401C000004490A68D2B204239A43800018401043086070470002044004490A68D2B208239A43C00018401043086070470002044004490A68D2B210239A43000118401043B3
:401C40000860704700020440024B18680009012318407047040204400230800803D001300238FCD1C046C0467047EFF3108072B6704780F310887047104B1A78D2B2D300CD
:401C80009A1A93000E4AD3185B680E4A11680A04120C188801238340013B9A4206D20A4B1A680A4B1B785B00D15205E0064A1168064A127852008B527047C046C2020020CE
:401CC00090200000D0000B407C040020C802002010B50B4B1A78D2B2D3009A1A9300094AD3185C68084B18780130C0B21870FFF7CDF82000FFF77EFAFFF7EEFA10BDC0463A
:401D0000C202002090200000C802002070B5274B1978C9B2264CCA00511A8A00A21850681A78D2B2D1008A1A9300E3181A7E013A204B1B78DBB29A4220D91E4C237801335A
:401D4000DBB22370194D2A78D2B2D3009A1A9300174AD31899682378DBB25A00D318DA008A18154B1A60FFF745FA2878C0B22178C9B2FFF79FFBFFF7AFFA16E000220D4B93
:401D80001A700E4AD1680E4B0B40D3600D4B1B78012B02D1FFF70AF807E0084BDA6880218A43DA601A8901321A8170BDC202002090200000C70200207C040020CC02002082
:401DC000FFFFFEFFC102002010B5832252000D4B1A60FFF751FF0C4B1B78012B02D8FFF777FF0DE00022084B1A700020FFF74EF8064B1A8901321A81D968054A0A40DA60B7
:401E000010BDC046F0000B40C8020020CC0200207FFFFEFF10B5164B1B78DBB2DA00D31A9A00144BD458144B1B78DBB2DA00D31A9A00A41883225200104B1A60FFF71CFF96
:401E40000F4B1B78022B02D12000FFF747FB0C4B1B78012B02D8FFF73BFF07E00022084B1A700020FFF712F8FFF750FF10BDC046C202002090200000C7020020F0000B4027
:401E8000C802002070B50400FFF7EFFE0500102C05D8104A136803218B43136016E0202C07D80C490B6803229343023A13430B600CE0302C07D807490B6803229343013AD3
:401EC00013430B6002E00020FFF77AFD2800FFF7D0FE70BD30001040002243088B4274D303098B425FD3030A8B4244D3030B8B4228D3030C8B420DD3FF22090212BA030C03
:401F00008B4202D31212090265D0030B8B4219D300E0090AC30B8B4201D3CB03C01A5241830B8B4201D38B03C01A5241430B8B4201D34B03C01A5241030B8B4201D30B03A6
:401F4000C01A5241C30A8B4201D3CB02C01A5241830A8B4201D38B02C01A5241430A8B4201D34B02C01A5241030A8B4201D30B02C01A5241CDD2C3098B4201D3CB01C01AA2
:401F8000524183098B4201D38B01C01A524143098B4201D34B01C01A524103098B4201D30B01C01A5241C3088B4201D3CB00C01A524183088B4201D38B00C01A5241430889
:401FC0008B4201D34B00C01A5241411A00D20146524110467047FFE701B5002000F006F802BDC0460029F7D076E770477047C046014B18687047C046040100200E4B70B518
:4020000000251E000D4CE41AA410A54204D0AB00F35898470135F8E700F0B6F9084B00251E00084CE41AA410A54204D0AB00F35898470135F8E770BD942300009423000032
:40204000942300009C230000002310B59A4203D0CC5CC4540133F9E710BD03008218934202D019700133FAE770470000000000002020202020202020202020202020202099
:402080002020202020202020202020202020000034220000F40200208003002070020020B802002000280000010001015022000002030020980300204C020020B402002024
:4020C00000280000010001016C22000010030020B003002028020020B00200200028000001000101882200001E030020C803002004020020AC0200200028000001000101E5
:40210000A42200002C030020E0030020E0010020A80200200028000001000101C02200003A030020F8030020BC010020A40200200028000001000101DC2200004803002000
:402140001004002098010020A00200200028000001000101F82200005603002028040020740100209C02002000280000010001011423000064030020400400205001002095
:402180009802002000280000010001013023000072030020580400202C0100209402002000280000010001010C004800242409031E20202000000C004800242409031E209C
:4021C000202000000C004800242409031E20202000000C004800242409031E20202000000C004800242409031E20202000001000640028280A031E2020200000100064006A
:4022000028280A031E20202000001000640028280A031E20202000001000640028280A031E20202000001000640028280A031E202020000000000240080004400000044004
:40224000040004400F000000010000000000000000000240080004400000044004000440F0000000020000000401030000000240080004400000044004000440000F0000C9
:4022800004000000080206000000024008000440000004400400044000F00000080000000C030900000002400800044000000440040004400000000F400000001806120047
:4022C00000010240080104400001044004010440000000F0800000001C07150000020240080204400002044004020440000000F0800000001C0715000001024008010440BE
:4023000000010440040104400000000F400000001806120000010240080104400001044004010440000F00000400000008020600000202400802044000020440040204402D
:402340000000F0002000000014050F0002080000C2070000CC070000D6070000E6070000F0070000FA07000001010100EEDBC9B9AA9B8E82766B60564D443B332C241D1700
:40238000100A044300000000F8B5C046F8BC08BC9E46704765010000DD020000F8B5C046F8BC08BC9E4670473D010000C0230000800000208800000080030000000000001F
:4023C000000000000D0A000000FFFF0020000004010000000000C05D80BB000030000000006CDC0200000000000000000000000000000000000000000000000000000000D1
:4024000000000000832300000000000000000000000000000000000000000000000000000000000000000000000000000000000000000000000000000000000000000000F6
:4024400000000000A4000020000000000000000000000000000000000000000000000000000000000000000000000000000000000000000000000000000000000000000098
:40248000000000000000000000000000000000000000000000000000000000000000000000000000000000000000000000000000000000000000000000000000000000001C
:4024C00000000000000000000000000000000000000000000000000000000000000000000000000000000000000000000000000000000000000000000000000000000000DC
:40250000000000000000000000000000000000000000000000000000000000000000000000000000000000000000000000000000000000000000000000000000000000009B
:40254000000000000000000000000000000000000000000000000000000000000000000000000000000000000000000000000000000000000000000000000000000000005B
:0200000490303A
:0200000038774F
:0200000490402A
:200000000000000000000000000000000000000000000000000000000000000000000000E0
:0200000490501A
:0C0000000002190111A90001190C4A208E
:0200000490600A
:0100000001FE
:00000001FF