:400000000010002011000000150200001502000010B501F0BBFD00F005F9C04610B51222124B1A60302001F023FDFE221202104B1A60104B104A1A60882189010F4A116089
:400040000F4A1A60E82149010E4A11600E4A1A6000220E4B1A6040320D4B1A6002320D4B1A60013A0C4B1A6010BDC04630001040000301400000014040FF00800803014091
:4000800042FF00800403014041FF00802800034008010140040101400001014010B572B6EE220E4B1A600E4A0E4B1A6001220E4B1A6002320D4B1A6021320D4B1A600223F9
:4000C0000C4A13600C490D4A11600D4A13600D4A1360FFF7A3FF00F097F810BD0001024090EE00000003024018000440000104400801044000030440B06D000008030440FB
:40010000180304401804044010B5064C2378002B07D1054B002B02D0044800E000BF0123237010BD100100200000000084230000084B10B5002B03D00749084800E000BF62
:4001400007480368002B00D110BD064B002BFBD09847F9E7000000001401002084230000800000200000000010B5002000F0D2FA43425841C0B201F011FD10BD10B562B6A0
:4001800000F0A8F800F04AF900F0DCFD00F09CFD002816D100F05CF900F0D8FAFFF7E4FF094C0221200000F0B3F84021074800F0AFF8201D032100F0ABF800F09BFA00F058
:4001C000C1FD01F0CBFCE1E7840000205C0100200B4B1B68002803D080221206134301E05B005B08064A1360064B1B68002802D02022134301E020229343024A1360704785
:40020000002002402800034010B50120FFF7E0FF10BDC04610B502F077F803680C2B00D1FEE7FEE770B50F4E0F4D13E029686B68AC68002202E001C901C30432A242FAD140
:40024000E868002202E0002102C304328242FAD11035013E002EE9D102F05CF8FFF78EFFFEE7C046010000003C24000010B500230AE0032B03D89A000849505800E0084860
:400280009900084A885001331F2BF2D9FFF706FF80229205044B1A6010BDC04600000000150200000000002008ED00E010B500F08FF810BD10B500F037F810BD10B5044A89
:4002C0001368802109060B431360FFF7EFFF10BD0000094010B5064B1B78002B04D1FFF7E9FF0122024B1A70FFF7E8FF10BDC0462C010020044B1B681F221340082BF9D038
:40030000024B18607047C046080209404002094070B506000D00002403E0305DFFF7EAFF0134AC42F9D370BD154A164B1A600023154A13601549164A1160072215490A6047
:4003400015490A60154A13600121154A11601549154A1160154A13600421154A1160154A1360154A1360154A1360154A1360154A1360154A13601268144B1A807047C046E0
:400380000B000002000009404000094001000A00480009400003094004030940100309404400094007000080000209400402094050000940880E0940C80E0940480F0940E5
:4003C000080F0940C80F0940880F09402E01002005490B68F0229343603A13430B60034B1A88034B1A607047000302402E010020880F094010B5084B1B78002B06D100F0CA
:4004000041F900F099F90122034B1A7000F042F800F014FE10BDC0463001002010B5FFF7E9FF041E02D100F057FD0400002C02D100F088FC0400002C03D100F045FC002805
:40044000FBD100F0E1FA00F047FA200010BDC04670B50E4E0025002413E0630904339B000B4A9B581F222240D340DB0707D5300000F062F805003100200000F0D7F8203625
:400480000134002CE9D0280070BDC0468C2300005C01002070B5002309E012491A1D92008818002444600120404250500133002BF3D00D4C012310E06668A27E094B5B1956
:4004C00000211976012A06D12069002803D0F179228B01F04EFF20342B005D1E002BEBD170BDC0465C0100208C23000010B582B0040008001300628869460A80228A01F05B
:4005000029FD6B461B8863806B469B7823716B46DB7863716B461B79A37102B010BDC04630B50B884A889C1A0025CD800079844200DDCC8030BDC046F0B55F4656464D460A
:40054000E0B482B08246837E062B02D10122934601E0002293465246D26891465246946856680093D76900250023019321E0009A2100484600F020FB318A20883A0001F083
:400580008DFD2A0039003000FFF7B0FF0C37009A2100300000F09EFA019021003000FFF7BFFF0A345B46002B02D10C339C46E144013553461B8B9D42D9D3019802B01CBCE7
:4005C00091469A46A346F0BDF0B50A8B8D684F680B69012125E00C00044003D17E88BA79B21802E07A88BE79921BEE88B24201D3002200E00A00A24202D01E78013E1E70DB
:40060000A24202D01C78002C07D188431043002A01D1FA7900E001221A7049000A3501336246541EA446002AD5D1F0BD70B504008A7E134B1B181D7E012A04D12800FFF79A
:40064000C3FF050002E0002001F092F90C4B1B191D7663091F2214401E3AA240002D07D104339B000649CB1859689143596006E004339B000249CB1859680A435A6070BDAA
:400680005C01002070B5174C40220021200001F070FE154B238090231B016380134BA38008236383073B2377114D20001E3029002431122201F054FE2A002C1D01230CE0CC
:4006C000A168238B04E013784B7201320A310300581E002BF7D120342B005D1E002BEFD170BDC0465C0100202648000070170000882300000123002006E0131D9B000449C6
:40070000CB185B68184313005A1E002BF5D170475C01002000280BD11F23034001229A404009031D9B000348C3185868104000E0002070475C0100200023024AD380024A06
:40074000136070475C0100205001002070B5002500263B4B1B68032B06D101F036FA0122384BDA8001F035FA364BDC88E4B2062C23D8A300344AD3589F460122304B1A60B1
:4007800001261AE000222E4B1A60012615E0FFF745FE00222A4B1A60012501260DE00222274B1A60012608E00022254B1A60012603E00322224B1A600026002E0FD001F0FE
:4007C00004FA204BDB88DBB29C4205D11D4AD1881E4B0B439BB2D38001F0FBF90026184B1B68012BB5D0022B28D1164A3833D35CDBB23B21525CD2B2002B1FD15901144827
:400800004118098B8A4219D20E49088980B2898F89B2884212D05B010D49CB189C6893009A185300E41801F0D0F9064B1A8992B29A87228892B2DA8701F0CBF9280070BD62
:40084000500100205C010020DC2300000080FFFF8C230000FF231940062902D08318002119715300195AC31859808218002313727047C04670B506000D00012305E02200C0
:4008800029003000FFF7E6FF23005C1E002BF6D170BDC04610B54001054B1B188A00511848009A6894466044997EFFF7E3FF10BD8C23000070B505004301064AD3181B8B44
:4008C00004E021002800FFF7E5FF23005C1E002BF7D170BD8C23000010B5012303E02000FFF7E8FF23005C1E002BF8D110BDC04670B5012309E0FF231340062B04D0630049
:400900005E5A1B199D002E5223005C1E002BF2D170BDC046F0B501230CE0FF231340062B07D065006F5A2E19B300C3185F806D5A9D8023005C1E002BEFD1F0BDF0B50123FA
:400940000EE0FF231340062B09D065006F5A2E19B300C318DF806E5A1E816D5A5D8123005C1E002BEDD1F0BDF0B557464E464546E0B4804643011D4AD3185A6891461B8BD9
:400980002BE043465A01194B9B18AA00521954009A6894466444D86806006A0052199100DA6992468A449F7E062F00D046183A0021003000FFF79CFF3A0021003000FFF792
:4009C000A9FF3A0021003000FFF7B8FF4B46198A2088524601F036FB2B005D1E002BD0D11CBC90469946A246F0BDC0468C23000010B5012303E02000FFF7B6FF23005C1E04
:400A0000002BF8D110BDC04610B5FFF7F1FF10BDF0B5012319E0FF231340062B14D067007B5A9C463E19B300C318DD8865441E89B44665445E89AD19AD0866465E81DE887D
:400A40001E817E5ADE80CD5323005C1E002BE2D1F0BDC046884202D9030008001900914200D91100884200D208007047F0B54F464646C0B483B001900F009046012317E074
:400A8000FF2342461340062B11D06E00F05B73199C00019B9C46644463889946A2881900FFF7D8FF4B46A380F35B6380B8532B005D1E002BE4D103B00CBC90469946F0BDF3
:400AC0009840504380235B009A1A51434018000A7047C046F0B5474680B482B007000E00019201233EE06300985BF3185988884205D3431A321900251572012201E00B1A43
:400B00000022002A11D17D79AB420ED933191B7A3A7A934205D3220001993000FFF79AFE1FE03219013313721BE03D79AB4204D97D79AB4215D2002A13D1FF23019A13409B
:400B4000062B0ED00902331998461B79194308230122FFF7B5FF020A6300F3185A804346187123005C1E002BBDD1002002B004BC9046F0BDF0B5474680B407000E00904627
:400B8000012313E0FF2342461340062B0DD06500A85B2A199300D95B00238022FFF790FF80B22A199300D853A85323005C1E002BE8D104BC9046F0BD70B504000D00160019
:400BC000FFF754FF320029002000FFF7D3FF320029002000FFF71CFF70BDC04670B504000D009F2808D91B4B994205D91A49280001F084FB002921D09F2C09D9FF235B006E
:400C00009D4205D91549280001F078FB002917D09F2C07D97E2D05D97F21280001F06EFB00290FD09F2C0FD93E2D0FD93F21280001F064FB00290BD000200AE0042008E0A7
:400C4000032006E0022004E0002002E0002000E0012070BDFE030000FF030000FF01000010B54B1EDBB2032B01D8102300E00023002911D0002B11D06422534301001800CF
:400C800001F0B6FA002301E0013340000928FBD90A2804D9013B02E0002300E00023D8B210BDC04610B5064A1368F0218B431360044A1368EF398B43136000F087FC10BD12
:400CC00000040240A8020B40024BDB68802018407047C0465C01002010B50E4BDB68DB030DD400280DD1430904339B00094A9B581F220240D340DB0705D4012404E01124DE
:400D000002E0012400E00024002C01D100F070FC200010BD5C01002010B5084BDB68DB0307D4074B1B78012B05D100F0E5FB002003E0112001E00120404210BD5C01002017
:400D40005401002010B50C4BDB681B0612D40024012040420BE02000FFF7BEFF002805D10022064B5A70FFF7D7FF04E00134002CF1D000E0112010BD5C0100205401002036
:400D800010B504000C4B1B78834214D0012B01D1FFF788FF012C05D100F01AFA0122064B1A7008E0022C06D0042C04D0032C02D00022014B1A7010BD5401002030B5002126
:400DC0000D4B16E0186802681C69A24302605C6822689D7E0720A840824310000622AA4002432260986802685C69A24302601C3301310029E6D030BDC02300007047C04666
:400E0000074A084B1A6001380002074B1860054B1B68002BFBDB054A024B1A607047C04640000040000001400003014040FF008070B5002512E06B010A4A9E58002406E028
:400E4000E3001B1B9800301800F0A0FB01346B01044AD3181B7E9C42F2D30135002DEAD070BDC0468C2300004001024B18184368588970478C2300000203121A01238B4009
:400E8000013B9A4205D90202101A834203D3052002E0062000E00020C0B2704770B50E00FFF7E2FF05003188002200F041FA01002800FFF793FE041E04D168003188FFF74A
:400EC000DBFF040021002800FFF7CAFE0001C0B22043307370BDC04670B58AB0FA239B0002AA1380434B53807C33FF339380424B197F424801F07CF902AB98810026002590
:400F00003CE073013E4AD3185C680C2323800023237302AB98893B4901F06AF960815521300000F039FC23000A330693364B1B7802AA1376354B1888FA239B0058433449DB
:400F400001F056F902ABD881180000F053FF314B984203D9062501E05B00638102AB998963892D4A5A439142F6D8032BF4D9B3000AAA94466344043B18600136002EC0D055
:400F8000002421E063011E4AD3185E685521200000F002FC054333000A330693A3000AAA94466344043B1B6801930493164B1B7802AA1376F389D3803300103307931000DD
:400FC00000F052FF30800134002CDBD000240CE063010B4AD31859682000FFF75FFF5521200000F0D9FB05430134002CF0D028000AB070BDE50700005C01002080BB000095
:401000008C230000DC0500009000002092000020FF0F0000870D01007017000010B5002407E06301044AD31859682000FFF736FF0134002CF5D010BD8C23000010B5FFF7BE
:40104000EDFFFFF7BBFE0120FFF79AFE002010BD70B500F0BAFD134A1368F0218B43136000F0B7FD00F0B1FD0F4A136802218B43136000F0AEFD00F0A8FD0C4C2368382559
:40108000AB4330221343236000F0A3FD012000F05BFD00F09AFD2368AB43236000F099FD70BDC04600040240000404400804044001390843014B18607047C04600020B40B1
:4010C00010B50F4B1B68702293431C000D4B197F0D4801F08DF80D4B984204D820232343074A13600BE00A4B984204D830232343034A136003E040232343014A136010BDEE
:401100008C0000205C010020006CDC02001BB70000366E01034A044B1A60C1225204034B1A60704700008301C0010B40C4010B40074B1A687F210A40064802431A60064A3C
:4011400013680B40802109040B4313607047C046C0010B4000008301C4010B40064A136806490B431360064A064B1A60C1225204054B1A607047C046A8020B400100001021
:4011800000008301C0010B40C4010B4070B50E001500038801249C40013CA3001B195800642101F025F8013083199C4200D22300B04201D8301A00E00020A84203D8AB4255
:4011C00003D2062002E0062000E0002070BDC04670B5FFF72DFEFFF73BFFC0221203274B1A60274B1968274E314319600024264A1460264A1460264A1460264A1460264AE7
:401200001460264A1460264A1460264D2C60264A1460264A1168F0208143903801431160234A1168802040010143116080214900204A11601A6832431A6080235B041E4A39
:4012400013601E491E4A11601E4A14602B60FFF761FF1D4B187FFFF7D3FDFFF731FF1B4B1B681B4A13431B4A13600F221A4B1A601A4B1C60053A1A4B1A6070BD04020B400A
:40128000A8020B4001000010F4000B40B4020B40C0020B4020030B4084010B4088020B4080020B4084020B4080010B400004024094020B40A0020B40A4020B404112000006
:4012C00088010B4090020B405C0100208C0000200010008000000B4000030B40F0010B4010030B4070B5050000F06FFC0C490B687F26B3430B4A14782D196A7A13430B609D
:4013000000F067FC00F061FC07490B68B343074A12681419627A13430B6000F05AFC70BDC0010B40F8230000C4010B409C01002010B503001400012088400138002B02D05D
:40134000190000F055FF053C012C00D84008002800D1013010BDC04610B50C4B1B785B010B4AD3185B6859891B7B18045A1F012A02D8802292041043053BDBB2012B02D807
:40138000490800D10131FFF793FE10BD570100208C23000010B50300408919881A7BFFF7C7FF0004000C014B186010BD14030B4010B50A2000F0C8FA01222D4B1A600023FF
:4013C0002C490B602C490B602C490B6006202C490860FA302B4908602B490A60832149002A4A11602A4A136003222A4B1A60E1231B0200E0013B254A1268520701D4002B1A
:40140000F8D1002B02D10822224B1A60832252001E4B1A600A2000F0A1FA0A2000F08AFA0023184A1360144A1360144A1360144A1360A021144A11609F390E4A11600C4AB5
:401440001360154A1368802149040B43136002220F4B1A60E1231B0200E0013B0F4A1268520701D0002BF8D10D4A0A4B1A6010BD80010B408C010B40B0020B40B4020B40B5
:4014800088020B4080020B40F0010B40F0000B40F8000B4040030B4000020B4000000B400103000010B5054AD36805490B43D3600A2000F049FBFFF77BFF10BD5C01002070
:4014C0008000010070B50400857E067E00F07DFB23681B680F22B24093431A000423B3401343666832680721A9408A4332602268136000F06EFB70BD70B5154E3378154DD2
:401500005B01EB185868144C0023237033785B01EB1899682378DBB29A00D3185A008A180E4B1A60FFF7DEFE33785B0158592278D2B2D3009A1A9300C018094B1860FFF793
:40154000C1FF084800F0D4F9FFF7ACFF70BDC046570100208C230000560100209C010020A0010020FD1C000010B54001054BC058CB00591A8B00C018034B1860FFF7A2FF29
:4015800010BDC0468C230000A001002070B50400007EA57E21680B680F22824093430B6000F013FB61680B680722AA4093431A000623AB4013430B6000F00BFBA1680B686A
:4015C000607E0122824093430B6070BD10B5064B1B78012B06D1054B1868FFF7D7FF0022014B1A7010BDC04658010020A001002070B5104E4301F3185D68C0B20E4C20707A
:401600000120FFF7BDFBFFF7E1FF23785B019A590A4B1A600A4BDA687F218A43DA602178DA680A43DA602800FFF7B4FEFFF794FE70BDC0468C23000057010020A001002039
:401640005C01002070B54301134AD3185D68C9B2124C217099682378DBB29A00D3185A008A180F4B1A60FFF7C3FF2800FFF73AFE2378DBB20B49DA00D31A98000B689C4651
:4016800060440860FFF71EFF0122074B1A70074800F02EF970BDC0468C230000560100209C010020A001002058010020D11C0000F0B5474680B482B007000E0090462E4A6E
:4016C00013785B012D49CB185B680193002333701078C0B22A4B1978C9B2FFF7B3FFFFF727FD00248025BC4202D23378AB4333706D0833782B4333700198FFF7F3FDFFF7D3
:40170000D1FEE1231B0200E0013B1E4AD268120601D5002BF8D11C4B1B681C88002DE2D1154B1B785B01154A9858154B1A78D2B2D3009A1A9300C018144B1860FFF726FFB3
:401740000022134B1A70FFF709FD220039000198FFF71CFD43461A7833789A4204D2424613700C4A1371D480074B1B6832785A7202B004BC9046F0BD570100208C23000048
:40178000560100205C0100209C010020A0010020580100208C000020F0B54F4680B484B0040089464301384AD3185F68012503AB1D703B882800984001384843642100F048
:4017C00017FD0190E2B2314B1A70314800F090F83E0009362F4B1D71DD8000222E4B1A7000250AE003AA31000198FFF761FF0543294A13780133DBB213706301224AD31891
:40180000DA7E254B1B78DBB29A42EBD803AB1B7801335B087B7200221F4B1A7022E06301194AD3189E681C4B1B78DBB29A00D3185A00B618194B1E60737A787A83420AD3F5
:401840001B1AD8B270724B4658436330642100F0CFFC707201E0002373720F4A13780133DBB213706301084AD318DA7E0A4B1B78DBB29A42D3D80022074B1A70280004B006
:4018800004BC9146F0BDC0468C23000057010020D11C00008C000020560100209C010020014B98667047C0460000002010B5040000F08BF9044A1168044B0B40A4051C431D
:4018C000146000F086F910BD08E400E0FFFF3FFF8022D200014B1A607047C04600E100E08022D200014B1A607047C04680E100E010B50400FFF7F4FF2000FFF7D1FF032085
:40190000FFF7D4FFFFF7E4FF10BDC046024A1168024B0B401360704700000740FFFFFFBF034B18688023DB05184000D001207047000007401F2318401E3B8340014A13609C
:401940007047C04600E100E01F2318401E3B8340014A13607047C04680E100E01F2318401E3B8340014A13607047C04680E200E001BE704710B5040006E0084B586800F0DC
:401980001BF9074B9C46644480231B029C42F4D8024B9868604300F00FF910BD940000200080FFFF30B583B000F0E6F8002849D000F00BF90400244B196889001C231940B6
:4019C0001831224B1B689B0803221340D940204B1A68204B1340204A4A438020C00184466244D20B013A5205520D1343A02252031A431000192902D8184A13430CE0184B3C
:401A0000CB181B781A39174A525C9A18FF2A00D9FF229205030013430D4A1360124D2B680193302000F08CF9104A13688021C9050B4313601420FFF79DFF019B2B602000E2
:401A400000F0C7F803B030BD080F0340280003400800074000F800C040420F000000D43FCDF1FF0FFC2300003000104000000740F0B583B0040018280BD01C2809D0202899
:401A800007D0242805D0282803D02C2801D0302849D100F09AF80190FFF742FF002803D0FFF734FF012600E00026214A136807218B4313601F4BE3181B78DBB21E4A13602A
:401AC0001E4A13688B4313601D4803687F22934319001C4BE3181B7813400B430360322000F06AF8182C16D9114F3B680725AB431A0023001C3B9B082B4013433B60322090
:401B000000F05AF83A68AA432300183B9B082C001C4014433C60012E01D1FFF743FF019800F057F802E00020FFF722FF03B0F0BD080F0340CDF1FF0F0C0F0340100F0340D0
:401B4000180F0340B4F1FF0F10B5034B1B7B584300F032F810BDC0469400002010B500F034F8044A136804218B43136030BF00F030F810BD10ED00E0034B1B68002B01DACB
:401B8000012000E00020704700000740014A024B1A6070476588EDAC3800034004490A68D2B210239A430001184010430860704700030440000000000230800803D0013019
:401BC0000238FCD1C046C0467047EFF3108072B6704780F3108870470E4B1B785B010E4AD3185B680D4A11680A04120C188801238340013B9A4206D2094B1A68094B1B788A
:401C00005B00D15205E0064A1168064A127852008B527047570100208C230000D0000B409C010020F823000070B5224B1A78224952018A1850681B785B01CB181A7E013ABD
:401C40001E4B1B78DBB29A421CD91C4C23780133DBB22370174D2B785B01CB1899682378DBB29A00D3185A008A18154B1A60FFF739FB2878C0B22178C9B2FFF775FCFFF73C
:401C800097FB16E000220D4B1A700E4AD1680E4B0B40D3600D4B1B78012B02D1FFF7AEF807E0084BDA6880218A43DA601A8901321A8170BD570100208C230000560100204A
:401CC0009C0100205C010020FFFFFEFF5501002010B583225200064B1A60FFF77DFF054B1A8901321A81D968034A0A40DA6010BDF0000B405C0100207FFFFEFF10B50C4B51
:401D00001B785B010B4A9C580B4B1A78D2B2D1008A1A9300E41883225200084B1A60FFF75BFF2000FFF732FCFFF77EFF10BDC046570100208C23000056010020F0000B4084
:401D400070B50400FFF741FF0500102C05D8104A136803218B43136016E0202C07D80C490B6803229343023A13430B600CE0302C07D807490B6803229343013A13430B60EA
:401D800002E00020FFF7F4FD2800FFF722FF70BD3000104090B585B000AF78607B689B881A007B68DB895343FA2292005A4314007B689A897B681B691B881900100000F0C8
:401DC00017FA03009BB21900200000F011FA03001A007B681B7E5A437B685B881900100000F006FA0300FB60FB681800BD4605B090BDC04680B586B000AF786001233B61A3
:401E00007B681800FFF7C6FF0300FB607B681B881A00FB685A43FA239900100000F0E8F903007B617B689B891A007B6953430D49180000F0DDF903007B6105E07B695B089E
:401E40007B613B695B003B617B69002BF6D17B681B693A6992B21A80FB681800BD4606B080BDC04600E1F50590B589B000AF786001237B611F23FB1810221A707B681B7E49
:401E80001A007B689B8853433B617B689A897B681B691B881900100000F0AAF903009BB2FB607B685B881A0013001B049B1A3969180000F09DF903001A00FB685343BB6120
:401EC000BB692249180000F093F903001A007B68DB8853430A21180000F08AF90300BB617B689B681A4A934211D902237B610EE01F23FB181F22BA181278013A1A70BB691E
:401F00005B08BB611F23FB181B78062B06D97B6964225A43BB699A42EAD300E0C0467B685C69BA6913009B009B181A01D31A6421180000F05DF903009BB223801F23FB1821
:401F40001B781800BD4609B090BDC046A0860100A761000080B586B000AFF860B9603B60BB1D1A801223FB18BA1D12881A803B68002B04D11623FB1800221A8004E01623C5
:401F8000FB18BA6812881A80FB681B889B009BB21222BA1812889A4206D91423FB181222BA1812881A8005E0FB681A881423FB1892001A801423FA181623FB1812881B88B9
:401FC0009A4205D91623FB181422BA1812881A80BB681622BA1812881A801623FB181B885B089BB2FF2B06D9BB68FF229A70BB68FF22DA700FE01623FB181B885B089BB22C
:40200000DAB2BB689A701623FB181B885B089BB2DAB2BB68DA701623FB181B88DB089BB2FF2B03D9BB68FF221A7107E01623FB181B88DB089BB2DAB2BB681A71C046BD4612
:4020400006B080BD80B582B000AF3A60BB1D021C1A803B1D0A1C1A803B1D1B889B089AB23B681A803B1D1B88DB089AB23B685A803B68BA1D12889A803B68BA1D1288DA80AB
:402080003B68BA1D12881A813B680F229A723B680022DA72C046BD4602B080BD80B584B000AF3A60BB1D021C1A803B1D0A1C1A80BB1D1B883A6892889B1AFB603B68BA1D6D
:4020C00012889A803B689B7ADB18DAB23B689A72FB68002B08DA3B689B7A0133DAB23B689A72FB685B42FB603B689B7A0F221340DAB23B689A723B685B881A00FB689A42FE
:402100000AD93B685B88012B0CD93B685B88013B9AB23B685A8005E03B685B8801339AB23B685A803B689B7A0F2B09D03B689B7A002B05D03B685B889A00FB689A420BD273
:402140003B68BA1D1288DA803B68BA1D12881A813B680022DA7247E03B68DB88BA1D12889A4204D23B68BA1D1288DA8009E03B681B89BA1D12889A4203D93B68BA1D128806
:402180001A813B68DB7A092B06D83B68DB7A0133DAB23B68DA7227E03B6819893B68DA880A23FB188A1A1A803B685B880A22BA1812889A420ED23B685A883B1D1B889B0807
:4021C0009BB29A420CD93B685B88013B9AB23B685A8005E03B685B8801339AB23B685A803B685A883B681A80C046BD4604B080BD002243088B4274D303098B425FD3030A89
:402200008B4244D3030B8B4228D3030C8B420DD3FF22090212BA030C8B4202D31212090265D0030B8B4219D300E0090AC30B8B4201D3CB03C01A5241830B8B4201D38B03FA
:40224000C01A5241430B8B4201D34B03C01A5241030B8B4201D30B03C01A5241C30A8B4201D3CB02C01A5241830A8B4201D38B02C01A5241430A8B4201D34B02C01A5241A5
:40228000030A8B4201D30B02C01A5241CDD2C3098B4201D3CB01C01A524183098B4201D38B01C01A524143098B4201D34B01C01A524103098B4201D30B01C01A5241C308F4
:4022C0008B4201D3CB00C01A524183088B4201D38B00C01A524143088B4201D34B00C01A5241411A00D20146524110467047FFE701B5002000F006F802BDC0460029F7D0CA
:4023000076E770477047C046014B18687047C046080100200E4B70B500251E000D4CE41AA410A54204D0AB00F35898470135F8E700F072F8084B00251E00084CE41AA410B3
:40234000A54204D0AB00F35898470135F8E770BD2424000024240000242400002C240000002310B59A4203D0CC5CC4540133F9E710BD03008218934202D019700133FAE7C9
:40238000704700000000000020000000C02300007A0100208C010020340100204C0100200128000001000101400100201000640028280A031E2004000000E80300000000CE
:4023C000000002400800044000000440040004400F0000000100000000000000BA0700007A070000840700008E0700009E070000A8070000B207000000000000EEDBC9B9F9
:40240000AA9B8E82766B60564D443B332C241D17100A044300000000F8B5C046F8BC08BC9E467047310100006D020000F8B5C046F8BC08BC9E467047090100005024000021
:4024400080000020900000009800000000000000000000000D0A000000FFFF002000000401000100010000000000C05D80BB000030000000006CDC02000000000000000086
:4024800000000000000000000000000000000000000000000000000013240000000000000000000000000000000000000000000000000000000000000000000000000000E5
:4024C000000000000000000000000000000000000000000000000000A800002000000000000000000000000000000000000000000000000000000000000000000000000014
:40250000000000000000000000000000000000000000000000000000000000000000000000000000000000000000000000000000000000000000000000000000000000009B
:40254000000000000000000000000000000000000000000000000000000000000000000000000000000000000000000000000000000000000000000000000000000000005B
:40258000000000000000000000000000000000000000000000000000000000000000000000000000000000000000000000000000000000000000000000000000000000001B
:4025C00000000000000000000000000000000000000000000000000000000000000000000000000000000000000000000000000000000000000000000000000000000000DB
:0200000490303A
:02000000FFBF40
:0200000490402A
:200000000000000000000000000000000000000000000000000000000000000000000000E0
:0200000490501A
:0C0000000002190111A90001190D11687E
:0200000490600A
:0100000001FE
:00000001FF