:4000000000100020110000006D0200006D02000010B501F081FD00F031F9C04610B51222124B1A60302001F0E9FCFE221202104B1A60104B104A1A60882189010F4A116022
:400040000F4A1A60E82149010E4A11600E4A1A6000220E4B1A6040320D4B1A6002320D4B1A60013A0C4B1A6010BDC04630001040000301400000014040FF00800803014091
:4000800042FF00800403014041FF00802800034008010140040101400001014010B572B6EE22124B1A60124A124B1A604E22124B1A600132114B1A604C3A114B1A60213234
:4000C000104B1A60104A114B1A600223104A1360DB2109010F4A11600F4A13600F4A1360FFF79CFF00F0BCF810BDC0460001024090EE0000000302400000044018000440F3
:400100000001044008010440B66D0000080204400003044008030440180304401804044010B5064C2378002B07D1054B002B02D0044800E000BF0123237010BD10010020C5
:40014000000000006C230000084B10B5002B03D00749084800E000BF07480368002B00D110BD064B002BFBD09847F9E700000000140100206C2300008000002000000000AE
:4001800010B5002000F0F4FA43425841C0B201F0D7FC012000F0ECFA43425841C0B201F0C3FC022000F0E4FA43425841C0B201F0D3FC032000F0DCFA43425841C0B201F047
:4001C000D7FC042000F0D4FA43425841C0B201F0DBFC10BD10B562B600F0A8F800F04AF900F082FD00F042FD002816D100F05CF900F0DAFAFFF7C4FF094C0221200000F08E
:40020000B3F8B421074800F0AFF8201D032100F0ABF800F09DFA00F067FD01F065FCE1E784000020CC0100200B4B1B68002803D080221206134301E05B005B08064A136098
:40024000064B1B68002802D02022134301E020229343024A13607047002002402800034010B50120FFF7E0FF10BDC04610B502F03FF803680C2B00D1FEE7FEE770B50F4EA1
:400280000F4D13E029686B68AC68002202E001C901C30432A242FAD1E868002202E0002102C304328242FAD11035013E002EE9D102F024F8FFF78EFFFEE7C0460100000018
:4002C0006025000010B500230AE0032B03D89A000849505800E008489900084A885001331F2BF2D9FFF7DAFE80229205044B1A6010BDC046000000006D020000000000209D
:4003000008ED00E010B500F08FF810BD10B500F037F810BD10B5044A1368802109060B431360FFF7EFFF10BD0000094010B5064B1B78002B04D1FFF7E9FF0122024B1A70B4
:40034000FFF7E8FF10BDC0462C010020044B1B681F221340082BF9D0024B18607047C046080209404002094070B506000D00002403E0305DFFF7EAFF0134AC42F9D370BDF7
:40038000154A164B1A600023154A13601549164A1160072215490A6015490A60154A13600121154A11601549154A1160154A13600421154A1160154A1360154A1360154A6A
:4003C0001360154A1360154A1360154A13601268144B1A807047C0460B000002000009404000094001000A004800094000030940040309401003094044000940070000805D
:40040000000209400402094050000940880E0940C80E0940480F0940080F0940C80F0940880F09402E01002005490B68F0229343603A13430B60034B1A88034B1A607047C9
:40044000000302402E010020880F094010B5084B1B78002B06D100F041F900F09BF90122034B1A7000F042F800F0A2FD10BDC0463001002010B5FFF7E9FF041E02D100F04D
:40048000E9FC0400002C02D100F02EFC0400002C03D100F0EBFB0028FBD100F0E7FA00F04DFA200010BDC04670B50E4E0024002513E06B0904339B000B4A9B581F222A407B
:4004C000D340DB0707D5300000F062F804003100280000F0D7F820360135042DE9D9200070BDC04678230000CC01002070B5002309E012491A1D920088180024446001205D
:40050000404250500133002BF3D00D4C052310E06668A27E094B5B1900211976012A06D12069002803D0F179228B01F016FF20342B005D1E002BEBD170BDC046CC010020FC
:400540007823000010B582B0040008001300628869460A80228A01F0F1FC6B461B8863806B469B7823716B46DB7863716B461B79A37102B010BDC04630B50B884A889C1AD8
:400580000025CD800079844200DDCC8030BDC046F0B55F4656464D46E0B482B08246837E062B02D10122934601E0002293465246D26891465246946856680093D769002597
:4005C0000023019321E0009A2100484600F026FB318A20883A0001F055FD2A0039003000FFF7B0FF0C37009A2100300000F0A4FA019021003000FFF7BFFF0A345B46002B75
:4006000002D10C339C46E144013553461B8B9D42D9D3019802B01CBC91469A46A346F0BDF0B50A8B8D684F680B69012125E00C00044003D17E88BA79B21802E07A88BE796E
:40064000921BEE88B24201D3002200E00A00A24202D01E78013E1E70A24202D01C78002C07D188431043002A01D1FA7900E001221A7049000A3501336246541EA446002A18
:40068000D5D1F0BD70B504008A7E134B1B181D7E012A04D12800FFF7C3FF050002E0002001F02CF90C4B1B191D7663091F2214401E3AA240002D07D104339B000649CB182B
:4006C00059689143596006E004339B000249CB1859680A435A6070BDCC01002070B5174CB4220021200001F038FE154B238090231B016380134BA3800823E38304221833E6
:40070000E2542000223056320F49283101F01CFE0E490C00083405230CE0A268238B04E00B78537201310A320300581E002BF7D120342B005D1E002BEFD170BDCC0100205D
:400740001E4B000070170000F0230000702300000123002006E0131D9B000449CB185B68184313005A1E002BF5D17047CC01002004280BD81F23034001229A404009031D86
:400780009B000348C3185868104000E000207047CC0100200023024AD380024A13607047CC010020C001002070B5002500263D4B1B68032B06D101F0FCF901223A4BDA8056
:4007C00001F0FBF9384BDC88E4B2062C23D8A300364AD3589F460122324B1A6001261AE00022304B1A60012615E0FFF743FE00222C4B1A60012501260DE00222294B1A6033
:40080000012608E00022274B1A60012603E00322244B1A600026002E0FD001F0CAF9224BDB88DBB29C4205D11F4AD188204B0B439BB2D38001F0C1F900261A4B1B68012B8B
:40084000B5D0022B2BD1184AAC33D35CDBB2AF21525CD2B2042B22D8590116484118098B8A421CD21049088980B2B024095B89B2884214D05B010F49CB189C6893009A1826
:400880005300E41801F095F9074B1A8992B2B0215A52228892B202315A5201F08EF9280070BDC046C0010020CC010020002500000080FFFF78230000FF231940062902D08C
:4008C0008318002119715300195AC31859808218002313727047C04670B506000D00012305E0220029003000FFF7E6FF23005C1E002BF6D170BDC04610B54001054B1B1857
:400900008A00511848009A6894466044997EFFF7E3FF10BD7823000070B505004301064AD3181B8B04E021002800FFF7E5FF23005C1E002BF7D170BD7823000010B505230A
:4009400003E02000FFF7E8FF23005C1E002BF8D110BDC04670B5012309E0FF231340062B04D063005E5A1B199D002E5223005C1E002BF2D170BDC046F0B501230CE0FF2386
:400980001340062B07D065006F5A2E19B300C3185F806D5A9D8023005C1E002BEFD1F0BDF0B501230EE0FF231340062B09D065006F5A2E19B300C318DF806E5A1E816D5A1B
:4009C0005D8123005C1E002BEDD1F0BDF0B557464E464546E0B4804643011D4AD3185A6891461B8B2BE043465A01194B9B18AA00521954009A6894466444D86806006A00B3
:400A000052199100DA6992468A449F7E062F00D046183A0021003000FFF79CFF3A0021003000FFF7A9FF3A0021003000FFF7B8FF4B46198A2088524601F0F8FA2B005D1ED7
:400A4000002BD0D11CBC90469946A246F0BDC0467823000010B5052303E02000FFF7B6FF23005C1E002BF8D110BDC04610B5FFF7F1FF10BDF0B5012319E0FF231340062B08
:400A800014D067007B5A9C463E19B300C318DD8865441E89B44665445E89AD19AD0866465E81DE881E817E5ADE80CD5323005C1E002BE2D1F0BDC046884202D903000800D1
:400AC0001900914200D91100884200D208007047F0B54F464646C0B483B001900F009046012317E0FF2342461340062B11D06E00F05B73199C00019B9C46644463889946E7
:400B0000A2881900FFF7D8FF4B46A380F35B6380B8532B005D1E002BE4D103B00CBC90469946F0BD9840504380235B009A1A51434018000A7047C046F0B5474680B482B0EA
:400B400007000E00019201233EE06300985BF3185988884205D3431A321900251572012201E00B1A0022002A11D17D79AB420ED933191B7A3A7A934205D322000199300004
:400B8000FFF79AFE1FE03219013313721BE03D79AB4204D97D79AB4215D2002A13D1FF23019A1340062B0ED00902331998461B79194308230122FFF7B5FF020A6300F3189B
:400BC0005A804346187123005C1E002BBDD1002002B004BC9046F0BDF0B5474680B407000E009046012313E0FF2342461340062B0DD06500A85B2A199300D95B00238022F4
:400C0000FFF790FF80B22A199300D853A85323005C1E002BE8D104BC9046F0BD70B504000D001600FFF754FF320029002000FFF7D3FF320029002000FFF71CFF70BDC046A6
:400C400000230B737047C04610B5064A1368F0218B431360044A1368EF398B43136000F07BFC10BD00040240A8020B40024BDB68802018407047C046CC01002010B50E4B43
:400C8000DB68DB030DD404280DD8430904339B00094A9B581F220240D340DB0705D4012404E0112402E0012400E00024002C01D100F064FC200010BDCC01002010B5084BE3
:400CC000DB68DB0307D4074B1B78012B05D100F0D9FB002003E0112001E00120404210BDCC010020C401002010B50F4BDB681B0618D400240120404211E02000FFF7BEFFFC
:400D000000280BD1032C03D80122084B5A7002E00022064B5A70FFF7D1FF04E00134042CEBD900E0112010BDCC010020C401002010B504000C4B1B78834214D0012B01D169
:400D4000FFF782FF012C05D100F01AFA0122064B1A7008E0022C06D0042C04D0032C02D00022014B1A7010BDC401002030B500200D4B16E019680A681C69A2430A605C687E
:400D800022689D7E0721A9408A4311000622AA400A43226099680A685C69A2430A601C3301300428E6D930BD7424000010B51B4A93780133DBB293709078C0B2FFF75EFF81
:400DC000041E09D1154B9B78042B02D10022134B5A70FFF773FF1EE0104B9B78042B11D10F4B1A8901321A81DA6880218A43DA60DA681202120ADA60DA6804061443DC6013
:400E0000002408E0064AD3681B021B0AD360D16803060B43D360002CC9D110BDC4010020CC010020074A084B1A6001380002074B1860054B1B68002BFBDB054A024B1A6071
:400E40007047C04640000040000001400003014040FF008070B58EB0FA239B0002AA1380414B53807C33FF33938020233F4AD15C3F4801F0B1F902AB98810026002539E0FF
:400E800073013C4AD3185C680C2323800023237302AB9889384901F09FF960815521300000F040FC23000A330693344B1B7802AA1376334B1888FA239B005843314901F057
:400EC0008BF902ABD881180000F088FF2E4B984203D9062501E05B00638102AB998963892A4A5A439142F6D8032BF4D9B20009ABD0500136042EC3D900241EE063011D4A7F
:400F0000D3185E685521200000F00CFC054333000A330693A20009ABD35801930493174B1B7802AA1376F389D380330010330793100000F08DFF30800134042CDED90024F0
:400F40000CE063010B4AD31859682000FFF778FE5521200000F0E6FB05430134042CF0D928000EB070BDC046E5070000CC01002080BB000078230000DC050000900000205E
:400F800092000020FF0F0000870D01007017000010B5002407E06301044AD31859682000FFF74EFE0134042CF5D910BD7823000010B5FFF7EDFFFFF7D9FE0120FFF7B8FEE9
:400FC000002010BD70B5002512E06B010A4A9E58002406E0E3001B1B9800301800F09CFA01346B01044AD3181B7E9C42F2D30135042DEAD970BDC0467823000070B500F066
:40100000D8FD134A1368F0218B43136000F0D5FD00F0CFFD0F4A136802218B43136000F0CCFD00F0C6FD0C4C23683825AB4330221343236000F0C1FD012000F04BFD00F03F
:40104000B8FD2368AB43236000F0B7FD70BDC04600040240000404400804044001390843014B18607047C04600020B4010B5104B1B68702293431C0020230E4AD15C0E4872
:4010800001F0AAF80D4B984204D820232343084A13600BE00A4B984204D830232343044A136003E040232343014A136010BDC0468C000020CC010020006CDC02001BB700BF
:4010C00000366E01034A044B1A60C1225204034B1A60704700008301C0010B40C4010B40074B1A687F210A40064802431A60064A13680B40802109040B4313607047C046D0
:40110000C0010B4000008301C4010B40064A136806490B431360064A064B1A60C1225204054B1A607047C046A8020B400100001000008301C0010B40C4010B4070B50E0080
:401140001500038801249C40013CA3001B195800642101F041F8013083199C4200D22300B04201D8301A00E00020A84203D8AB4203D2062002E0062000E0002070BDC04616
:4011800070B5FFF71FFFFFF739FFC0221203284B1A60284B1968284E314319600024274A1460274A1460274A1460274A1460274A1460274A1460274A1460274D2C60274AB5
:4011C0001460274A1168F0208143903801431160244A1168802040010143116080214900214A11601A6832431A6080235B041F4A13601F491F4A11601F4A14602B60FFF70E
:4012000061FF20231D4AD05CFFF70CFEFFF72EFF1B4B1B681B4A13431B4A13600F221B4B1A601B4B1C60053A1A4B1A6070BDC04604020B40A8020B4001000010F4000B40FF
:40124000B4020B40C0020B4020030B4084010B4088020B4080020B4084020B4080010B400004024094020B40A0020B40A4020B404112000088010B4090020B40CC010020ED
:401280008C0000200010008000000B4000030B40F0010B4010030B4070B5050000F089FC0C490B687F26B3430B4A14782D196A7A13430B6000F081FC00F07BFC07490B685A
:4012C000B343074A12681419627A13430B6000F074FC70BDC0010B401C250000C4010B408002002010B50300012088400138002B02D0190000F070FF002800D1013010BD81
:4013000010B5094B1B785B01084AD3185B6859891B7B1804053B012B02D880239B041843FFF79CFE10BDC046C60100207823000010B50300408919881A7BFFF7D3FF0004B6
:40134000000C014B186010BD14030B4010B50A2000F0C0FA01222A4B1A60002329490B6029490B6029490B60062029490860FA302849086028490A6083214900274A11605C
:40138000274A13600322274B1A60E1231B0200E0013B224A1268520701D4002BF8D1002B02D108221F4B1A60832252001B4B1A600A2000F099FA0A2000F082FA0023154A4B
:4013C0001360114A1360114A1360114A1360A021114A11609F390B4A1160094A136002220F4B1A60E1231B0200E0013B0E4A1268520701D0002BF8D10C4A0A4B1A6010BD08
:4014000080010B408C010B40B0020B40B4020B4088020B4080020B40F0010B40F0000B40F8000B4040030B4000000B400103000010B5054AD36805490B43D3600A2000F099
:4014400049FBFFF783FF10BDCC0100208000010070B50400857E067E00F0ABFB23681B680F22B24093431A000423B3401343666832680721A9408A4332602268136000F0D9
:401480009CFB70BD70B5154E3378154D5B01EB185868144C0023237033785B01EB1899682378DBB29A00D3185A008A180E4B1A60FFF7F2FE33785B0158592278D2B2D30088
:4014C0009A1A9300C018094B1860FFF7C1FF084800F0D4F9FFF7ACFF70BDC046C601002078230000C70100208002002084020020E51C000010B54001054BC058CB00591A0B
:401500008B00C018034B1860FFF7A2FF10BDC046782300008402002070B50400007EA57E21680B680F22824093430B6000F041FB61680B680722AA4093431A000623AB405E
:4015400013430B6000F039FBA1680B68607E0122824093430B6070BD10B5064B1B78012B06D1054B1868FFF7D7FF0022014B1A7010BDC046C80100208402002070B5104EB4
:401580004301F3185D68C0B20E4C20700120FFF7CFFBFFF7E1FF23785B019A590A4B1A600A4BDA687F218A43DA602178DA680A43DA602800FFF7BCFEFFF7A2FE70BDC0460A
:4015C00078230000C601002084020020CC01002070B54301134AD3185D68C9B2124C217099682378DBB29A00D3185A008A180F4B1A60FFF7C3FF2800FFF74EFE2378DBB22E
:401600000B49DA00D31A98000B689C4660440860FFF71EFF0122074B1A70074800F02EF970BDC04678230000C70100208002002084020020C8010020B91C0000F0B5474630
:4016400080B482B007000E0090462E4A13785B012D49CB185B680193002333701078C0B22A4B1978C9B2FFF7B3FFFFF739FD00248025BC4202D23378AB4333706D083378FE
:401680002B4333700198FFF707FEFFF7D1FEE1231B0200E0013B1E4AD268120601D5002BF8D11C4B1B681C88002DE2D1154B1B785B01154A9858154B1A78D2B2D3009A1AF6
:4016C0009300C018144B1860FFF726FF0022134B1A70FFF71BFD220039000198FFF72EFD43461A7833789A4204D2424613700C4A1371D480074B1B6832785A7202B004BCF2
:401700009046F0BDC601002078230000C7010020CC0100208002002084020020C80100208C000020F0B54F4680B484B0040089464301384AD3185F68012503AB1D703B88E1
:401740002800984001384843642100F045FD0190E2B2314B1A70314800F090F83E0009362F4B1D71DD8000222E4B1A7000250AE003AA31000198FFF761FF0543294A1378A9
:401780000133DBB213706301224AD318DA7E254B1B78DBB29A42EBD803AB1B7801335B087B7200221F4B1A7022E06301194AD3189E681C4B1B78DBB29A00D3185A00B618DA
:4017C000194B1E60737A787A83420AD31B1AD8B270724B4658436330642100F0FDFC707201E0002373720F4A13780133DBB213706301084AD318DA7E0A4B1B78DBB29A427B
:40180000D3D80022074B1A70280004B004BC9146F0BDC04678230000C6010020B91C00008C000020C701002080020020014B98667047C0460000002010B5040000F0B9F9BA
:40184000044A1168044B0B40A4051C43146000F0B4F910BD08E400E0FFFF3FFF8022D200014B1A607047C04600E100E08022D200014B1A607047C04680E100E010B5040060
:40188000FFF7F4FF2000FFF7D1FF0320FFF7D4FFFFF7E4FF10BDC046024A1168024B0B401360704700000740FFFFFFBF034B18688023DB05184000D001207047000007409F
:4018C0001F2318401E3B8340014A13607047C04600E100E01F2318401E3B8340014A13607047C04680E100E01F2318401E3B8340014A13607047C04680E200E001BE70479B
:4019000010B5040006E0084B586800F049F9074B9C46644480231B029C42F4D8024B9868604300F03DF910BD940000200080FFFF30B583B000F0E6F8002849D000F039F90F
:401940000400244B196889001C2319401831224B1B689B0803221340D940204B1A68204B1340204A4A438020C00184466244D20B013A5205520D1343A02252031A431000CA
:40198000192902D8184A13430CE0184BCB181B781A39174A525C9A18FF2A00D9FF229205030013430D4A1360124D2B680193302000F0BAF9104A13688021C9050B4313601F
:4019C0001420FFF79DFF019B2B60200000F0F5F803B030BD080F0340280003400800074000F800C040420F000000D43FCDF1FF0F202500003000104000000740F0B583B03D
:401A0000040018280BD01C2809D0202807D0242805D0282803D02C2801D0302849D100F0C8F80190FFF742FF002803D0FFF734FF012600E00026214A136807218B43136058
:401A40001F4BE3181B78DBB21E4A13601E4A13688B4313601D4803687F22934319001C4BE3181B7813400B430360322000F098F8182C16D9114F3B680725AB431A0023002A
:401A80001C3B9B082B4013433B60322000F088F83A68AA432300183B9B082C001C4014433C60012E01D1FFF743FF019800F085F802E00020FFF722FF03B0F0BD080F0340D9
:401AC000CDF1FF0F0C0F0340100F0340180F0340B4F1FF0F10B5034B1B7B584300F060F810BDC0469400002010B500F062F8044A136804218B43136030BF00F05EF810BDEA
:401B000010ED00E0034B1B68002B01DA012000E00020704700000740014A024B1A6070476588EDAC3800034004490A68D2B202239A43400018401043086070470002044073
:401B4000044A1368DBB201218B430840184310607047C0460002044004490A68D2B204239A43800018401043086070470002044004490A68D2B208239A43C000184010437C
:401B8000086070470002044004490A68D2B210239A4300011840104308607047000204400230800803D001300238FCD1C046C0467047EFF3108072B6704780F310887047C1
:401BC0000E4B1B785B010E4AD3185B680D4A11680A04120C188801238340013B9A4206D2094B1A68094B1B785B00D15205E0064A1168064A127852008B527047C601002094
:401C000078230000D0000B40800200201C25000070B5224B1A78224952018A1850681B785B01CB181A7E013A1E4B1B78DBB29A421CD91C4C23780133DBB22370174D2B7872
:401C40005B01CB1899682378DBB29A00D3185A008A18154B1A60FFF71FFB2878C0B22178C9B2FFF747FCFFF771FB16E000220D4B1A700E4AD1680E4B0B40D3600D4B1B7883
:401C8000012B02D1FFF792F807E0084BDA6880218A43DA601A8901321A8170BDC601002078230000C701002080020020CC010020FFFFFEFFC501002010B583225200064BFC
:401CC0001A60FFF77DFF054B1A8901321A81D968034A0A40DA6010BDF0000B40CC0100207FFFFEFF10B50C4B1B785B010B4A9C580B4B1A78D2B2D1008A1A9300E41883224C
:401D00005200084B1A60FFF75BFF2000FFF704FCFFF77EFF10BDC046C601002078230000C7010020F0000B4070B50400FFF741FF0500102C05D8104A136803218B4313607C
:401D400016E0202C07D80C490B6803229343023A13430B600CE0302C07D807490B6803229343013A13430B6002E00020FFF7C6FD2800FFF722FF70BD3000104090B585B080
:401D800000AF78607B689B881A007B68DB895343FA2292005A4314007B689A897B681B691B881900100000F017FA03009BB21900200000F011FA03001A007B681B7E5A434C
:401DC0007B685B881900100000F006FA0300FB60FB681800BD4605B090BDC04680B586B000AF786001233B617B681800FFF7C6FF0300FB607B681B881A00FB685A43FA239D
:401E00009900100000F0E8F903007B617B689B891A007B6953430D49180000F0DDF903007B6105E07B695B087B613B695B003B617B69002BF6D17B681B693A6992B21A803A
:401E4000FB681800BD4606B080BDC04600E1F50590B589B000AF786001237B611F23FB1810221A707B681B7E1A007B689B8853433B617B689A897B681B691B8819001000F3
:401E800000F0AAF903009BB2FB607B685B881A0013001B049B1A3969180000F09DF903001A00FB685343BB61BB692249180000F093F903001A007B68DB8853430A2118004C
:401EC00000F08AF90300BB617B689B681A4A934211D902237B610EE01F23FB181F22BA181278013A1A70BB695B08BB611F23FB181B78062B06D97B6964225A43BB699A42FF
:401F0000EAD300E0C0467B685C69BA6913009B009B181A01D31A6421180000F05DF903009BB223801F23FB181B781800BD4609B090BDC046A0860100A761000080B586B04B
:401F400000AFF860B9603B60BB1D1A801223FB18BA1D12881A803B68002B04D11623FB1800221A8004E01623FB18BA6812881A80FB681B889B009BB21222BA1812889A4246
:401F800006D91423FB181222BA1812881A8005E0FB681A881423FB1892001A801423FA181623FB1812881B889A4205D91623FB181422BA1812881A80BB681622BA18128883
:401FC0001A801623FB181B885B089BB2FF2B06D9BB68FF229A70BB68FF22DA700FE01623FB181B885B089BB2DAB2BB689A701623FB181B885B089BB2DAB2BB68DA701623AB
:40200000FB181B88DB089BB2FF2B03D9BB68FF221A7107E01623FB181B88DB089BB2DAB2BB681A71C046BD4606B080BD80B582B000AF3A60BB1D021C1A803B1D0A1C1A8051
:402040003B1D1B889B089AB23B681A803B1D1B88DB089AB23B685A803B68BA1D12889A803B68BA1D1288DA803B68BA1D12881A813B680F229A723B680022DA72C046BD464D
:4020800002B080BD80B584B000AF3A60BB1D021C1A803B1D0A1C1A80BB1D1B883A6892889B1AFB603B68BA1D12889A803B689B7ADB18DAB23B689A72FB68002B08DA3B6869
:4020C0009B7A0133DAB23B689A72FB685B42FB603B689B7A0F221340DAB23B689A723B685B881A00FB689A420AD93B685B88012B0CD93B685B88013B9AB23B685A8005E0C1
:402100003B685B8801339AB23B685A803B689B7A0F2B09D03B689B7A002B05D03B685B889A00FB689A420BD23B68BA1D1288DA803B68BA1D12881A813B680022DA7247E008
:402140003B68DB88BA1D12889A4204D23B68BA1D1288DA8009E03B681B89BA1D12889A4203D93B68BA1D12881A813B68DB7A092B06D83B68DB7A0133DAB23B68DA7227E008
:402180003B6819893B68DA880A23FB188A1A1A803B685B880A22BA1812889A420ED23B685A883B1D1B889B089BB29A420CD93B685B88013B9AB23B685A8005E03B685B8856
:4021C00001339AB23B685A803B685A883B681A80C046BD4604B080BD002243088B4274D303098B425FD3030A8B4244D3030B8B4228D3030C8B420DD3FF22090212BA030C10
:402200008B4202D31212090265D0030B8B4219D300E0090AC30B8B4201D3CB03C01A5241830B8B4201D38B03C01A5241430B8B4201D34B03C01A5241030B8B4201D30B03A3
:40224000C01A5241C30A8B4201D3CB02C01A5241830A8B4201D38B02C01A5241430A8B4201D34B02C01A5241030A8B4201D30B02C01A5241CDD2C3098B4201D3CB01C01A9F
:40228000524183098B4201D38B01C01A524143098B4201D34B01C01A524103098B4201D30B01C01A5241C3088B4201D3CB00C01A524183088B4201D38B00C01A5241430886
:4022C0008B4201D34B00C01A5241411A00D20146524110467047FFE701B5002000F006F802BDC0460029F7D076E770477047C046014B18687047C046080100200E4B70B511
:4023000000251E000D4CE41AA410A54204D0AB00F35898470135F8E700F010F9084B00251E00084CE41AA410A54204D0AB00F35898470135F8E770BD482500004825000069
:402340004825000050250000002310B59A4203D0CC5CC4540133F9E710BD03008218934202D019700133FAE77047000000000000202020202000000074240000EE010020E3
:402380004802002064010020BC0100200128000001000101A001002090240000000200205202002058010020B8010020012800000100010194010020AC24000012020020E3
:4023C0005C0200204C010020B4010020012800000100010188010020C8240000240200206602002040010020B001002001280000010001017C010020E42400003602002033
:402400007002002034010020AC0100200128000001000101700100200B00640028280A031E2004000000580200000B00640028280A031E2004000000580200000B006400EC
:4024400028280A031E2004000000580200000B00640028280A031E2004000000580200000B00640028280A031E2004000000580200000000000002400800044000000440C1
:40248000040004400F000000010000000000000000000240080004400000044004000440F0000000020000000401030000000240080004400000044004000440000F000087
:4024C00004000000080206000000024008000440000004400400044000F00000080000000C030900000002400800044000000440040004400000000F400000001806120005
:4025000016080000D6070000E0070000EA070000FA070000040800000E08000000000000EEDBC9B9AA9B8E82766B60564D443B332C241D17100A044300000000F8B5C046D7
:40254000F8BC08BC9E46704749010000C5020000F8B5C046F8BC08BC9E4670472101000070250000800000209000000078010000000000000D0A000000FFFF0020000004D8
:4025800001000100010000000000C05D80BB000030000000006CDC0200000000000000000000000000000000000000000000000000000000000000003725000000000000EA
:4025C0000000000000000000000000000000000000000000000000000000000000000000000000000000000000000000000000000000000000000000A80000200000000013
:40260000000000000000000000000000000000000000000000000000000000000000000000000000000000000000000000000000000000000000000000000000000000009A
:40264000000000000000000000000000000000000000000000000000000000000000000000000000000000000000000000000000000000000000000000000000000000005A
:40268000000000000000000000000000000000000000000000000000000000000000000000000000000000000000000000000000000000000000000000000000000000001A
:4026C00000000000000000000000000000000000000000000000000000000000000000000000000000000000000000000000000000000000000000000000000000000000DA
:0200000490303A
:0200000039B312
:0200000490402A
:200000000000000000000000000000000000000000000000000000000000000000000000E0
:0200000490501A
:0C0000000002190111A90001190D4B5C50
:0200000490600A
:0100000001FE
:00000001FF