:4000000000100020110000001D0300001D03000010B502F057FE00F089F9C04610B5154C12232360182002F0BFFDB0221201124B1A60124B124A1A60FE210902114A116012
:40004000114A1A6080218900104A1160104A1A600022104B1A6042230F4A13600F4A136040220F4B1A6001320E4B1A601123236010BDC0463000104008030140000001401B
:4000800042FF00800003014040FF00800403014041FF008028000340100101400C010140080101400001014010B572B6174A184B1A60184A184B1A60184A194B1A60EE2223
:4000C0001202184B1A604E22174B1A600132174B1A601432164B1A603F3A164B1A605432154B1A604732154B1A60154A154B1A607022154B1A60154A154B1A600E22154B1E
:400100001A60FFF78BFF00F0F9F810BD6666000600000240EE60660600010240000080800002024000030240000004401800044000010440080104401801044000020440A8
:40014000B66D03000802044000030440806D1B00080304401804044010B5064C2378002B07D1054B002B02D0044800E000BF0123237010BD08010020000000003C32000005
:40018000084B10B5002B03D00749084800E000BF07480368002B00D110BD064B002BFBD09847F9E7000000000C0100203C320000800000200000000070B5032000F07AFD77
:4001C0000400002000F064FD43425841C0B202F083FB012000F05CFD43425841C0B202F06FFB022000F054FD43425841C0B202F05BFB032000F04CFD00281FD0002002F074
:40020000A7FB002514232800A3426841C0B202F093FB28232800A3426841C0B202F080FB3C232800A3426841C0B202F06DFB5023A3426D41E8B202F05BFB0EE0012002F06E
:4002400087FB012002F078FB012002F069FB012002F05AFB012002F04BFB70BD10B562B600F0BEF8164AB021B02000F02DF900F0FFFA02F095FA02F007FB02F009FA0124FF
:4002800000E00324022C0DD0032C12D0012CF9D100F00EFF0028F5D100F032FD00F05EFF0134EFE700F004FF0028EAD002F0F2FCE8E700F0F7FAFFF77FFF0124E2E7C046F5
:4002C000900100200B4B1B68002803D080221206134301E05B005B08064A1360064B1B68002802D02022134301E020229343024A13607047002002402800034010B58022FE
:400300005201044B1A601122034B1A600120FFF7D9FF10BD94020B40C0020B4010B502F04FFF03680C2B00D1FEE7FEE770B50F4E0F4D13E029686B68AC68002202E001C9A3
:4003400001C30432A242FAD1E868002202E0002102C304328242FAD11035013E002EE9D102F034FFFFF77AFFFEE7C04601000000D034000010B500230AE0032B03D89A0070
:400380000849505800E008489900084A885001331F2BF2D9FFF788FE80229205044B1A6010BDC046000000001D0300000000002008ED00E010B5072002F020FB10BDC046D6
:4003C00010B500F01DF810BD10B5044A1368802109060B431360FFF7EDFF10BD0000084010B5064B1B78002B04D1FFF7E9FF0122024B1A70FFF7E8FF10BDC04624010020FA
:4004000010B5802252001B4B1A601B4A1B4B1A601B4B1C4A136000241B4A14601B491C4A11601C4A13601C4B1C60072002F0F0FA0321072002F014FB1849072002F0FEFAEA
:40044000174B1C60174B1C605222FF32164B1A60164B1C60164B1C60164B1C60503AFF3A154B1A70154B1C70154B1C80154B1C8010BDC0460000084000080040600008400D
:400480000701008000030840040308401000FE00100308400002084004020840F9040000C80E0840880E0840480F0840080F0840C80F0840880F08408001002084010020DE
:4004C0007E0100207C01002070B506000D00141E0BD0072002F09CFA044B1C60044B1E80044B1D80072002F089FA70BD880100208C0100208201002070B5B44B1B68002B94
:4005000000D09847B24B1C88B24B1D68B24B1E680223FF331D4239D0B04A13685B005B081360AF4A137820218B431370117810230B43DBB21370AB4B1B68DB060CD4A44BA8
:400540001A88A94B1B889A420CD0A54A117808230B43DBB2137005E0A14A117802230B43DBB21370A14A1168A14B0B4013600023A04A13609B4A136002229F4B1A70974A4E
:400580001368802109060B4313601BE1F30602D500229A4B1A600A23334200D1A3E0984B1B685B0769D5974B1A68934B1B78012B04D0002B22D0022B16D057E0924B1B884A
:4005C000002B0DD00121914B1960914B1B681B19D2B21A7001348C4A1388013B138048E002228A4B1A6044E00121884B1960D2B2854B1A800022804B1A703AE0824B1B884A
:400600001B021A43834B1B889A422BD201217F4B1960814B1B889A4202D29B1A9BB200E0002379490B80072B03D80121724B197014E0082B09D16D490B68A0200002034379
:400640000B6000216B4B196008E068490B688020800103430B600821664B1960624B1A80140006E00222694B1A6002E0002002F0E3F90422694B1A6035E05C4B1B689B04F9
:4006800031D5B3070DD5664B1B681F211940574A1068574B03401360012014E00821012011E0594B1988083989B219800829F5D8002008E0564B1B681B19524A1268D2B2B8
:4006C0001A70013401390029F4D1002808D1474A1368802109020B4313600022454B1A600C224E4B1A60B3074BD5EB0615D50023404A13603B4A13603B4B1B889C4201D186
:40070000022300E00A232B40354A11780B4320218B4313700222384B1A706B062FD5304A117820230B43DBB213702F4B1B881C003C4A1268D20612D5364A1288D31A324A6F
:400740001380394B1A68802149020A431A601968364A0A401A601022224B1A6002E00422244B1A600122324B1A603249194B196031490868102303430B60244B1A60154BD5
:400780001D60154B1B685B071CD51F4B1B88002B0CD01F4B1B681B191B78DBB2274A13600134194A1388013B138002E0FF22234B1A60234B1B681F221340082BE5D10F3AA9
:4007C000204B1A60024B1C8070BDC046280100207E010020400F0840000E08400000084084010020880F08407C01002060000840FF5FFFFFC80F084080010020880E084018
:40080000CC0F0840400308402C0100206C000840880100208C01002082010020C00F0840080308406400084004020840FFFFFEFF800E0840FF0F0000480F084040020840A4
:4008400008020840800F084010B5084B1B78002B06D100F0E3F900F049FA0122034B1A7000F054F800F062FE10BDC0462E01002010B5FFF7E9FF041E02D100F0CBFD0400A6
:40088000002C02D100F06AFC0400002C03D100F00FFC0028FBD100F0BFFA00F005FB200010BDC04670B5174E0024002526E06B0904339B00144A9B581F222A40D340DB0754
:4008C0001AD5F37E012B02D0022B09D011E0300000F086F804003100280000F069F90BE0300000F061F804003100280000F0C8F802E0002002F0A0F828360135032DD6D9E6
:40090000200070BD483200009001002070B5002309E01D491A1D92008818002444600120404250500133002BF3D0184C042327E06668A27E144B5B1900211976012A04D010
:40094000002A1BD0032A08D918E02069002815D0F179228B02F069FC10E02369002B01D0F2791A706168002306E01A1D52008A1801204042D0800133002BF6D028342B004F
:400980005D1E002BD4D170BD900100204832000030B50B884A889C1A0025CD800079844200DDCC8030BDC046F0B583B08468038B4568877E002201920BE03A0021002800A0
:4009C00000F088FA019021002800FFF7E1FF0A3433005E1E002BF0D1019803B0F0BDC046F0B583B0070084684568837E01930026002300930BE0019A2100280000F06AFAF1
:400A0000009021002800FFF7C3FF0A3401363B8B9E42F0D3009803B0F0BDC046F0B50A8B8D684F680B69012125E00C00044003D17E88BA79B21802E07A88BE79921BEE8863
:400A4000B24201D3002200E00A00A24202D01E78013E1E70A24202D01C78002C07D188431043002A01D1FA7900E001221A7049000A3501336246541EA446002AD5D1F0BDE4
:400A800070B504008A7E134B1B181D7E012A04D12800FFF7C3FF050002E0002001F0CCFF0C4B1B191D7663091F2214401E3AA240002D07D104339B000649CB18596891433F
:400AC000596006E004339B000249CB1859680A435A6070BD90010020F0B5474680B482B084460F000B8B8A684D6809698846002803D16888A979401802E06988A879081A47
:400B00000024012109E0D388984201D3002300E00B001C430A32490033005E1E002BF2D1002C0CD043461B78002B02D0013B4246137043461B78002B04D0644602E0EB797B
:400B400042461370002C0AD06B88AA799A1A3E8B3100B86801F0ACFC002802D121E000201FE0BB7E022B1CD1396A0023320001A801F00AFD00220AE0530002A98C4663445D
:400B8000043B1988131D5B00EB18D98001329042F2D806E0031D5B00EB1801225242DA8001300028F6D0200002B004BC9046F0BD70B504008A7E184B1B181D7E012A04D095
:400BC000002A0CD0032A05D909E02800FFF726FF050007E02800FFF77FFF050002E0002001F02AFF0C4B1B191D7663091F2214401E3AA240002D07D104339B000649CB18AD
:400C000059689143596006E004339B000249CB1859680A435A6070BD9001002070B5184CB0220021200002F000FBAA23DB01238090231B016380134BA3800823A383073B3F
:400C4000A377E377200020303A220F49283102F0E3FA0E490C00083404230CE0A268238B04E00B78537201310A320300581E002BF7D128342B005D1E002BEFD170BDC04624
:400C800090010020B80B0000C03200004032000003280BD81F23034001229A404009031D9B000348C3185868104000E00020704790010020032811D882001218D300094A44
:400CC000D31822331B78023BDBB2012B08D883001818C300D318DB68D88902E0024800E00148704740320000FFFF00000023024AD380024A13607047900100204001002080
:400D000070B5002500263F4B1B68032B06D101F0ECFF01223C4BDA8001F0EBFF3A4BDC88E4B2062C23D8A300384AD3589F460122344B1A6001261AE00022324B1A60012618
:400D400015E0FFF795FD00222E4B1A60012501260DE002222B4B1A60012608E00022294B1A60012603E00322264B1A600026002E0FD001F0BAFF244BDB88DBB29C4205D16A
:400D8000214AD188224B0B439BB2D38001F0B1FF00261C4B1B68012BB5D0022B2FD11A4AA833D35CDBB2AB21525CD2B2032B26D89800C018C10017484118098B8A421ED227
:400DC0001149088980B2AC24095B89B2884216D09900CB18D9000F4B59188C6893009A185300E41801F081FF074B1A8992B2AC215A52228892B202315A5201F07AFF28008D
:400E000070BDC0464001002090010020583400000080FFFF483200007047C046FF231940062902D08318002119715300195AC31859808218002313727047C04670B50600C6
:400E40000D00012305E0220029003000FFF7E6FF23005C1E002BF6D170BDC04670B5074D86003218D4002C19A0688A0051184A008018A17EFFF7E2FF70BDC0464832000062
:400E800070B5050082001218D300064AD3181B8B04E021002800FFF7E1FF23005C1E002BF7D170BD4832000010B5042303E02000FFF7E6FF23005C1E002BF8D110BDC04640
:400EC0009840504380235B009A1A51434018000A7047C046F0B5474680B482B007000E00019201233EE06300985BF3185988884205D3431A321900251572012201E00B1A3F
:400F00000022002A11D17D79AB420ED933191B7A3A7A934205D3220001993000FFF77EFF1FE03219013313721BE03D79AB4204D97D79AB4215D2002A13D1FF23019A1340B2
:400F4000062B0ED00902331998461B79194308230122FFF7B5FF020A6300F3185A804346187123005C1E002BBDD1002002B004BC9046F0BD70B504000D009F2808D91B4B30
:400F8000994205D91A49280002F02AF8002921D09F2C09D9FF235B009D4205D91549280002F01EF8002917D09F2C07D97E2D05D97F21280002F014F800290FD09F2C0FD985
:400FC0003E2D0FD93F21280002F00AF800290BD000200AE0042008E0032006E0022004E0002002E0002000E0012070BDFE030000FF030000FF01000010B54B1EDBB2032BBD
:4010000001D8102300E00023002911D0002B11D0642253430100180001F05CFF002301E0013340000928FBD90A2804D9013B02E0002300E00023D8B210BDC04610B5064AC8
:401040001368F0218B431360044A1368EF398B43136000F043FD10BD00040240A8020B4010B5064B1968064A0A401A601968054A0A401A6001F0CAF910BDC046000402402D
:40108000FFF0FFFFFF0FFFFF70B50D000C8801F005FA06002100FFF76DFF040001003000FFF7AAFF0001C0B22043287370BDC046024BDB68802018407047C046900100208A
:4010C00010B5164BDB68DB030DD403280DD8430904339B00114A9B581F220240D340DB0705D4012404E0112402E0012400E00024002C11D182001218D300094AD318DB7E8E
:40110000012B04D0022B05D101F092F904E000F0F7FC01E001246442200010BD900100204832000010B50B4BDB68DB030DD40A4B1B78012B05D0022B09D101F0A5F80020EA
:4011400007E000F057FC002003E0112001E00120404210BD900100204401002010B50F4BDB681B0618D400240120404211E02000FFF7A6FF00280BD1022C03D80122084B45
:401180005A7002E00022064B5A70FFF7CBFF04E00134032CEBD900E0112010BD9001002044010020F8B5160083001818C300364A9C58CB00591A8B00E418002561E001F0BD
:4011C00094FD21680B68277E0F22BA4093430B6061680B68A77E0722BA4093430B6001F088FD052E4BD8B300284AD3589F4601F07CFD62681168A77E0623BB400B431360D4
:40120000A1680B68677E0122BA4093430B6001F070FD34E001F069FDA1680B68677E0122BA4093430B6001F064FD28E0200000F0C7FB24E001F059FD22681168277E042321
:40124000BB400B43136062681168A77E0623BB400B43136001F04DFD11E001F046FD22681168277E0623BB400B43136061680B68A77E0722BA4093430B6001F03AFD1C343B
:401280000135002D9BD0F8BD483200007434000010B50400124B1B7883421FD0012B02D1FFF7CCFE03E0022B01D1FFF7D9FE012C05D100F007FA0122094B1A700EE0022C9D
:4012C00005D100F069FE0222054B1A7006E0042C04D0032C02D00022014B1A7010BDC0464401002030B500200D4B16E019680A681C69A2430A605C6822689D7E0721A94014
:401300008A4311000622AA400A43226099680A685C69A2430A601C3301300A28E6D930BD2433000010B51B4A93780133DBB293709078C0B2FFF7C4FE041E09D1154B9B7818
:40134000032B02D10022134B5A70FFF7EBFE1EE0104B9B78032B11D10F4B1A8901321A81DA6880218A43DA60DA681202120ADA60DA6804061443DC60002408E0064AD368F0
:401380001B021B0AD360D16803060B43D360002CC9D110BD440100209001002010B501F00BFB10BD074A084B1A6001380002074B1860054B1B68002BFBDB054A024B1A60B6
:4013C0007047C04640000040000001400003014040FF008070B50400032801D8002500E00125002D12D1A2001219D300084AD318DE7E022E03D12821200000F0BBFE012E86
:4014000004D15521200000F057FC0500280070BD4832000070B50024002504E02000FFF7D9FF05430134032CF8D9280070BDC04670B500251EE0AA005219D3000F4AD3189E
:40144000DB7E012B15D1AB005B19DA000B4BD658002406E0E3001B1B9800301800F01EFB0134AA005219D300044AD3181B7E9C42F0D30135032DDED970BDC046483200001E
:4014800083001818C300024AD3185B6858897047483200000203121A01238B40013B9A4205D90202101A834203D3052002E0062000E00020C0B2704770B50E00FFF7E0FF6D
:4014C00005003188002200F0ADF901002800FFF751FD041E04D168003188FFF7DBFF040021002800FFF788FD0001C0B22043307370BDC04610B5002413E0A2001219D30031
:40150000094AD3185968DB7E012B02D0022B04D006E02000FFF7D0FF02E02000FFF7B4FD0134032CE9D910BD4832000010B5FFF7E1FFFFF7D7FE0020FFF7AAFE002010BD62
:4015400070B501F0D2FB134A1168134B0B40136001F0CFFB01F0C9FB104A13680E218B43136001F0C6FB01F0C0FB0D4C23680D4D2B40DB2212011343236001F0BAFB01202A
:4015800001F07EFB01F0B1FB23681D40256001F0B0FB70BD000402400F00FFFF000404400804044007F0FFFF01390843014B18607047C04600020B4010B50F4B1B68702287
:4015C00093431C000D4B997F0D4801F083FC0D4B984204D820232343074A13600BE0084B984204D830232343034A136003E040232343014A136010BD840000209001002050
:4016000000366E01001BB700034A044B1A60C1225204034B1A60704700008301C0010B40C4010B40074B1A687F210A40064802431A60064A13680B40802109040B43136075
:401640007047C046C0010B4000008301C4010B40064A136806490B431360064A064B1A60C1225204054B1A607047C046A8020B400100001000008301C0010B40C4010B40B1
:4016800070B50E001500038801249C40013CA3001B195800642101F01DFC013083199C4200D22300B04201D8301A00E00020A84203D8AB4203D2062002E0062000E00020F1
:4016C00070BDC04670B5FFF7B3FEFFF739FFC0221203274B1A60274B1968274E314319600024264A1460264A1460264A1460264A1460264A1460264A1460264A1460264DB2
:401700002C60264A1460264A1168F0208143903801431160234A1168802040010143116080214900204A11601A6832431A6080235B041E4A13601E491E4A11601E4A146054
:401740002B60FFF761FF1D4B987FFFF72BFEFFF733FF1B4B1B681B4A13431B4A136001221A4B1A601A4B1C6009321A4B1A6070BD04020B40A8020B4001000010F4000B4086
:40178000B4020B40C0020B4020030B4084010B4088020B4080020B4084020B4080010B400004024094020B40A0020B40A4020B404112000088010B4090020B4090010020E4
:4017C000840000200010008000000B4000030B40F0010B4010030B4070B5050001F085FA0C490B687F26B3430B4A14782D196A7A13430B6001F07DFA01F077FA07490B682C
:40180000B343074A12681419627A13430B6001F070FA70BDC0010B408C340000C4010B404002002010B503001400012088400138002B02D0190001F04DFB053C012C00D8C4
:401840004008002800D1013010BDC04610B50E4B1B78DBB29A00D318DA000C4B9A18536859891B7B18045A1F012A02D8802292041043053BDBB2012B02D8490800D10131FE
:40188000FFF792FE10BDC046460100204832000010B50300408919881A7BFFF7C3FF0004000C014B186010BD14030B4010B50A2001F0AEF801222D4B1A6000232C490B60CE
:4018C0002C490B602C490B6006202C490860FA302B4908602B490A60832149002A4A11602A4A136003222A4B1A60E123DB0100E0013B254A1268520701D4002BF8D1002B42
:4019000002D10822224B1A60832252001E4B1A600A2001F087F80A2001F070F80023184A1360144A1360144A1360144A13605021144A11604F390E4A11600C4A1360154AA8
:401940001368802149040B43136002220F4B1A60E123DB0100E0013B0F4A1268520701D0002BF8D10D4A0A4B1A6010BD80010B408C010B40B0020B40B4020B4088020B40EE
:4019800080020B40F0010B40F0000B40F8000B4040030B4000020B4000000B400103000010B5054AD36805490B43D360172001F067F9FFF77BFF10BD900100208000010061
:4019C00070B50400857E067E01F08FF923681B680F22B24093431A000423B3401343666832680721A9408A4332602268136001F080F970BD70B5194E3378DBB2184D9A00FE
:401A0000D318DA00AA185068164C002323703378DBB29A00D318DA00AA1891682378DBB29A00D3185A008A180F4B1A60FFF7D4FE3378DBB29A00D318DA0050592278D2B25A
:401A4000D3009A1A9300C018084B1860FFF7B8FF074800F0B1FFFFF7A3FF70BD46010020483200004C0100204002002044020020392E000010B583001818C300054A985851
:401A8000CB00591A8B00C018034B1860FFF798FF10BDC046483200004402002070B50400007EA57E21680B680F22824093430B6001F01BF961680B680722AA4093431A0041
:401AC0000623AB4013430B6001F013F9A1680B68607E0122824093430B6070BD10B5064B1B78012B06D1054B1868FFF7D7FF0022014B1A7010BDC0464D0100204402002080
:401B000070B5124C82001218D300E3185D68C0B20F4E30700120FFF7BBFBFFF7DFFF3378DBB29A00D318DA0012590A4B1A600A4BDA687F218A43DA603178DA680A43DA6052
:401B40002800FFF7A5FEFFF781FE70BD4832000046010020440200209001002070B582001218D300134AD3185D68C9B2124C217099682378DBB29A00D3185A008A180F4BEB
:401B80001A60FFF7BDFF2800FFF726FE2378DBB20B49DA00D31A98000B689C4660440860FFF70EFF0122074B1A70074800F004FF70BDC046483200004C01002040020020BB
:401BC000440200204D0100200D2E0000F0B5474680B482B007000E00904630490B78DBB29A00D318DA002E4B9A1853680193002333700878C0B22B4B1978C9B2FFF7AEFF14
:401C0000FFF710FD00248025BC4202D23378AB4333706D0833782B4333700198FFF7DCFDFFF7BEFEE123DB0100E0013B1E4AD268120601D5002BF8D11C4B1B681C88002D44
:401C4000E2D1164B1B78DBB29A00D318DA00144BD058144B1A78D2B2D3009A1A9300C018134B1860FFF71AFF0022124B1A70FFF7EFFC220039000198FFF702FD43461A7810
:401C800033789A4201D242461370084B1B6832785A7202B004BC9046F0BDC04646010020483200004C0100209001002040020020440200204D010020F0B54F4680B484B0A1
:401CC0000400894682001218D300394AD3185F68012003AB18703B88984001384843642101F0F8F80190E2B2324B1A70324800F063FE3E0009360022304B1A7000250AE097
:401D000003AA31000198FFF761FF05432B4A13780133DBB21370A2001219D300244AD3181A7F264B1B78DBB29A42E9D803AB1B7801335B087B720022204B1A7024E0A20008
:401D40001219D3001A4AD3189E681C4B1B78DBB29A00D3185A00B618194B1E60737A787A83420AD31B1AD8B270724B4658436330642101F0AFF8707201E0002373720F4AD8
:401D800013780133DBB21370A2001219D300084AD3181A7F094B1B78DBB29A42CFD80022064B1A70280004B004BC9146F0BDC04648320000460100200D2E00004C0100203B
:401DC0004002002043890288981E504380B2704710B5344B1A68344B1B78D3185B7A334A1343334A13600022324B5A80324A334B1A600122324B1A601123324A13608021D3
:401E00004904314A1160314A13600622304B1A60304A314B1A60314A314B1A60314A324B1A60F0235B0000E0013B2F4A1268D20701D5002BF8D12C4B1B68DB0703D5C22253
:401E40009200294B1A60294BD97F294801F042F8284B984204D9264B984203D8302302E0202300E04023244A1343144A1360234A234B1A60002312490B6012490B6012497B
:401E80000B6023201149086011490B6012490B6013490B60832149001A4B1960124B1A6010BDC046400200208C340000800E4301C0010B40500100202010048000000B407B
:401EC00080010B4080020B4084020B40C0020B4088020B4001010100B0020B4010100000B4020B400303000040030B409001002000366E01001BB70000100C800103000019
:401F00008C010B40F0000B4010B50A2000F080FD83225200154B1A60154B1B689BB2154A5380154B1B689BB25188CB189BB25380518889B213889BB2994202D913889BB259
:401F400053800E4B1B6898470D4BDB681B0609D40C4A0D4B1A60C02292000C4B1A600C4A0C4B1A600A2000F049FD10BDF0000B40D0000B4050010020D4000B4088000020EB
:401F8000900100202010048000000B408C010B40800E4301C0010B4010B5832252004A4B1A600024494B1C60053AFF3A484B1A60484B1C60484B1C60484A494B1A60C02297
:401FC0009200484B1A60484A484B1A60484B1C60484A494B1A605022484B1A60484B1C60484B1C60484B1C60484B1C60484B1C6000F07BFE474A1168474B0B4080214901EF
:402000000B43136000F075FE3222444B1A6080225204434B1A6000F068FE424A1168424B0B40802149050B43136000F062FE3F4B1C603F4B1C6023223E4B1A60223A3E4BB3
:402040001A6003323D4B1A603D4B1C603D4B1C60C22292003C4B1A603C4A3D4B1A60FFF76FFA00F042FE3B4C22683B4B1340236000F03FFE00F039FE2268384B1340236075
:4020800000F037FE00F031FE354C2268354B1340C022D2001343236000F02BFE00F025FE2268314B1340C022D2011343236000F020FE2E4BD87FFFF775F9FFF713F92C48A6
:4020C000FFF76CF910BDC046F0000B40F4000B40F8000B4080010B4084010B40411F000088010B408C010B40800E4301C0010B40C4010B40AA000500F0010B4000020B4027
:4021000004020B4080020B4084020B4088020B4090020B4094020B40FFEFFFFFA0020B40A4020B40A8020B40EEFFFEEEB0020B40B4020B40C0020B4000030B4010030B40CE
:4021400014030B4020030B4040030B402010048000000B40080404403FFEFFFFFFF1FFFF00040240FFF0FFFFFF0FFFFF90010020091F0000F0B54F4680B482B001900E0032
:40218000830084466344DA002B4CA418A36899462A4B4A461A606068FFF714FE284B188018887043642100F095FE0700E37E022B3ED1019B9A009C466244D3001E4AD318F7
:4021C0001A7F5E7F5643002109E01C4A0023106803801368402058720A3313600131B142F3D32024402500E01C000198FEF768FFFEF798FF134BDB681B06FBD40F4B4A4661
:402200001A6000210EE00D4B1B681A88974202D25A7AAA435A725A7A22435A720A33074A13600131B142EED36308DBB2251EDBD102B004BC9146F0BD4832000040020020B9
:40224000500100209001002010B542681168847E0623A3400B43136002681168007E042383400B43136010BD10B541680B68847E0722A24093430B6002681168007E0623F3
:4022800083400B43136010BD10B50022124B1A70124B1B68124A996811605A7F114CA2801A7FE2801968A160D300981A80000818E060FFF7C9FFA068FFF7D6FF0A4A0B4BDC
:4022C0001A600B4AD16880230B43D360172000F0D7FCFFF77DFD10BD4C0100204801002040020020500100203123000088000020900100200268136801698B4313607047DE
:4023000010B50268136801698B43136041680B68847E0722A24093431A000623A34013430B608268136841698B43136010BDC04610B52F4B19682F4B1B782F4C2288608865
:402340005B00121A5A52E068FFF7D4FF2B4A13780133DBB21370A388013B9BB2A380002B0CD0254BD8681C30D860FFF76DFF204A13680A331360FFF72BFD37E01E4AD388D4
:40238000013B9BB2D380002B1DD014009068FFF7B7FFA0681C30A060FFF766FF184B1B685A7FA2801868E0601A7FD3009A1A9300C018E060FFF748FF0D4A13680A33136097
:4023C000FFF706FD12E00C4B9868FFF799FF0D4B1B78002B02D0FEF7A5FF07E00A4B1A8901321A81DA6880218A43DA6010BDC046400200208C340000500100204C01002022
:4024000048010020450100209001002010B5074B1B8A002B08D0054CE068FFF76BFFA068FFF76EFF0023238210BDC0465001002070B50400C2B2124B1A700220FEF728FF2B
:40244000FFF7E4FFA3001C19E2000E4BD3180E4A13605D686C892A880C4B1A602800FFF7B1FC0B4B18802B7B013C2405240D1B041C43084B1C60084BD87FFEF793FF70BDDC
:4024800046010020483200004801002014030B405001002000020B409001002083001818C300024AD3185B685889704748320000F0B50024334B1C700400002600230BE074
:4024C000E588954206D9AE4204D22E4E3371012737702E000A3401338B42F1D3294B1B78002B46D14AE0274FBB181B799E00F61874000519ED88AC465600B61875007D19AF
:4025000066466E81002B12D18D006D186C000A3C0419E6885500AD186C003C19268101339D00EB185D004519EB88A3811FE04D1EEDB2AB420BD10A3C0419E5885400A41849
:402540006300104CE3181D81C4889C810FE00A3C0419E6885500AD186C000A4D2C19268101339D00EB185D004519EB88A381013200E00022034B1B789A42B4D3014B187896
:40258000F0BDC04664010020F0B557464646C0B483B082460F000192984600252DE01B4B5B191C79002C07D16A0052195300174AD31800221A810AE0019B013B9C4206D1D9
:4025C0006A0052195300114AD31800229A816E00721953000D4AD3189A891989501A5B89C9185118784300F0FFFC7C43444400197F30000A534698530135044B1878854226
:40260000CDD303B00CBC90469A46F0BD64010020154A13685B005B081360F8214901134B1960134B13600022124B1A60124B1349196059609960D9601961114858619961E5
:40264000D961802119625A629A62DA621A631A3959639963DA630B4B1A600821FF310A4B19600A4B1A60704700000540740100205F1F000010000540200005401111110089
:40268000090B0900C0000540C4000540F000054010B50E4B1B79002B05D1FFF7B9FF01220A4B1A710BE00A4B1B68002B07DB08490A68084B1340054A126813430B60044A45
:4026C0001368802109060B43136010BD7401002000000540FFE0FFFD0004000C014B18607047C046480106400004000C014B18607047C046540106400004000C014B18604C
:402700007047C0464C01064070B504000D0000F0ECFAAC40024B1C6000F0EBFA70BDC0460800064010B500F0E0FA064A116802230B43136000F0DDFA18210220FFF7E4FFF9
:4027400010BDC04600000640014B18607047C0467801064010B50D4C8423DB042360236823600020FFF7B8FF236823600C22084B1A600120FFF7E8FF3122064B1A6006488B
:40278000FFF7B2FF0548FFF7B7FF10BD400106406401064068010640204E00001027000010B5064B1B78002B04D1FFF7D3FF0122024B1A70FFF7B6FF10BDC04679010020A3
:4027C0000004000C014B18607047C046080106400004000C014B18607047C046140106400004000C014B18607047C0460C01064070B504000D0000F078FAAC40024B1C60DC
:4028000000F077FA70BDC0460800064010B500F06CFA064A116801230B43136000F069FA18210120FFF7E4FF10BDC04600000640014B18607047C0463801064010B50D4C30
:402840008423DB042360236823600020FFF7B8FF236823600C22084B1A600120FFF7E8FF3122064B1A600648FFF7B2FF0548FFF7B7FF10BD00010640240106402801064073
:40288000584D0000AC26000010B5064B1B78002B04D1FFF7D3FF0122024B1A70FFF7B6FF10BDC0467A01002004490A68D2B240239A43800118401043086070470003044008
:4028C00004490A68D2B220239A43400118401043086070470003044004490A68D2B210239A43000118401043086070470003044004490A68D2B210239A43000118401043BF
:40290000086070470002044004490A68D2B208239A43C00018401043086070470002044004490A68D2B204239A43800018401043086070470002044004490A68D2B20223D8
:402940009A434000184010430860704700020440044A1368DBB201218B430840184310607047C04600020440014B98667047C0460000002010B5040000F0B7F9044A116877
:40298000044B0B40A4051C43146000F0B2F910BD08E400E0FFFF3FFF8022D200014B1A607047C04600E100E08022D200014B1A607047C04680E100E010B50400FFF7F4FFEF
:4029C0002000FFF7D1FF0320FFF7D4FFFFF7E4FF10BDC046024A1168024B0B401360704700000740FFFFFFBF034B18688023DB05184000D001207047000007401F2318409D
:402A00001E3B8340014A13607047C04600E100E01F2318401E3B8340014A13607047C04680E100E01F2318401E3B8340014A13607047C04680E200E001BE704770B50400BA
:402A40000D000F2802D90020FFF7F6FF1034A40080239B059C4664442068256070BDC04670B504000E00032902D90020FFF7E4FF0F2C02D90020FFF7DFFF03252540ED007C
:402A8000063500F032F9A408A400074B9C46644421680323AB4099430B003100A9401943216000F026F970BD00E400E010B5040006E0084B586800F00FF9074B9C46644486
:402AC00080231B029C42F4D8024B9868604300F003F910BD8C0000200080FFFF30B583B000F0E6F8002849D000F0FFF80400244B196889001C2319401831224B1B689B089A
:402B000003221340D940204B1A68204B1340204A4A438020C00184466244D20B013A5205520D1343A02252031A431000192902D8184A13430CE0184BCB181B781A39174A9C
:402B4000525C9A18FF2A00D9FF229205030013430D4A1360124D2B680193302000F090F9104A13688021C9050B4313601420FFF79DFF019B2B60200000F0BBF803B030BD74
:402B8000080F0340280003400800074000F800C040420F000000D43FCDF1FF0F903400003000104000000740F0B583B0040018280BD01C2809D0202807D0242805D02828AA
:402BC00003D02C2801D0302849D100F08EF80190FFF70AFF002803D0FFF7FCFE012600E00026214A136807218B4313601F4BE3181B78DBB21E4A13601E4A13688B4313607A
:402C00001D4803687F22934319001C4BE3181B7813400B430360322000F05EF8182C16D9114F3B680725AB431A0023001C3B9B082B4013433B60322000F04EF83A68AA43A9
:402C40002300183B9B082C001C4014433C60012E01D1FFF743FF019800F04BF802E00020FFF7EAFE03B0F0BD080F0340CDF1FF0F0C0F0340100F0340180F0340B4F1FF0F78
:402C800010B5034B1B7B584300F026F810BDC0468C00002010B500F028F8044A136804218B43136030BF00F024F810BD10ED00E0034B1B68002B01DA012000E000207047EB
:402CC00000000740014A024B1A6070476588EDAC38000340000000000230800803D001300238FCD1C046C0467047EFF3108072B6704780F310887047104B1B78DBB29A0013
:402D0000D318DA000E4B9A1853680E4A11680A04120C188801238340013B9A4206D20A4B1A680A4B1B785B00D15205E0064A1168064A127852008B527047C046460100207C
:402D400048320000D0000B40400200208C34000070B5274A1378DBB2264C9900CB18D900611848681378DBB29A00D318DA00A218127E013A204B1B78DBB29A4220D91E4C38
:402D800023780133DBB22370194D2B78DBB29A00D318DA00174B9A1891682378DBB29A00D3185A008A18154B1A60FEF715FD2878C0B22178C9B2FEF75DFEFEF777FD16E0C3
:402DC00000220D4B1A700E4AD1680E4B0B40D3600D4B1B78012B02D1FEF7A4FA07E0084BDA6880218A43DA601A8901321A8170BD46010020483200004C0100204002002078
:402E000090010020FFFFFEFF4501002010B583225200064B1A60FFF76FFF054B1A8901321A81D968034A0A40DA6010BDF0000B40900100207FFFFEFF10B50D4B1B78DBB251
:402E40009A00D318DA000B4BD4580B4B1A78D2B2D1008A1A9300E41883225200074B1A60FFF74AFF2000FEF719FEFFF771FF10BD46010020483200004C010020F0000B4017
:402E800070B50400FFF731FF0500102C05D8104A136803218B43136016E0202C07D80C490B6803229343023A13430B600CE0302C07D807490B6803229343013A13430B60A9
:402EC00002E00020FFF7B8FD2800FFF712FF70BD30001040002243088B4274D303098B425FD3030A8B4244D3030B8B4228D3030C8B420DD3FF22090212BA030C8B4202D391
:402F00001212090265D0030B8B4219D300E0090AC30B8B4201D3CB03C01A5241830B8B4201D38B03C01A5241430B8B4201D34B03C01A5241030B8B4201D30B03C01A5241CB
:402F4000C30A8B4201D3CB02C01A5241830A8B4201D38B02C01A5241430A8B4201D34B02C01A5241030A8B4201D30B02C01A5241CDD2C3098B4201D3CB01C01A52418309E0
:402F80008B4201D38B01C01A524143098B4201D34B01C01A524103098B4201D30B01C01A5241C3088B4201D3CB00C01A524183088B4201D38B00C01A524143088B4201D3F7
:402FC0004B00C01A5241411A00D20146524110467047FFE701B5002000F0F0F802BDC0460029F7D076E7704703460B437FD4002243088B4274D303098B425FD3030A8B4258
:4030000044D3030B8B4228D3030C8B420DD3FF22090212BA030C8B4202D31212090265D0030B8B4219D300E0090AC30B8B4201D3CB03C01A5241830B8B4201D38B03C01ADF
:403040005241430B8B4201D34B03C01A5241030B8B4201D30B03C01A5241C30A8B4201D3CB02C01A5241830A8B4201D38B02C01A5241430A8B4201D34B02C01A5241030A64
:403080008B4201D30B02C01A5241CDD2C3098B4201D3CB01C01A524183098B4201D38B01C01A524143098B4201D34B01C01A524103098B4201D30B01C01A5241C3088B4226
:4030C00001D3CB00C01A524183088B4201D38B00C01A524143088B4201D34B00C01A5241411A00D201465241104670475DE0CA0F00D04942031000D34042534000229C4678
:4031000003098B422DD3030A8B4212D3FC22890112BA030A8B420CD3890192118B4208D3890192118B4204D389013AD0921100E08909C3098B4201D3CB01C01A5241830949
:403140008B4201D38B01C01A524143098B4201D34B01C01A524103098B4201D30B01C01A5241C3088B4201D3CB00C01A524183088B4201D38B00C01A5241D9D243088B425E
:4031800001D34B00C01A5241411A00D20146634652415B10104601D34042002B00D54942704763465B1000D3404201B5002000F005F802BD0029F8D016E770477047C0462D
:4031C000014B18687047C046000100200E4B70B500251E000D4CE41AA410A54204D0AB00F35898470135F8E700F060F9084B00251E00084CE41AA410A54204D0AB00F3581E
:4032000098470135F8E770BDB8340000B8340000B8340000C0340000002310B59A4203D0CC5CC4540133F9E710BD03008218934202D019700133FAE7704700000000000064
:40324000202020202020202024330000B0010020EA010020000000003C01002009280000010001020101000000000000000000005C330000BE010020F40100200000000004
:4032800038010020012800000100010201010000000000000000000094330000CC010020FE010020000000003401002001280000010001020101000000000000000000002F
:4032C000CC330000DA01002008020020000000003001002001280000050002010500640000190000800000004B0096004B4B14021E20500000003200C800646419021E20F0
:40330000500000002800C800646419021E20500000000B002800141405031E2004000000FFFF00000001024008010440000104400401044000000F001000000010040C00DC
:403340000001024008010440000104400401044000F00000080000000C030900000102400801044000010440040104400000F0002000000014050F00000102400801044039
:40338000000104400401044000F00000080000000C030900000102400801044000010440040104400000000F400000001806120000010240080104400001044004010440B4
:4033C00000F00000080000000C030900000002400800044000000440040004400F000000010000000000000000000240080004400000044004000440F00000000200000087
:403400000401030000000240080004400000044004000440000F000004000000080206000000024008000440000004400400044000F00000080000000C03090000000240DB
:403440000800044000000440040004400000000F40000000180612006E0D00002E0D0000380D0000420D0000520D00005C0D0000660D0000EE110000141200007E120000BB
:403480002C120000341200005A12000000000000EEDBC9B9AA9B8E82766B60564D443B332C241D17100A044300000000F8B5C046F8BC08BC9E467047810100007503000041
:4034C000F8B5C046F8BC08BC9E46704759010000E0340000800000208800000040010000000000002000000431230000010000000000E02EC05D00001800000000366E01CE
:403500000000000000000000000000000000000000000000000000000000000000000000A734000000000000000000000000000000000000000000000000000000000000B0
:403540000000000000000000000000000000000000000000000000000000000000000000A0000020000000000000000000000000000000000000000000000000000000008B
:40358000000000000000000000000000000000000000000000000000000000000000000000000000000000000000000000000000000000000000000000000000000000000B
:4035C00000000000000000000000000000000000000000000000000000000000000000000000000000000000000000000000000000000000000000000000000000000000CB
:40360000000000000000000000000000000000000000000000000000000000000000000000000000000000000000000000000000000000000000000000000000000000008A
:40364000000000000000000000000000000000000000000000000000000000000000000000000000000000000000000000000000000000000000000000000000000000004A
:0200000490303A
:02000000893540
:0200000490402A
:200000000000000000000000000000000000000000000000000000000000000000000000E0
:0200000490501A
:0C0000000002190111A9000119119ADE7B
:0200000490600A
:0100000001FE
:00000001FF