:400000000010002011000000310200003102000010B501F099FC00F013F9C04610B51222124B1A60302001F001FCFE221202104B1A60104B104A1A60882189010F4A116089
:400040000F4A1A60E82149010E4A11600E4A1A6000220E4B1A6040320D4B1A6002320D4B1A60013A0C4B1A6010BDC04630001040000301400000014040FF00800803014091
:4000800042FF00800403014041FF00802800034008010140040101400001014010B572B60F4A104B1A60104A104B1A600322104B1A6021320F4B1A600C3A0F4B1A60022390
:4000C0000E4A13600E490F4A11600F4A13600C220E4B1A60FFF7A2FF00F09AF810BDC046EE6006000001024090EE00000003024000010440080104401801044000030440CB
:40010000B06D000008030440180304401804044010B5064C2378002B07D1054B002B02D0044800E000BF0123237010BD0801002000000000781B0000084B10B5002B03D051
:400140000749084800E000BF07480368002B00D110BD064B002BFBD09847F9E7000000000C010020781B0000800000200000000010B5002000F0B2FA43425841C0B201F055
:40018000EBFB10BD10B562B600F0B2F800F054F900F0CCFD00F08CFD002816D100F066F900F0B8FAFFF7E4FF094C0221200000F0BDF85021074800F0B9F8201D032100F0DE
:4001C000B5F800F07BFA00F0B1FD01F0A5FBE1E7840000207C0100200B4B1B68002803D080221206134301E05B005B08064A1360064B1B68002802D02022134301E02022E6
:400200009343024A13607047002002402800034010B580225201044B1A601122034B1A600120FFF7D9FF10BD94020B40C0020B4010B501F063FC03680C2B00D1FEE7FEE72B
:4002400070B50F4E0F4D13E029686B68AC68002202E001C901C30432A242FAD1E868002202E0002102C304328242FAD11035013E002EE9D101F048FCFFF784FFFEE7C046BA
:4002800001000000441C000010B500230AE0032B03D89A000849505800E008489900084A885001331F2BF2D9FFF7F8FE80229205044B1A6010BDC04600000000310200003F
:4002C0000000002008ED00E010B500F08FF810BD10B500F037F810BD10B5044A1368802109060B431360FFF7EFFF10BD0000094010B5064B1B78002B04D1FFF7E9FF0122AC
:40030000024B1A70FFF7E8FF10BDC04624010020044B1B681F221340082BF9D0024B18607047C046080209404002094070B506000D00002403E0305DFFF7EAFF0134AC4261
:40034000F9D370BD154A164B1A600023154A13601549164A1160072215490A6015490A60154A13600121154A11601549154A1160154A13600421154A1160154A1360154A83
:400380001360154A1360154A1360154A1360154A13601268144B1A807047C0460B000002000009404000094001000A00480009400003094004030940100309404400094052
:4003C00007000080000209400402094050000940880E0940C80E0940480F0940080F0940C80F0940880F09402601002005490B68F0229343603A13430B60034B1A88034BBC
:400400001A6070470003024026010020880F094010B5084B1B78002B06D100F013F900F06FF90122034B1A7000F042F800F030FD10BDC0462801002010B5FFF7E9FF041EFB
:4004400002D100F0FDFC0400002C02D100F06EFC0400002C03D100F02BFC0028FBD100F0B3FA00F029FA200010BDC04670B50E4E0025002413E0630904339B000B4A9B586E
:400480001F222240D340DB0707D5300000F058F805003100200000F0A9F820360134002CE9D0280070BDC046801B00007C01002070B5002309E012491A1D92008818002455
:4004C00044600120404250500133002BF3D00D4C012310E06668A27E094B5B1900211976012A06D12069002803D0F179228B01F03AFB20342B005D1E002BEBD170BDC04649
:400500007C010020801B000030B50B88CA889B1A4A880C89121B8C884D89641B934202DB15001A002B00A24200DC14009C4200DB230000220A820279934200DD0B8230BDF6
:40054000F0B583B0C7688468038B4668827E00920022019211E0009A2100380000F00AFB009A2100300000F093FA019021003000FFF7CAFF183424372B005D1E002BEAD1F0
:40058000019803B0F0BDC046F0B50A8B8D684F680B69012125E00C00044003D17E88BA79B21802E07A88BE79921B2E8AB24201D3002200E00A00A24202D01E78013E1E7027
:4005C000A24202D01C78002C07D188431043002A01D1FA7900E001221A704900183501336246541EA446002AD5D1F0BD70B504008A7E134B1B181D7E012A04D12800FFF7CD
:40060000C3FF050002E0002001F090F80C4B1B191D7663091F2214401E3AA240002D07D104339B000649CB1859689143596006E004339B000249CB1859680A435A6070BDED
:400640007C01002070B5194C50220021200001F08AFA174B238090231B016380154BA38009236383083B2377134D20001E30290024310E2201F06EFA2B002C1D012210E0A6
:40068000A268218B08E019785175597891759978D175033318320100481E0029F3D120342A00551E002AEBD170BDC0467C010020C0490000701700007C1B00000123002031
:4006C00006E0131D9B000449CB185B68184313005A1E002BF5D170477C01002000280BD11F23034001229A404009031D9B000348C3185868104000E0002070477C01002017
:400700000023024AD380024A136070477C0100205401002070B500250026414B1B68032B06D101F02EF901223E4BDA8001F02DF93C4BDC88E4B2062C23D8A3003A4AD358B6
:400740009F460122364B1A6001261AE00022344B1A60012615E0FFF76FFE0022304B1A60012501260DE002222D4B1A60012608E000222B4B1A60012603E00322284B1A6017
:400780000026002E0FD001F0FCF8264BDB88DBB29C4205D1234AD188244B0B439BB2D38001F0F3F800261E4B1B68012BB5D0022B33D11C4A4233D35CDBB24521525CD2B2EA
:4007C000002B2AD159011A484118098B8A4224D21449088980B24624095B89B288421CD05B011349CB189C6853009A18D300E41801F0C7F80B4B1A8992B246215A5222886C
:4008000092B202315A52628892B202315A52A28892B202315A5201F0B8F8280070BDC046540100207C010020E81B00000080FFFF801B0000FF231940062902D083180021D9
:4008400019735300195AC318D9808218002393747047C04670B506000D00032305E0220029003000FFF7E6FF23005C1E002BF6D170BDC04610B54001054B1B184A005118DA
:40088000C8009A6894466044997EFFF7E3FF10BD801B000070B505004301064AD3181B8B04E021002800FFF7E5FF23005C1E002BF7D170BD801B000010B5012303E02000FF
:4008C000FFF7E8FF23005C1E002BF8D110BDC04670B5032309E0FF231340062B04D063005E5A1B199D002E5223005C1E002BF2D170BDC046F0B503230CE0FF231340062B82
:4009000007D065006F5A2E19B300C3185F806D5A9D8023005C1E002BEFD1F0BDF0B503230EE0FF231340062B09D065006F5A2E19B300C318DF806E5A1E816D5A5D8123001C
:400940005C1E002BEDD1F0BDF0B5474680B480464301164AD3181B8B22E043465A01134B9B1872009219D4009A6894466444DA6815009F7E062F03D0F3009B199D0055196C
:400980003A0021002800FFF7A3FF3A0021002800FFF7B0FF3A0021002800FFF7BFFF33005E1E002BD9D104BC9046F0BD801B000010B5012303E02000FFF7C6FF23005C1E17
:4009C000002BF8D110BDC04610B5FFF7F1FF10BDF0B5032319E0FF231340062B14D077007B5A9C46BD19AB00C318DC8864441D89AC4664445D896419A40865465D81DD8897
:400A00001D817D5ADD80CC5333005E1E002BE2D1F0BDC046884202D9030008001900914200D91100884200D208007047F0B557464E464546E0B480460E009246032315E0E8
:400A4000FF2352461340062B0FD06F00B85B7B199C00444463889946A2881900FFF7DAFF4B46A380BB5B6380F0532B005D1E002BE6D11CBC90469946A246F0BD984050433E
:400A800080235B009A1A51434018000A7047C046F8B54F464646C0B406000D00914603233EE06300585BEB18D988884205D3431A2A1900279774012201E00B1A0022002AFE
:400AC00011D17779BB420ED92B199B7C327A934205D3220049462800FFF7ACFE1FE02A19013393741BE03779BB4204D97779BB4215D2002A13D1FF234A461340062B0ED01B
:400B000009022B1998461B7B194308230122FFF7B5FF020A6300EB18DA804346187323005C1E002BBDD100200CBC90469946F8BDF0B5474680B407000E009046032313E0AC
:400B4000FF2342461340062B0DD06500A85B2A199300D95B00238022FFF790FF80B22A199300D853A85323005C1E002BE8D104BC9046F0BD70B504000D001600FFF756FF25
:400B8000320029002000FFF7D3FF320029002000FFF71EFF70BDC04670B504000D009F2808D91B4B994205D91A49280000F0A0FF002921D09F2C09D9FF235B009D4205D919
:400BC0001549280000F094FF002917D09F2C07D97E2D05D97F21280000F08AFF00290FD09F2C0FD93E2D0FD93F21280000F080FF00290BD000200AE0042008E0032006E03F
:400C0000022004E0002002E0002000E0012070BDFE030000FF030000FF01000010B54B1EDBB2032B01D8102300E00023002911D0002B11D0642253430100180000F0D2FE58
:400C4000002301E0013340000928FBD90A2804D9013B02E0002300E00023D8B210BDC04610B5064B1968064A0A401A601968054A0A401A6000F0AEFC10BDC0460004024055
:400C8000FFF0FFFFFF0FFFFF70B50D000C8800F0E7FC06002100FFF77FFF040001003000FFF7BCFF0001C0B22043287370BDC046024BDB68802018407047C0467C0100209B
:400CC00010B50E4BDB68DB030DD400280DD1430904339B00094A9B581F220240D340DB0705D4012404E0112402E0012400E00024002C01D100F080FC200010BD7C010020DC
:400D000010B5084BDB68DB0307D4074B1B78022B05D100F087FB002003E0112001E00120404210BD7C0100205801002010B50C4BDB681B0612D40024012040420BE0200072
:400D4000FFF7BEFF002805D10022064B5A70FFF7D7FF04E00134002CF1D000E0112010BD7C0100205801002010B504000D4B1B78834216D0012B03D0022B01D1FFF770FFFD
:400D8000012C0ED0022C05D100F0CCF90222054B1A7006E0042C04D0032C02D00022014B1A7010BD5801002030B500210D4B16E0186802681C69A24302605C6822689D7ED5
:400DC0000720A840824310000622AA4002432260986802685C69A24302601C3301310129E6D930BDB01B00007047C04610B500F067FC10BD074A084B1A6001380002074B51
:400E00001860054B1B68002BFBDB054A024B1A607047C04640000040000001400003014040FF008010B5002801D1002400E00124002C02D1282100F05FFA200010BDC04663
:400E400070B50024002504E02000FFF7EBFF05430134002CF8D0280070BDC046024B18180279024B1A607047580100200C0F034010B5002407E06301044AD31859682000B9
:400E8000FFF702FF0134002CF5D010BD801B000010B5124B1B68DBB2114A1371132B05D8190014315171283393710EE0EB2B06D90B4A190014395171283B937105E0084A04
:400EC00019001439517114339371FFF7D1FFFFF76BFF0220FFF748FF002010BD0C0F03405801002070B500F04CFD134A1168134B0B40136000F049FD00F043FD104A1368AB
:400F00000C218B43136000F040FD00F03AFD0D4C23680D4D2B40D82212011343236000F034FD012000F0EEFC00F02BFD23681D40256000F02AFD70BD00040240FF00FFFF38
:400F400000040440080404403FF0FFFF43890288981E504380B2704710B5344B1A68344B1B78D3185B7D334A1343334A13600022324B1A80324A334B1A600122324B1A60FF
:400F80001123324A136080214904314A1160314A13600622304B1A60304A314B1A60314A314B1A60314A324B1A60F0239B0000E0013B2F4A1268D20701D5002BF8D12C4BFF
:400FC0001B68DB0703D5C2229200294B1A60294B197F294800F006FD284B984204D9284B984203D8302302E0202300E04023254A1343144A1360244A244B1A600023124968
:401000000B6012490B6012490B6023201149086011490B6012490B6013490B60832149001B4B1960124B1A6010BDC046CC01002065010020800E4301C0010B406801002012
:401040002010048000000B4080010B4080020B4084020B40C0020B4088020B4001010100B0020B4010100000B4020B400303000040030B407C010020006CDC02001BB700B7
:4010800000366E0100100C80010300008C010B40F0000B4010B50A2000F03EFB83225200154B1A60154B1B689BB2154A1380154B1B689BB21188CB189BB21380118889B26D
:4010C00053889BB2994202D953889BB213800E4B1B6898470D4BDB681B0609D40C4A0D4B1A60C02292000C4B1A600C4A0C4B1A600A2000F007FB10BDF0000B40D0000B4030
:4011000068010020D4000B408C0000207C0100202010048000000B408C010B40800E4301C0010B4010B583225200494B1A600024484B1C60053AFF3A474B1A60474B1C607A
:40114000474B1C60474A484B1A60C0229200474B1A60474A474B1A60474A484B1A60A022474B1A60474B1C60474B1C60474B1C60474B1C60474B1C6000F003FC464A1168FC
:40118000464B0B40802149010B43136000F0FDFB3222434B1A6080225204424B1A6000F0F0FB414A1168414B0B40802149050B43136000F0EAFB3E4B1C603E4B1C602322DA
:4011C0003D4B1A60143A3D4B1A600B3A3C4B1A603C4B1C603C4B1C60C22292003B4B1A603B4A3C4B1A60FFF77DFE00F0CAFB3A4C22683A4B1340236000F0C7FB00F0C1FB66
:401200002268374B1340236000F0BFFB00F0B9FB344C2268344B1340C022D2001343236000F0B3FB00F0ADFB2268304B1340C022D2011343236000F0A8FB2D4B187FFFF761
:40124000D9FDFFF7B1FD2B48FFF7D0FD10BDC046F0000B40F4000B40F8000B4080010B4084010B40411F000088010B408C010B40800E4301C0010B40AA000500F0010B40BD
:4012800000020B4004020B4080020B4084020B4088020B4090020B4094020B40FFEFFFFFA0020B40A4020B40A8020B40EEFFFEEEB0020B40B4020B40C0020B4000030B406E
:4012C00010030B4014030B4020030B4040030B402010048000000B40080404403FFEFFFFFFF1FFFF00040240FFF0FFFFFF0FFFFF7C01002095100000F0B5474680B482B0A1
:4013000001900E004301334CE418A3689846324B42461A606068FFF719FE304B588058887043642100F05EFB0600E37E227F5A43150000240EE0284A002013681880136872
:40134000402159755880136898809975D975183313600134AC42EED32024402700E01C000198FFF7ADFCFFF7CBFC1D4BDB681B06FBD4194B42461A60002120E0164B1B6833
:401380001A88964202D25A7DBA435A755A7D22435A755A88964202D29A7DBA439A759A88964202D2DA7DBA43DA759A7D22439A75DA7D2243DA751833074A13600131A9424D
:4013C000DCD36308DBB2271EC9D102B004BC9046F0BDC046801B0000CC010020680100207C01002010B542681168847E0623A3400B43136002681168007E042383400B436E
:40140000136010BD10B541680B68847E0722A24093430B6002681168007E062383400B43136010BD70B50025134B1D70134B1B68134A996811601A7F124CA280DA7EE280AA
:401440001968A160D300981A80000818E060FFF7C9FFA068FFF7D6FF0B4A0C4B1A600C4B1D700C4AD16880230B43D3600A2000F049FAFFF771FD70BD640100206001002043
:40148000CC01002068010020D51400008C000020650100207C0100200268136801698B431360704710B50268136801698B43136041680B68847E0722A24093431A00062320
:4014C000A34013430B608268136841698B43136010BDC04610B5384B1C6838490B783848428800885B00121A1A530878012807D80130C0B20870FFF7B1FCFFF72DFD59E0F0
:4015000000222E4B1A700020FFF7A8FC2C4CE068FFF7C2FF2B4A13780133DBB21370A388013B9BB2A380002B0CD0254BD8681C30D860FFF757FF204A136818331360FFF71A
:401540000BFD37E01E4AD388013B9BB2D380002B1DD014009068FFF7A5FFA0681C30A060FFF750FF184B1B681A7FA2801868E060DA7ED3009A1A9300C018E060FFF732FF44
:401580000D4A136818331360FFF7E6FC12E00C4B9868FFF787FF0D4B1B78002B02D0FFF723FC07E00A4B1A8901321A81DA6880218A43DA6010BDC046CC0100206501002024
:4015C000680100206401002060010020590100207C01002010B5074B1B8A002B08D0054CE068FFF759FFA068FFF75CFF0023238210BDC0466801002070B50400C2B2114B29
:401600001A700220FFF7B0FBFFF7E4FF60010E4BC0180E4B186045686C892A880C4B1A602800FFF793FC0B4B58802B7B013C2405240D1B041C43084B1C60084B187FFFF7B7
:40164000D9FB70BD5F010020801B00006001002014030B406801002000020B407C0100204001024B1818436858897047801B0000014B98667047C0460000002010B504006C
:4016800000F07FF9044A1168044B0B40A4051C43146000F07AF910BD08E400E0FFFF3FFF8022D200014B1A607047C04600E100E08022D200014B1A607047C04680E100E0BD
:4016C00010B50400FFF7F4FF2000FFF7D1FF0320FFF7D4FFFFF7E4FF10BDC046024A1168024B0B401360704700000740FFFFFFBF034B18688023DB05184000D001207047DF
:40170000000007401F2318401E3B8340014A13607047C04600E100E01F2318401E3B8340014A13607047C04680E100E001BE704710B5040006E0084B586800F019F9074B72
:401740009C46644480231B029C42F4D8024B9868604300F00DF910BD900000200080FFFF30B583B000F0E6F8002849D000F009F90400244B196889001C2319401831224BB0
:401780001B689B0803221340D940204B1A68204B1340204A4A438020C00184466244D20B013A5205520D1343A02252031A431000192902D8184A13430CE0184BCB181B78BE
:4017C0001A39174A525C9A18FF2A00D9FF229205030013430D4A1360124D2B680193302000F0D6F8104A13688021C9050B4313601420FFF79DFF019B2B60200000F0C5F8A5
:4018000003B030BD080F0340280003400800074000F800C040420F000000D43FCDF1FF0F041C00003000104000000740F0B583B0040018280BD01C2809D0202807D0242866
:4018400005D0282803D02C2801D0302849D100F098F80190FFF74CFF002803D0FFF73EFF012600E00026214A136807218B4313601F4BE3181B78DBB21E4A13601E4A13689A
:401880008B4313601D4803687F22934319001C4BE3181B7813400B430360322000F068F8182C16D9114F3B680725AB431A0023001C3B9B082B4013433B60322000F058F877
:4018C0003A68AA432300183B9B082C001C4014433C60012E01D1FFF743FF019800F055F802E00020FFF722FF03B0F0BD080F0340CDF1FF0F0C0F0340100F0340180F0340ED
:40190000B4F1FF0F10B5034B1B7B584300F030F810BDC0469000002010B500F032F8044A136804218B43136030BF00F02EF810BD10ED00E0034B1B68002B01DA012000E080
:401940000020704700000740014A024B1A6070476588EDAC3800034004490A68D2B210239A4300011840104308607047000304400230800803D001300238FCD1C046C04649
:401980007047EFF3108072B6704780F31088704770B50400FFF7F5FF0500102C05D8104A136803218B43136016E0202C07D80C490B6803229343023A13430B600CE0302CC9
:4019C00007D807490B6803229343013A13430B6002E00020FFF7AAFE2800FFF7D6FF70BD30001040002243088B4274D303098B425FD3030A8B4244D3030B8B4228D3030CAC
:401A00008B420DD3FF22090212BA030C8B4202D31212090265D0030B8B4219D300E0090AC30B8B4201D3CB03C01A5241830B8B4201D38B03C01A5241430B8B4201D34B0321
:401A4000C01A5241030B8B4201D30B03C01A5241C30A8B4201D3CB02C01A5241830A8B4201D38B02C01A5241430A8B4201D34B02C01A5241030A8B4201D30B02C01A52412F
:401A8000CDD2C3098B4201D3CB01C01A524183098B4201D38B01C01A524143098B4201D34B01C01A524103098B4201D30B01C01A5241C3088B4201D3CB00C01A52418308C0
:401AC0008B4201D38B00C01A524143088B4201D34B00C01A5241411A00D20146524110467047FFE701B5002000F006F802BDC0460029F7D076E770477047C046014B186899
:401B00007047C046040100200E4B70B500251E000D4CE41AA410A54204D0AB00F35898470135F8E700F07CF8084B00251E00084CE41AA410A54204D0AB00F358984701358C
:401B4000F8E770BD2C1C00002C1C00002C1C0000341C0000002310B59A4203D0CC5CC4540133F9E710BD03008218934202D019700133FAE770470000000000002020200080
:401B8000B01B00009A010020A80100202C010020500100200128000001000101010000004B0096004B4B14021E00A000000000000001024008010440000104400401044082
:401BC00000000F001000000010040C000001024008010440000104400401044000F00000080000000C03090082070000420700004C07000056070000660700007007000012
:401C00007A070000EEDBC9B9AA9B8E82766B60564D443B332C241D17100A044300000000F8B5C046F8BC08BC9E4670473901000089020000F8B5C046F8BC08BC9E467047B7
:401C400011010000581C00008000002088000000D000000000000000000000000D0A000000FFFF00D5140000010000000000C05D80BB000030000000006CDC020000000015
:401C8000000000000000000000000000000000000000000000000000000000001B1C00000000000000000000000000000000000000000000000000000000000000000000ED
:401CC00000000000000000000000000000000000000000000000000000000000A4000020000000000000000000000000000000000000000000000000000000000000000020
:401D000000000000000000000000000000000000000000000000000000000000000000000000000000000000000000000000000000000000000000000000000000000000A3
:401D40000000000000000000000000000000000000000000000000000000000000000000000000000000000000000000000000000000000000000000000000000000000063
:401D80000000000000000000000000000000000000000000000000000000000000000000000000000000000000000000000000000000000000000000000000000000000023
:401DC00000000000000000000000000000000000000000000000000000000000000000000000000000000000000000000000000000000000000000000000000000000000E3
:0200000490303A
:02000000365B6D
:0200000490402A
:200000000000000000000000000000000000000000000000000000000000000000000000E0
:0200000490501A
:0C0000000002190111A90001190A4804AE
:0200000490600A
:0100000001FE
:00000001FF