:400000000010002011000000A5020000A502000010B501F01DFD00F04DF9C04610B51222124B1A60302001F085FCFE221202104B1A60104B104A1A60882189010F4A11605E
:400040000F4A1A60E82149010E4A11600E4A1A6000220E4B1A6040320D4B1A6002320D4B1A60013A0C4B1A6010BDC04630001040000301400000014040FF00800803014091
:4000800042FF00800403014041FF00802800034008010140040101400001014010B572B6144A154B1A60EE22144B1A60144A154B1A603E22144B1A608132144B1A60BC3A39
:4000C000134B1A602132134B1A609332FF32124B1A600223114A13601149124A1160124A13600C22114B1A60FFF798FF00F0CAF810BDC0466666666000000240000102401A
:4001000090EE000000030240000004401800044000010440080104400802044000030440B06D1B0008030440180304401804044010B5064C2378002B07D1054B002B02D0ED
:40014000044800E000BF0123237010BD0801002000000000F81C0000084B10B5002B03D00749084800E000BF07480368002B00D110BD064B002BFBD09847F9E700000000F5
:400180000C010020F81C0000800000200000000010B5002000F0E0FA43425841C0B201F09BFC012000F0D8FA43425841C0B201F057FC022000F0D0FA43425841C0B201F083
:4001C0005BFC032000F0C8FA43425841C0B201F077FC042000F0C0FA43425841C0B201F057FC052000F0B8FA43425841C0B201F05BFC10BD10B562B600F0B4F800F056F919
:4002000000F0D6FD00F096FD002817D100F068F900F0BEFAFFF7BCFF0A4C0221200000F0BFF888214900084800F0BAF8201D032100F0B6F800F080FA00F0BAFD01F0F0FBAE
:40024000E0E7C04684000020440200200B4B1B68002803D080221206134301E05B005B08064A1360064B1B68002802D02022134301E020229343024A13607047002002402A
:400280002800034010B580225201044B1A601122034B1A600120FFF7D9FF10BD94020B40C0020B4010B501F0E9FC03680C2B00D1FEE7FEE770B50F4E0F4D13E029686B689E
:4002C000AC68002202E001C901C30432A242FAD1E868002202E0002102C304328242FAD11035013E002EE9D101F0CEFCFFF782FFFEE7C04601000000D01F000010B5002313
:400300000AE0032B03D89A000849505800E008489900084A885001331F2BF2D9FFF7BEFE80229205044B1A6010BDC04600000000A50200000000002008ED00E010B500F023
:400340008FF810BD10B500F037F810BD10B5044A1368802109060B431360FFF7EFFF10BD0000094010B5064B1B78002B04D1FFF7E9FF0122024B1A70FFF7E8FF10BDC0464E
:4003800024010020044B1B681F221340082BF9D0024B18607047C046080209404002094070B506000D00002403E0305DFFF7EAFF0134AC42F9D370BD154A164B1A60002312
:4003C000154A13601549164A1160072215490A6015490A60154A13600121154A11601549154A1160154A13600421154A1160154A1360154A1360154A1360154A1360154AE3
:400400001360154A13601268144B1A807047C0460B000002000009404000094001000A00480009400003094004030940100309404400094007000080000209400402094026
:4004400050000940880E0940C80E0940480F0940080F0940C80F0940880F09402601002005490B68F0229343603A13430B60034B1A88034B1A60704700030240260100209F
:40048000880F094010B5084B1B78002B06D100F013F900F073F90122034B1A7000F042F800F078FD10BDC0462801002010B5FFF7E9FF041E02D100F045FD0400002C02D1E4
:4004C00000F076FC0400002C03D100F033FC0028FBD100F0BBFA00F031FA200010BDC04670B50E4E0024002513E06B0904339B000B4A9B581F222A40D340DB0707D53000D9
:4005000000F058F804003100280000F0A9F820360135052DE9D9200070BDC046101D00004402002070B5002309E012491A1D92008818002444600120404250500133002BC8
:40054000F3D00D4C062310E06668A27E094B5B1900211976012A06D12069002803D0F179228B01F0C0FB20342B005D1E002BEBD170BDC04644020020101D000030B50B8878
:40058000CA889B1A4A880C89121B8C884D89641B934202DB15001A002B00A24200DC14009C4200DB230000220A820279934200DD0B8230BDF0B583B0C7688468038B4668F7
:4005C000827E00920022019211E0009A2100380000F012FB009A2100300000F09BFA019021003000FFF7CAFF183424372B005D1E002BEAD1019803B0F0BDC046F0B50A8B56
:400600008D684F680B69012125E00C00044003D17E88BA79B21802E07A88BE79921B2E8AB24201D3002200E00A00A24202D01E78013E1E70A24202D01C78002C07D18843C6
:400640001043002A01D1FA7900E001221A704900183501336246541EA446002AD5D1F0BD70B504008A7E134B1B181D7E012A04D12800FFF7C3FF050002E0002001F0DAF8D9
:400680000C4B1B191D7663091F2214401E3AA240002D07D104339B000649CB1859689143596006E004339B000249CB1859680A435A6070BD4402002070B51A4C88225200C2
:4006C0000021200001F00FFB174B238090231B016380164BA3800923E38301221733E2542000223053321249543101F0F3FA114A14001434062310E0A368218B08E01178A1
:400700005975517899759178D975033218330100481E0029F3D120342B005D1E002BEBD170BDC0464402002028A6FFFF701700007C1D0000FC1C00000123002006E0131D11
:400740009B000449CB185B68184313005A1E002BF5D170474402002005280BD81F23034001229A404009031D9B000348C3185868104000E000207047440200200023024A9F
:40078000D380024A13607047440200201C02002070B500250026434B1B68032B06D101F0B0F90122404BDA8001F0AFF93E4BDC88E4B2062C23D8A3003C4AD3589F460122FF
:4007C000384B1A6001261AE00022364B1A60012615E0FFF76BFE0022324B1A60012501260DE002222F4B1A60012608E000222D4B1A60012603E003222A4B1A600026002E43
:400800000FD001F07EF9284BDB88DBB29C4205D1254AD188264B0B439BB2D38001F075F90026204B1B68012BB5D0022B37D11E4A0533FF33D35CDBB20821FF31525CD2B2C1
:40084000052B2CD859011B484118098B8A4226D21549088980B284246400095B89B288421DD05B011349CB189C6853009A18D300E41801F046F90C4B1A8992B28421490084
:400880005A52228892B202315A52628892B202315A52A28892B202315A5201F036F9280070BDC0461C02002044020020741F00000080FFFF101D0000FF231940062902D08C
:4008C0008318002119735300195AC318D9808218002393747047C04670B506000D00032305E0220029003000FFF7E6FF23005C1E002BF6D170BDC04610B54001054B1B1851
:400900004A005118C8009A6894466044997EFFF7E3FF10BD101D000070B505004301064AD3181B8B04E021002800FFF7E5FF23005C1E002BF7D170BD101D000010B50623A5
:4009400003E02000FFF7E8FF23005C1E002BF8D110BDC04670B5032309E0FF231340062B04D063005E5A1B199D002E5223005C1E002BF2D170BDC046F0B503230CE0FF2382
:400980001340062B07D065006F5A2E19B300C3185F806D5A9D8023005C1E002BEFD1F0BDF0B503230EE0FF231340062B09D065006F5A2E19B300C318DF806E5A1E816D5A19
:4009C0005D8123005C1E002BEDD1F0BDF0B5474680B480464301164AD3181B8B22E043465A01134B9B1872009219D4009A6894466444DA6815009F7E062F03D0F3009B19F6
:400A00009D0055193A0021002800FFF7A3FF3A0021002800FFF7B0FF3A0021002800FFF7BFFF33005E1E002BD9D104BC9046F0BD101D000010B5062303E02000FFF7C6FF91
:400A400023005C1E002BF8D110BDC04610B5FFF7F1FF10BDF0B5032319E0FF231340062B14D077007B5A9C46BD19AB00C318DC8864441D89AC4664445D896419A4086546BC
:400A80005D81DD881D817D5ADD80CC5333005E1E002BE2D1F0BDC046884202D9030008001900914200D91100884200D208007047F0B557464E464546E0B480460E00924640
:400AC000032315E0FF2352461340062B0FD06F00B85B7B199C00444463889946A2881900FFF7DAFF4B46A380BB5B6380F0532B005D1E002BE6D11CBC90469946A246F0BD0E
:400B00009840504380235B009A1A51434018000A7047C046F8B54F464646C0B406000D00914603233EE06300585BEB18D988884205D3431A2A1900279774012201E00B1A5E
:400B40000022002A11D17779BB420ED92B199B7C327A934205D3220049462800FFF7ACFE1FE02A19013393741BE03779BB4204D97779BB4215D2002A13D1FF234A4613405D
:400B8000062B0ED009022B1998461B7B194308230122FFF7B5FF020A6300EB18DA804346187323005C1E002BBDD100200CBC90469946F8BDF0B5474680B407000E00904636
:400BC000032313E0FF2342461340062B0DD06500A85B2A199300D95B00238022FFF790FF80B22A199300D853A85323005C1E002BE8D104BC9046F0BD70B504000D001600D7
:400C0000FFF756FF320029002000FFF7D3FF320029002000FFF71EFF70BDC04670B504000D009F2808D91B4B994205D91A49280001F01EF8002921D09F2C09D9FF235B0092
:400C40009D4205D91549280001F012F8002917D09F2C07D97E2D05D97F21280001F008F800290FD09F2C0FD93E2D0FD93F21280000F0FEFF00290BD000200AE0042008E09C
:400C8000032006E0022004E0002002E0002000E0012070BDFE030000FF030000FF01000010B54B1EDBB2032B01D8102300E00023002911D0002B11D064225343010018008F
:400CC00000F050FF002301E0013340000928FBD90A2804D9013B02E0002300E00023D8B210BDC04610B5064B1968064A0A401A601968054A0A401A6000F0EEFC10BDC0469C
:400D000000040240FFF0FFFFFF0FFFFF70B50D000C8800F029FD06002100FFF77FFF040001003000FFF7BCFF0001C0B22043287370BDC046024BDB68802018407047C0462E
:400D40004402002010B50E4BDB68DB030DD405280DD8430904339B00094A9B581F220240D340DB0705D4012404E0112402E0012400E00024002C01D100F0C0FC200010BD46
:400D80004402002010B5084BDB68DB0307D4074B1B78022B05D100F0C7FB002003E0112001E00120404210BD440200202002002010B50F4BDB681B0618D4002401204042BC
:400DC00011E02000FFF7BEFF00280BD1042C03D80122084B5A7002E00022064B5A70FFF7D1FF04E00134052CEBD900E0112010BD440200202002002010B504000D4B1B78B3
:400E0000834216D0012B03D0022B01D1FFF76AFF012C0ED0022C05D100F006FA0222054B1A7006E0042C04D0032C02D00022014B1A7010BD2002002030B500200D4B16E068
:400E400019680A681C69A2430A605C6822689D7E0721A9408A4311000622AA400A43226099680A685C69A2430A601C3301300B28E6D930BD241E000010B51B4A93780133E1
:400E8000DBB293709078C0B2FFF75CFF041E09D1154B9B78052B02D10022134B5A70FFF771FF1EE0104B9B78052B11D10F4B1A8901321A81DA6880218A43DA60DA6812022C
:400EC000120ADA60DA6804061443DC60002408E0064AD3681B021B0AD360D16803060B43D360002CC9D110BD200200204402002010B500F069FC10BD074A084B1A60013875
:400F00000002074B1860054B1B68002BFBDB054A024B1A607047C04640000040000001400003014040FF008010B5052801D8002400E00124002C02D1282100F05FFA2000D5
:400F400010BDC04670B50024002504E02000FFF7EBFF05430134052CF8D9280070BDC046024B18180279024B1A607047200200200C0F034010B5002407E06301044AD318EF
:400F800059682000FFF7C2FE0134052CF5D910BD101D000010B5124B1B68DBB2114A1371132B05D8190014315171283393710EE0EB2B06D90B4A190014395171283B9371FA
:400FC00005E0084A19001439517114339371FFF7D1FFFFF731FF0220FFF70EFF002010BD0C0F03402002002070B500F08AFD134A1168134B0B40136000F087FD00F081FD39
:40100000104A13680C218B43136000F07EFD00F078FD0D4C23680D4D2B40D82212011343236000F072FD012000F0F0FC00F069FD23681D40256000F068FD70BD0004024027
:40104000FF00FFFF00040440080404403FF0FFFF43890288981E504380B2704710B5344B1A68344B1B78D3185B7D334A1343334A13600022324B1A80324A334B1A600122F8
:40108000324B1A601123324A136080214904314A1160314A13600622304B1A60304A314B1A60314A314B1A60314A324B1A60F0239B0000E0013B2F4A1268D20701D5002B47
:4010C000F8D12C4B1B68DB0703D5C2229200294B1A602023284AD15C284800F043FD284B984204D9274B984203D8302302E0202300E04023244A1343134A1360234A244B11
:401100001A60002311490B6011490B6011490B6023201149086011490B6012490B6013490B60832149001B4B1960124B1A6010BD540300202D020020800E4301C0010B4058
:40114000300200202010048000000B4080010B4080020B4084020B40C0020B4088020B4001010100B0020B4010100000B4020B400303000040030B4044020020006CDC026D
:40118000001BB70000366E0100100C80010300008C010B40F0000B4010B50A2000F040FB83225200154B1A60154B1B689BB2154A1380154B1B689BB21188CB189BB213806C
:4011C000118889B253889BB2994202D953889BB213800E4B1B6898470D4BDB681B0609D40C4A0D4B1A60C02292000C4B1A600C4A0C4B1A600A2000F009FB10BDF0000B4074
:40120000D0000B4030020020D4000B408C000020440200202010048000000B408C010B40800E4301C0010B4010B583225200494B1A600024484B1C60053AFF3A474B1A60DA
:40124000474B1C60474B1C60474A484B1A60C0229200474B1A60474A474B1A60474A484B1A60A022474B1A60474B1C60474B1C60474B1C60474B1C60474B1C6000F041FCB8
:40128000464A1168464B0B40802149010B43136000F03BFC3222434B1A6080225204424B1A6000F02EFC414A1168414B0B40802149050B43136000F028FC3E4B1C603E4BD4
:4012C0001C6023223D4B1A60143A3D4B1A600B3A3C4B1A603C4B1C603C4B1C60C22292003B4B1A603B4A3C4B1A60FFF77DFE00F008FC3A4C22683A4B1340236000F005FCD2
:4013000000F0FFFB2268374B1340236000F0FDFB00F0F7FB344C2268344B1340C022D2001343236000F0F1FB00F0EBFB2268304B1340C022D2011343236000F0E6FB202302
:401340002C4AD05CFFF7D8FDFFF776FD2A48FFF7CFFD10BDF0000B40F4000B40F8000B4080010B4084010B40411F000088010B408C010B40800E4301C0010B40AA000500A4
:40138000F0010B4000020B4004020B4080020B4084020B4088020B4090020B4094020B40FFEFFFFFA0020B40A4020B40A8020B40EEFFFEEEB0020B40B4020B40C0020B407F
:4013C00000030B4010030B4014030B4020030B4040030B402010048000000B40080404403FFEFFFFFFF1FFFF00040240FFF0FFFFFF0FFFFF4402002099110000F0B54746EA
:4014000080B482B001900E004301334CE418A3689846324B42461A606068FFF719FE304B588058887043642100F09CFB0600E37E227F5A43150000240EE0284A00201368E0
:4014400018801368402159755880136898809975D975183313600134AC42EED32024402700E01C000198FFF76DFCFFF78BFC1D4BDB681B06FBD4194B42461A60002120E083
:40148000164B1B681A88964202D25A7DBA435A755A7D22435A755A88964202D29A7DBA439A759A88964202D2DA7DBA43DA759A7D22439A75DA7D2243DA751833074A136085
:4014C0000131A942DCD36308DBB2271EC9D102B004BC9046F0BDC046101D000054030020300200204402002010B542681168847E0623A3400B43136002681168007E0423B3
:4015000083400B43136010BD10B541680B68847E0722A24093430B6002681168007E062383400B43136010BD70B50025134B1D70134B1B68134A996811601A7F124CA28052
:40154000DA7EE2801968A160D300981A80000818E060FFF7C9FFA068FFF7D6FF0B4A0C4B1A600C4B1D700C4AD16880230B43D3600A2000F04BFAFFF771FD70BD2C0200203E
:40158000280200205403002030020020D91500008C0000202D020020440200200268136801698B431360704710B50268136801698B43136041680B68847E0722A24093432E
:4015C0001A000623A34013430B608268136841698B43136010BDC04610B5384B1C6838490B783848428800885B00121A1A530878012807D80130C0B20870FFF7B1FCFFF70F
:401600002DFD59E000222E4B1A700020FFF7A8FC2C4CE068FFF7C2FF2B4A13780133DBB21370A388013B9BB2A380002B0CD0254BD8681C30D860FFF757FF204A136818331F
:401640001360FFF70BFD37E01E4AD388013B9BB2D380002B1DD014009068FFF7A5FFA0681C30A060FFF750FF184B1B681A7FA2801868E060DA7ED3009A1A9300C018E06001
:40168000FFF732FF0D4A136818331360FFF7E6FC12E00C4B9868FFF787FF0D4B1B78002B02D0FFF7E9FB07E00A4B1A8901321A81DA6880218A43DA6010BDC0465403002033
:4016C0002D020020300200202C02002028020020210200204402002010B5074B1B8A002B08D0054CE068FFF759FFA068FFF75CFF0023238210BDC0463002002070B50400F3
:40170000C2B2124B1A700220FFF776FBFFF7E4FF60010F4BC0180F4B186045686C892A880D4B1A602800FFF793FC0C4B58802B7B013C2405240D1B041C43094B1C602023B7
:40174000084AD05CFFF7D8FB70BDC04622020020101D00002802002014030B403002002000020B40440200204001024B1818436858897047101D0000014B98667047C04698
:401780000000002010B5040000F0BBF9044A1168044B0B40A4051C43146000F0B6F910BD08E400E0FFFF3FFF8022D200014B1A607047C04600E100E08022D200014B1A6059
:4017C0007047C04680E100E010B50400FFF7F4FF2000FFF7D1FF0320FFF7D4FFFFF7E4FF10BDC046024A1168024B0B401360704700000740FFFFFFBF034B18688023DB05E0
:40180000184000D001207047000007401F2318401E3B8340014A13607047C04600E100E01F2318401E3B8340014A13607047C04680E100E001BE704710B5040006E0084B85
:40184000586800F055F9074B9C46644480231B029C42F4D8024B9868604300F049F910BD900000200080FFFF30B583B000F0E6F8002849D000F045F90400244B1968890035
:401880001C2319401831224B1B689B0803221340D940204B1A68204B1340204A4A438020C00184466244D20B013A5205520D1343A02252031A431000192902D8184A134334
:4018C0000CE0184BCB181B781A39174A525C9A18FF2A00D9FF229205030013430D4A1360124D2B680193302000F012F9104A13688021C9050B4313601420FFF79DFF019BFA
:401900002B60200000F001F903B030BD080F0340280003400800074000F800C040420F000000D43FCDF1FF0F901F00003000104000000740F0B583B0040018280BD01C2885
:4019400009D0202807D0242805D0282803D02C2801D0302849D100F0D4F80190FFF74CFF002803D0FFF73EFF012600E00026214A136807218B4313601F4BE3181B78DBB2D7
:401980001E4A13601E4A13688B4313601D4803687F22934319001C4BE3181B7813400B430360322000F0A4F8182C16D9114F3B680725AB431A0023001C3B9B082B401343A9
:4019C0003B60322000F094F83A68AA432300183B9B082C001C4014433C60012E01D1FFF743FF019800F091F802E00020FFF722FF03B0F0BD080F0340CDF1FF0F0C0F034013
:401A0000100F0340180F0340B4F1FF0F10B5034B1B7B584300F06CF810BDC0469000002010B500F06EF8044A136804218B43136030BF00F06AF810BD10ED00E0034B1B6806
:401A4000002B01DA012000E00020704700000740014A024B1A6070476588EDAC3800034004490A68D2B220239A43400118401043086070470003044004490A68D2B210234C
:401A80009A43000118401043086070470003044004490A68D2B202239A43400018401043086070470002044004490A68D2B204239A438000184010430860704700020440CB
:401AC000044A1368DBB201218B430840184310607047C0460002044004490A68D2B240239A4380011840104308607047000304400230800803D001300238FCD1C046C046A4
:401B00007047EFF3108072B6704780F31088704770B50400FFF7F5FF0500102C05D8104A136803218B43136016E0202C07D80C490B6803229343023A13430B600CE0302C47
:401B400007D807490B6803229343013A13430B6002E00020FFF76EFE2800FFF7D6FF70BD30001040002243088B4274D303098B425FD3030A8B4244D3030B8B4228D3030C66
:401B80008B420DD3FF22090212BA030C8B4202D31212090265D0030B8B4219D300E0090AC30B8B4201D3CB03C01A5241830B8B4201D38B03C01A5241430B8B4201D34B03A0
:401BC000C01A5241030B8B4201D30B03C01A5241C30A8B4201D3CB02C01A5241830A8B4201D38B02C01A5241430A8B4201D34B02C01A5241030A8B4201D30B02C01A5241AE
:401C0000CDD2C3098B4201D3CB01C01A524183098B4201D38B01C01A524143098B4201D34B01C01A524103098B4201D30B01C01A5241C3088B4201D3CB00C01A524183083E
:401C40008B4201D38B00C01A524143088B4201D34B00C01A5241411A00D20146524110467047FFE701B5002000F006F802BDC0460029F7D076E770477047C046014B186817
:401C80007047C046040100200E4B70B500251E000D4CE41AA410A54204D0AB00F35898470135F8E700F082F9084B00251E00084CE41AA410A54204D0AB00F3589847013504
:401CC000F8E770BDB81F0000B81F0000B81F0000C01F0000002310B59A4203D0CC5CC4540133F9E710BD03008218934202D019700133FAE7704700000000000020202020A3
:401D000020202020202020202020202020200000241E000066020020BA020020E0010020180200200928000001000101010000005C1E000074020020D2020020BC010020EC
:401D400014020020012800000100010101000000941E000082020020EA0200209801002010020020012800000100010101000000CC1E000090020020020300207401002030
:401D80000C020020012800000100010101000000041F00009E0200201A03002050010020080200200128000001000101010000003C1F0000AC020020320300202C01002015
:401DC000040200200128000001000101010000004B002C014B4B14021E00A000000064002C0128280A031E00A000000064002C0128280A031E00A000000064002C01282875
:401E00000A031E00A000000064002C0128280A031E00A000000064002C0128280A031E00A0000000000002400800044000000440040004400F000000010000000000000055
:401E400000000240080004400000044004000440000000F0800000001C07150000000240080004400000044004000440F000000002000000040103000000024008000440FE
:401E80000000044004000440000000F0800000001C07150000000240080004400000044004000440000F000004000000080206000000024008000440000004400400044097
:401EC000000000F0800000001C0715000000024008000440000004400400044000F00000080000000C03090000000240080004400000044004000440000000F08000000086
:401F00001C0715000000024008000440000004400400044000000F001000000010040C0000000240080004400000044004000440000000F0800000001C071500000002400C
:401F40000800044000000440040004400000F0002000000014050F0000000240080004400000044004000440000000F0800000001C071500FE070000BE070000C8070000F6
:401F8000D2070000E2070000EC070000F6070000EEDBC9B9AA9B8E82766B60564D443B332C241D17100A044300000000F8B5C046F8BC08BC9E46704759010000FD02000035
:401FC000F8B5C046F8BC08BC9E46704731010000E01F0000800000208800000058020000000000000D0A000000FFFF00D9150000010000000000C05D80BB000030000000DC
:40200000006CDC020000000000000000000000000000000000000000000000000000000000000000A71F000000000000000000000000000000000000000000000000000090
:40204000000000000000000000000000000000000000000000000000000000000000000000000000A40000200000000000000000000000000000000000000000000000009C
:402080000000000000000000000000000000000000000000000000000000000000000000000000000000000000000000000000000000000000000000000000000000000020
:4020C00000000000000000000000000000000000000000000000000000000000000000000000000000000000000000000000000000000000000000000000000000000000E0
:40210000000000000000000000000000000000000000000000000000000000000000000000000000000000000000000000000000000000000000000000000000000000009F
:40214000000000000000000000000000000000000000000000000000000000000000000000000000000000000000000000000000000000000000000000000000000000005F
:0200000490303A
:02000000E51009
:0200000490402A
:200000000000000000000000000000000000000000000000000000000000000000000000E0
:0200000490501A
:0C0000000002190111A90001190AF6B94B
:0200000490600A
:0100000001FE
:00000001FF