:400000000010002011000000A1020000A102000010B501F0B1FC00F04BF9C04610B51222124B1A60302001F019FCFE221202104B1A60104B104A1A60882189010F4A116041
:400040000F4A1A60E82149010E4A11600E4A1A6000220E4B1A6040320D4B1A6002320D4B1A60013A0C4B1A6010BDC04630001040000301400000014040FF00800803014091
:4000800042FF00800403014041FF00802800034008010140040101400001014010B572B6144A154B1A60EE22144B1A60144A154B1A603E22144B1A608132144B1A60BC3A39
:4000C000134B1A602132134B1A609332FF32124B1A600223114A13601149124A1160124A13600C22114B1A60FFF798FF00F0C8F810BDC0466666666000000240000102401C
:4001000090EE000000030240000004401800044000010440080104400802044000030440B06D1B0008030440180304401804044010B5064C2378002B07D1054B002B02D0ED
:40014000044800E000BF0123237010BD0801002000000000201C0000084B10B5002B03D00749084800E000BF07480368002B00D110BD064B002BFBD09847F9E700000000CD
:400180000C010020201C0000800000200000000010B5002000F0E0FA43425841C0B201F02FFC012000F0D8FA43425841C0B201F0EBFB022000F0D0FA43425841C0B201F034
:4001C000EFFB032000F0C8FA43425841C0B201F00BFC042000F0C0FA43425841C0B201F0EBFB052000F0B8FA43425841C0B201F0EFFB10BD10B562B600F0B2F800F054F9D0
:4002000000F05EFD00F01EFD002816D100F066F900F0BEFAFFF7BCFF094C0221200000F0BDF8FC21074800F0B9F8201D032100F0B5F800F081FA00F043FD01F085FBE1E795
:4002400084000020440200200B4B1B68002803D080221206134301E05B005B08064A1360064B1B68002802D02022134301E020229343024A1360704700200240280003408C
:4002800010B580225201044B1A601122034B1A600120FFF7D9FF10BD94020B40C0020B4010B501F07FFC03680C2B00D1FEE7FEE770B50F4E0F4D13E029686B68AC6800223D
:4002C00002E001C901C30432A242FAD1E868002202E0002102C304328242FAD11035013E002EE9D101F064FCFFF784FFFEE7C04601000000E01E000010B500230AE0032B8A
:4003000003D89A000849505800E008489900084A885001331F2BF2D9FFF7C0FE80229205044B1A6010BDC04600000000A10200000000002008ED00E010B500F08FF810BDE9
:4003400010B500F037F810BD10B5044A1368802109060B431360FFF7EFFF10BD0000094010B5064B1B78002B04D1FFF7E9FF0122024B1A70FFF7E8FF10BDC046240100205D
:40038000044B1B681F221340082BF9D0024B18607047C046080209404002094070B506000D00002403E0305DFFF7EAFF0134AC42F9D370BD154A164B1A600023154A136085
:4003C0001549164A1160072215490A6015490A60154A13600121154A11601549154A1160154A13600421154A1160154A1360154A1360154A1360154A1360154A1360154AE3
:4004000013601268144B1A807047C0460B000002000009404000094001000A004800094000030940040309401003094044000940070000800002094004020940500009405F
:40044000880E0940C80E0940480F0940080F0940C80F0940880F09402601002005490B68F0229343603A13430B60034B1A88034B1A6070470003024026010020880F094058
:4004800010B5084B1B78002B06D100F013F900F075F90122034B1A7000F042F800F00CFD10BDC0462801002010B5FFF7E9FF041E02D100F0D9FC0400002C02D100F000FCAF
:4004C0000400002C03D100F0BDFB0028FBD100F0B9FA00F02FFA200010BDC04670B50E4E0024002513E06B0904339B000B4A9B581F222A40D340DB0707D5300000F058F876
:4005000004003100280000F0A9F820360135052DE9D9200070BDC046381C00004402002070B5002309E012491A1D92008818002444600120404250500133002BF3D00D4CC5
:40054000062310E06668A27E094B5B1900211976012A06D12069002803D0F179228B01F056FB20342B005D1E002BEBD170BDC04644020020381C000030B50B88CA889B1AD0
:400580004A880C89121B8C884D89641B934202DB15001A002B00A24200DC14009C4200DB230000220A820279934200DD0B8230BDF0B583B0C7688468038B4668827E00926C
:4005C0000022019211E0009A2100380000F010FB009A2100300000F099FA019021003000FFF7CAFF183424372B005D1E002BEAD1019803B0F0BDC046F0B50A8B8D684F6840
:400600000B69012125E00C00044003D17E88BA79B21802E07A88BE79921B2E8AB24201D3002200E00A00A24202D01E78013E1E70A24202D01C78002C07D188431043002AF5
:4006400001D1FA7900E001221A704900183501336246541EA446002AD5D1F0BD70B504008A7E134B1B181D7E012A04D12800FFF7C3FF050002E0002001F070F80C4B1B1935
:400680001D7663091F2214401E3AA240002D07D104339B000649CB1859689143596006E004339B000249CB1859680A435A6070BD4402002070B51B4CFC220021200001F0F8
:4006C000A6FA194B238090231B016380174BA3800923E38301221733E254C133FF336384200024303B321249543101F087FA114A14001434062310E0A368218B08E01178AF
:400700005975517899759178D975033218330100481E0029F3D120342B005D1E002BEBD170BDC046440200204ED0FFFF70170000A41C0000241C00000123002006E0131D72
:400740009B000449CB185B68184313005A1E002BF5D170474402002005280BD81F23034001229A404009031D9B000348C3185868104000E000207047440200200023024A9F
:40078000D380024A13607047440200201C02002070B500250026414B1B68032B06D101F044F901223E4BDA8001F043F93C4BDC88E4B2062C23D8A3003A4AD3589F460122DF
:4007C000364B1A6001261AE00022344B1A60012615E0FFF769FE0022304B1A60012501260DE002222D4B1A60012608E000222B4B1A60012603E00322284B1A600026002E51
:400800000FD001F012F9264BDB88DBB29C4205D1234AD188244B0B439BB2D38001F009F900261E4B1B68012BB5D0022B33D11C4AEE33D35CDBB2F121525CD2B2052B2AD805
:4008400059011A484118098B8A4224D21449088980B2F224095B89B288421CD05B011349CB189C6853009A18D300E41801F0DDF80B4B1A8992B2F2215A52228892B202312C
:400880005A52628892B202315A52A28892B202315A5201F0CEF8280070BDC0461C02002044020020841E00000080FFFF381C0000FF231940062902D08318002119735300F1
:4008C000195AC318D9808218002393747047C04670B506000D00032305E0220029003000FFF7E6FF23005C1E002BF6D170BDC04610B54001054B1B184A005118C8009A686F
:4009000094466044997EFFF7E3FF10BD381C000070B505004301064AD3181B8B04E021002800FFF7E5FF23005C1E002BF7D170BD381C000010B5062303E02000FFF7E8FFF4
:4009400023005C1E002BF8D110BDC04670B5032309E0FF231340062B04D063005E5A1B199D002E5223005C1E002BF2D170BDC046F0B503230CE0FF231340062B07D06500A2
:400980006F5A2E19B300C3185F806D5A9D8023005C1E002BEFD1F0BDF0B503230EE0FF231340062B09D065006F5A2E19B300C318DF806E5A1E816D5A5D8123005C1E002B33
:4009C000EDD1F0BDF0B5474680B480464301164AD3181B8B22E043465A01134B9B1872009219D4009A6894466444DA6815009F7E062F03D0F3009B199D0055193A00210036
:400A00002800FFF7A3FF3A0021002800FFF7B0FF3A0021002800FFF7BFFF33005E1E002BD9D104BC9046F0BD381C000010B5062303E02000FFF7C6FF23005C1E002BF8D13F
:400A400010BDC04610B5FFF7F1FF10BDF0B5032319E0FF231340062B14D077007B5A9C46BD19AB00C318DC8864441D89AC4664445D896419A40865465D81DD881D817D5A95
:400A8000DD80CC5333005E1E002BE2D1F0BDC046884202D9030008001900914200D91100884200D208007047F0B557464E464546E0B480460E009246032315E0FF23524623
:400AC0001340062B0FD06F00B85B7B199C00444463889946A2881900FFF7DAFF4B46A380BB5B6380F0532B005D1E002BE6D11CBC90469946A246F0BD9840504380235B007A
:400B00009A1A51434018000A7047C046F8B54F464646C0B406000D00914603233EE06300585BEB18D988884205D3431A2A1900279774012201E00B1A0022002A11D17779A9
:400B4000BB420ED92B199B7C327A934205D3220049462800FFF7ACFE1FE02A19013393741BE03779BB4204D97779BB4215D2002A13D1FF234A461340062B0ED009022B191D
:400B800098461B7B194308230122FFF7B5FF020A6300EB18DA804346187323005C1E002BBDD100200CBC90469946F8BDF0B5474680B407000E009046032313E0FF234246D1
:400BC0001340062B0DD06500A85B2A199300D95B00238022FFF790FF80B22A199300D853A85323005C1E002BE8D104BC9046F0BD70B504000D001600FFF756FF32002900F4
:400C00002000FFF7D3FF320029002000FFF71EFF70BDC04601234B727047C04610B5064B1968064A0A401A601968054A0A401A6000F0EEFC10BDC04600040240FFF0FFFF4E
:400C4000FF0FFFFF024BDB68802018407047C0464402002010B50E4BDB68DB030DD405280DD8430904339B00094A9B581F220240D340DB0705D4012404E0112402E0012491
:400C800000E00024002C01D100F0D4FC200010BD4402002010B5084BDB68DB0307D4074B1B78022B05D100F0DBFB002003E0112001E00120404210BD440200202002002030
:400CC00010B50F4BDB681B0618D400240120404211E02000FFF7BEFF00280BD1042C03D80122084B5A7002E00022064B5A70FFF7D1FF04E00134052CEBD900E0112010BDDA
:400D0000440200202002002010B504000D4B1B78834216D0012B03D0022B01D1FFF77EFF012C0ED0022C05D100F014FA0222054B1A7006E0042C04D0032C02D00022014BD7
:400D40001A7010BD2002002030B500200D4B16E019680A681C69A2430A605C6822689D7E0721A9408A4311000622AA400A43226099680A685C69A2430A601C3301300B284D
:400D8000E6D930BD341D000010B51B4A93780133DBB293709078C0B2FFF75CFF041E09D1154B9B78052B02D10022134B5A70FFF771FF1EE0104B9B78052B11D10F4B1A89D5
:400DC00001321A81DA6880218A43DA60DA681202120ADA60DA6804061443DC60002408E0064AD3681B021B0AD360D16803060B43D360002CC9D110BD2002002044020020A6
:400E000010B500F075FC10BD074A084B1A6001380002074B1860054B1B68002BFBDB054A024B1A607047C04640000040000001400003014040FF0080034A13681B0B1B0325
:400E4000013818431060704700020B4010B5052801D8002400E00124002C02D1282100F069FA200010BDC04670B50024002504E02000FFF7EBFF05430134052CF8D92800EF
:400E800070BDC046024B18180279024B1A607047200200200C0F034010B5002407E06301044AD31859682000FFF7B4FE0134052CF5D910BD381C000010B5124B1B68DBB26C
:400EC000114A1371132B05D8190014315171283393710EE0EB2B06D90B4A190014395171283B937105E0084A19001439517114339371FFF7D1FFFFF727FF0220FFF704FF0B
:400F0000002010BD0C0F03402002002070B500F08CFD134A1168134B0B40136000F089FD00F083FD104A13680C218B43136000F080FD00F07AFD0D4C23680D4D2B40D822F4
:400F400012011343236000F074FD012000F0F2FC00F06BFD23681D40256000F06AFD70BD00040240FF00FFFF00040440080404403FF0FFFF034B5B8C0288981E504380B29A
:400F80007047C0464402002010B5344B1A68344B1B78D3185B7D334A1343334A13600022324B1A80324A334B1A600122324B1A601123324A136080214904314A1160314A71
:400FC00013600622304B1A60304A314B1A60314A314B1A60314A324B1A60F0239B0000E0013B2F4A1268D20701D5002BF8D12C4B1B68DB0703D5C2229200294B1A60202353
:40100000284AD15C284800F041FD284B984204D9274B984203D8302302E0202300E04023244A1343134A1360234A244B1A60002311490B6011490B6011490B60232011496E
:40104000086011490B6012490B6013490B60832149001B4B1960124B1A6010BD400300202D020020800E4301C0010B40300200202010048000000B4080010B4080020B40CC
:4010800084020B40C0020B4088020B4001010100B0020B4010100000B4020B400303000040030B4044020020006CDC02001BB70000366E0100100C80010300008C010B4029
:4010C000F0000B4010B50A2000F03EFB83225200154B1A60154B1B689BB2154A1380154B1B689BB21188CB189BB21380118889B253889BB2994202D953889BB213800E4B58
:401100001B6898470D4BDB681B0609D40C4A0D4B1A60C02292000C4B1A600C4A0C4B1A600A2000F007FB10BDF0000B40D0000B4030020020D4000B408C000020440200205E
:401140002010048000000B408C010B40800E4301C0010B4010B5832252004B4B1A6000244A4B1C60053AFF3A494B1A60494B1C60494B1C60494A4A4B1A60C0229200494B69
:401180001A60494A494B1A60494A4A4B1A604A4A4A4B1A604A4B1C604A4B1C604A4B1C604A4B1C604A4B1C6000F03FFC494A1168494B0B40802149010B43136000F039FC93
:4011C0003222464B1A6080225204454B1A6000F02CFC444A1168444B0B40802149050B43136000F026FC414B1C60414B1C602322404B1A60143A404B1A600B3A3F4B1A60DD
:401200003F4B1C603F4B1C60C22292003E4B1A603E4A3F4B1A60FFF779FE00F006FC3D4C22683D4B1340236000F003FC00F0FDFB22683A4B1340236000F0FBFB00F0F5FB4B
:40124000374C2268374B1340C022D2001343236000F0EFFB00F0E9FB2268334B1340C022D2011343236000F0E4FB304C2023E05CFFF7CAFD608CFFF7DFFDFFF765FD2C4857
:40128000FFF7BEFD10BDC046F0000B40F4000B40F8000B4080010B4084010B40411F000088010B408C010B40800E4301C0010B40AA000500F0010B40E001010000020B404D
:4012C00004020B4080020B4084020B4088020B4090020B4094020B40FFEFFFFFA0020B40A4020B40A8020B40EEFFFEEEB0020B40B4020B40C0020B4000030B4010030B401D
:4013000014030B4020030B4040030B402010048000000B40080404403FFEFFFFFFF1FFFF00040240FFF0FFFFFF0FFFFF44020020C5100000F0B5474680B482B001900E0026
:401340004301334CE418A3689846324B42461A606068FFF70FFE304B588058887043642100F094FB0600E37E227F5A43150000240EE0284A00201368188013684021597576
:401380005880136898809975D975183313600134AC42EED32024402700E01C000198FFF759FCFFF777FC1D4BDB681B06FBD4194B42461A60002120E0164B1B681A88964250
:4013C00002D25A7DBA435A755A7D22435A755A88964202D29A7DBA439A759A88964202D2DA7DBA43DA759A7D22439A75DA7D2243DA751833074A13600131A942DCD363086D
:40140000DBB2271EC9D102B004BC9046F0BDC046381C000040030020300200204402002010B542681168847E0623A3400B43136002681168007E042383400B43136010BD46
:4014400010B541680B68847E0722A24093430B6002681168007E062383400B43136010BD70B50025134B1D70134B1B68134A996811601A7F124CA280DA7EE2801968A16028
:40148000D300981A80000818E060FFF7C9FFA068FFF7D6FF0B4A0C4B1A600C4B1D700C4AD16880230B43D3600A2000F043FAFFF76BFD70BD2C02002028020020400300209C
:4014C00030020020111500008C0000202D020020440200200268136801698B431360704710B50268136801698B43136041680B68847E0722A24093431A000623A3401343FC
:401500000B608268136841698B43136010BDC04610B5384B1C6838490B783848428800885B00121A1A530878012807D80130C0B20870FFF7A7FCFFF727FD59E000222E4B5D
:401540001A700020FFF79EFC2C4CE068FFF7C2FF2B4A13780133DBB21370A388013B9BB2A380002B0CD0254BD8681C30D860FFF757FF204A136818331360FFF705FD37E066
:401580001E4AD388013B9BB2D380002B1DD014009068FFF7A5FFA0681C30A060FFF750FF184B1B681A7FA2801868E060DA7ED3009A1A9300C018E060FFF732FF0D4A136851
:4015C00018331360FFF7E0FC12E00C4B9868FFF787FF0D4B1B78002B02D0FFF7D5FB07E00A4B1A8901321A81DA6880218A43DA6010BDC046400300202D020020300200207A
:401600002C02002028020020210200204402002010B5074B1B8A002B08D0054CE068FFF759FFA068FFF75CFF0023238210BDC0463002002070B50400C2B2124B1A700220D7
:40164000FFF762FBFFF7E4FF60010F4BC0180F4B186046680E4D6C8C32880E4B1A603000FFF788FC0C4B5880737A013C2405240D1B041C43094B1C602023E85CFFF7C4FB64
:4016800070BDC04622020020381C0000280200204402002014030B403002002000020B40014B98667047C0460000002010B5040000F0BBF9044A1168044B0B40A4051C43B1
:4016C000146000F0B6F910BD08E400E0FFFF3FFF8022D200014B1A607047C04600E100E08022D200014B1A607047C04680E100E010B50400FFF7F4FF2000FFF7D1FF032057
:40170000FFF7D4FFFFF7E4FF10BDC046024A1168024B0B401360704700000740FFFFFFBF034B18688023DB05184000D001207047000007401F2318401E3B8340014A13609E
:401740007047C04600E100E01F2318401E3B8340014A13607047C04680E100E001BE704710B5040006E0084B586800F055F9074B9C46644480231B029C42F4D8024B986870
:40178000604300F049F910BD900000200080FFFF30B583B000F0E6F8002849D000F045F90400244B196889001C2319401831224B1B689B0803221340D940204B1A68204B2A
:4017C0001340204A4A438020C00184466244D20B013A5205520D1343A02252031A431000192902D8184A13430CE0184BCB181B781A39174A525C9A18FF2A00D9FF229205BF
:40180000030013430D4A1360124D2B680193302000F012F9104A13688021C9050B4313601420FFF79DFF019B2B60200000F001F903B030BD080F0340280003400800074004
:4018400000F800C040420F000000D43FCDF1FF0FA01E00003000104000000740F0B583B0040018280BD01C2809D0202807D0242805D0282803D02C2801D0302849D100F0BD
:40188000D4F80190FFF74CFF002803D0FFF73EFF012600E00026214A136807218B4313601F4BE3181B78DBB21E4A13601E4A13688B4313601D4803687F22934319001C4B95
:4018C000E3181B7813400B430360322000F0A4F8182C16D9114F3B680725AB431A0023001C3B9B082B4013433B60322000F094F83A68AA432300183B9B082C001C40144340
:401900003C60012E01D1FFF743FF019800F091F802E00020FFF722FF03B0F0BD080F0340CDF1FF0F0C0F0340100F0340180F0340B4F1FF0F10B5034B1B7B584300F06CF8AC
:4019400010BDC0469000002010B500F06EF8044A136804218B43136030BF00F06AF810BD10ED00E0034B1B68002B01DA012000E00020704700000740014A024B1A607047F0
:401980006588EDAC3800034004490A68D2B220239A43400118401043086070470003044004490A68D2B210239A43000118401043086070470003044004490A68D2B20223A4
:4019C0009A43400018401043086070470002044004490A68D2B204239A438000184010430860704700020440044A1368DBB201218B430840184310607047C0460002044087
:401A000004490A68D2B240239A4380011840104308607047000304400230800803D001300238FCD1C046C0467047EFF3108072B6704780F31088704770B50400FFF7F5FFE3
:401A40000500102C05D8104A136803218B43136016E0202C07D80C490B6803229343023A13430B600CE0302C07D807490B6803229343013A13430B6002E00020FFF76EFEE8
:401A80002800FFF7D6FF70BD30001040002243088B4274D303098B425FD3030A8B4244D3030B8B4228D3030C8B420DD3FF22090212BA030C8B4202D31212090265D0030B5C
:401AC0008B4219D300E0090AC30B8B4201D3CB03C01A5241830B8B4201D38B03C01A5241430B8B4201D34B03C01A5241030B8B4201D30B03C01A5241C30A8B4201D3CB0257
:401B0000C01A5241830A8B4201D38B02C01A5241430A8B4201D34B02C01A5241030A8B4201D30B02C01A5241CDD2C3098B4201D3CB01C01A524183098B4201D38B01C01A68
:401B4000524143098B4201D34B01C01A524103098B4201D30B01C01A5241C3088B4201D3CB00C01A524183088B4201D38B00C01A524143088B4201D34B00C01A5241411A3F
:401B800000D20146524110467047FFE701B5002000F006F802BDC0460029F7D076E770477047C046014B18687047C046040100200E4B70B500251E000D4CE41AA410A542DB
:401BC00004D0AB00F35898470135F8E700F076F9084B00251E00084CE41AA410A54204D0AB00F35898470135F8E770BDC81E0000C81E0000C81E0000D01E0000002310B5D2
:401C00009A4203D0CC5CC4540133F9E710BD03008218934202D019700133FAE770470000000000002020202020202020202020202020202020200000341D00006802002020
:401C4000A4020020E0010020180200200828000001000101010000006C1D000072020020BC020020BC01002014020020002800000100010101000000A41D00007C02002096
:401C8000D40200209801002010020020002800000100010101000000DC1D000086020020EC020020740100200C020020002800000100010101000000141E00009002002095
:401CC0000403002050010020080200200028000001000101010000004C1E00009A0200201C0300202C010020040200200028000001000101010000003200E8034B4B140229
:401D00001E003200E80328280A031E003200E80328280A031E003200E80328280A031E003200E80328280A031E006400E80328280A031E0000000240080004400000044089
:401D4000040004400F000000010000000000000000000240080004400000044004000440000000F0800000001C07150000000240080004400000044004000440F00000003F
:401D8000020000000401030000000240080004400000044004000440000000F0800000001C07150000000240080004400000044004000440000F000004000000080206001A
:401DC00000000240080004400000044004000440000000F0800000001C0715000000024008000440000004400400044000F00000080000000C030900000002400800044069
:401E00000000044004000440000000F0800000001C0715000000024008000440000004400400044000000F001000000010040C0000000240080004400000044004000440FB
:401E4000000000F0800000001C071500000002400800044000000440040004400000F0002000000014050F0000000240080004400000044004000440000000F080000000DE
:401E80001C071500FE070000BE070000C8070000D2070000E2070000EC070000F6070000EEDBC9B9AA9B8E82766B60564D443B332C241D17100A044300000000F8B5C046D1
:401EC000F8BC08BC9E46704759010000F9020000F8B5C046F8BC08BC9E46704731010000F01E0000800000208800000040020000000000000D0A000000FFFF0011150000CF
:401F0000010000000000C05D80BB000030000000006CDC020000000000000000000000000000000000000000000000000000000000000000B71E00000000000000000000F9
:401F400000000000000000000000000000000000000000000000000000000000000000000000000000000000000000000000000000000000A400002000000000000000009D
:401F80000000000000000000000000000000000000000000000000000000000000000000000000000000000000000000000000000000000000000000000000000000000021
:401FC00000000000000000000000000000000000000000000000000000000000000000000000000000000000000000000000000000000000000000000000000000000000E1
:4020000000000000000000000000000000000000000000000000000000000000000000000000000000000000000000000000000000000000000000000000000000000000A0
:402040000000000000000000000000000000000000000000000000000000000000000000000000000000000000000000000000000000000000000000000000000000000060
:0200000490303A
:020000009F81DE
:0200000490402A
:200000000000000000000000000000000000000000000000000000000000000000000000E0
:0200000490501A
:0C0000000002190111A90001190AB12A1F
:0200000490600A
:0100000001FE
:00000001FF